:020000041000EA
:1004000000080108910400100D000000DD7B0210BF
:1004100000000000000000000000000000000000DC
:10042000000000000000000000000000C57B02107A
:100430000000000000000000897B0210FD04001095
:10044000FD040010E57B0210FD040010254202109F
:10045000FD040010FD040010FD040010597A021084
:10046000FD040010FD040010FD040010FD04001048
:10047000FD040010FD040010FD040010FD04001038
:100480007047EFF3108072B6704780F310887047A2
:10049000FFF7F6FF72B6144C144DAC4209DA21682E
:1004A0006268A368043B02DBC858D050FAE70C34FA
:1004B000F3E70F4B0F4CA34208DA19685A68002083
:1004C000043A01DB8850FBE70833F4E727F092FB9E
:1004D000EFF314800221084380F31488064880F368
:1004E000098824F0BFFDFEE71C050010D0050010B0
:1004F000D0050010A806001000100108FEE7FEE776
:1005000000B504207146084202D0EFF3098001E0F3
:0C051000EFF30880043026F003FEFEE745
:10051C0060520310407F0208E80A000020510310CB
:10052C00001001080000000020510310807C01081D
:10053C00000000002051031000C40108400000001E
:10054C0060510310005402080000000060510310B9
:10055C00805802080000000060510310006502087A
:10056C000000000000510310001000080000000003
:10057C0060510310806802080001000060520310F3
:10058C0000780208000000000051031080140008DD
:10059C00000000000051031080170008200000002C
:1005AC0060520310A07A02080000000020510310D2
:1005BC00001C000800000000485D031000F0020859
:0405CC000006000025
:1005D000288A020800240000001001084062000080
:1005E00080720108000A0000807C0108404200007F
:1005F00000BF01080005000040C40108806F000032
:10060000003402080020000000540208200000000E
:1006100080540208000400008058020860020000B4
:10062000005B0208000A00000065020820000000CC
:10063000806502080003000000100008200200008E
:100640008012000800020000806902080002000019
:10065000806B0208800C0000007802082000000077
:1006600080780208200200008014000820000000AA
:100670000015000880020000A017000820000000FC
:100680000018000800040000A07A02082000000002
:10069000007B020840040000001C0008200000004D
:0806A000801C000800020000AC
:0806A80000000000000000004A
:1006B000000000000000000000000000000000003A
:1006C000000000000000000000000000000000002A
:1006E00010B5034B0A000100186800F056F810BD61
:1006F000BC890208084B10B50400002B02D0002171
:1007000000E000BF054B1868836A002B00D09847B3
:1007100020002FF0BBF9C046000000009017001029
:1007200010B5034B0100186800F046F810BDC04634
:10073000BC89020830B50024A24201D1002005E0A6
:10074000035D651C0C5DA34201D0181B30BD2C005D
:10075000F2E7002310B59A4200D110BDCC5CC4541E
:100760000133F8E710B5884202D98B18984203D3B9
:10077000002307E08B5C8354013AFBD210BDCC5CB4
:10078000C45401339A42FAD1F8E703001218934295
:1007900000D1704719700133F9E74A4370B5110071
:1007A000140000F053F8051E03D022000021FFF7CB
:1007B000ECFF280070BD000070B50500002910D0C6
:1007C0000C1F2368002B00DAE418280000F02AFC34
:1007D0001D4A1368002B05D163601460280000F0E7
:1007E00022FC70BDA34209D9216860188342F3D16D
:1007F00018685B6841182160EEE713005A68002A08
:1008000001D0A242F9D919685818A0420BD120682A
:100810000918581819608242E0D1106852684118CE
:1008200019605A60DAE7A04202D90C232B60D5E7A1
:1008300021686018824203D1106852684118216013
:1008400062605C60CAE7C04614AE0208032370B55C
:10085000CD1C9D43083506000C2D1ED20C25A94247
:100860001DD8300000F0DEFB254A14682100002965
:1008700019D1244C2368002B03D1300000F0DCF8A0
:1008800020602900300000F0D7F8431C2BD10C2346
:100890003000336000F0C7FB03E0002DDFDA0C23EB
:1008A0003360002070BD0B685B1B19D40B2B03D980
:1008B0000B60CC18256003E04B688C420DD11360AF
:1008C000300000F0B0FB200007220B30231D9043C6
:1008D000C31AE7D05A42E250E4E763600C00EFE746
:1008E0000C004968C3E70323C41C9C43A042E1D029
:1008F000211A300000F0A0F8431CDBD1C7E7C04646
:1009000014AE020818AE02080FB40B4B13B51C68E6
:10091000002C05D0A369002B02D1200000F082FA40
:1009200005AB049AA1682000019300F0A5FB16BC5A
:1009300008BC04B01847C046BC890208084B70B513
:100940001C680500002C05D0A369002B02D12000F3
:1009500000F068FA2900A268200000F019FE70BDBE
:10096000BC89020870B505000E00002804D0836918
:10097000002B01D100F056FAAB69AC68002B02D114
:10098000280000F04FFA244B9C420FD16C68A389D9
:100990001B0702D52369002B1FD12100280000F07E
:1009A000D3F8002819D00120404270BD1B4B9C4257
:1009B00001D1AC68EBE71A4B9C42E8D1EC68E6E762
:1009C0000136A360002B04DAA2699A4216DC0A29D8
:1009D00014D023685A1C22601970A3683178013B37
:1009E0000029EDD1A360002B0FDA22000A31280084
:1009F00000F054F8431CD6D00A20D6E72200280085
:100A000000F04CF8431CE8D1CDE70A2023685A1CBB
:100A100022601870C9E7C046B4170010D417001040
:100A20009417001010B5034B01001868FFF79AFFE8
:100A300010BDC046BC890208002370B5064C0500F5
:100A4000080023602FF014F8431C03D12368002B07
:100A500000D02B6070BDC04624AE02080023C25CEB
:100A60000133002AFBD1581E704710B50378002BC4
:100A70000FD10B785A4253415B42184010BD0023FE
:100A8000CA5C002AFAD0C45C944201D10133F7E772
:100A900001300378002BF2D11800EFE7F8B505001C
:100AA0000E001400002804D08369002B01D100F04F
:100AB000B9F9224B9C422DD16C68A369A360A3892C
:100AC0001B0731D52369002B2ED023682269F7B28A
:100AD000981A6369F6B2834205DC2100280000F011
:100AE00033F9002826D1A3680130013BA3602368B5
:100AF0005A1C22601F706369834204D0A389DB07FC
:100B00001AD50A2E18D12100280000F01DF900285E
:100B100012D00FE00A4B9C4201D1AC68CDE7094BE3
:100B20009C42CAD1EC68C8E72100280000F00CF80C
:100B30000028CAD0012676423000F8BDB417001054
:100B4000D417001094170010364B70B51D680600BE
:100B50000C00002D05D0AB69002B02D1280000F05D
:100B600061F9314B9C420FD16C680C23E25E93B269
:100B700019072DD4D90611D4092301203360373346
:100B80001343A381404270BD284B9C4201D1AC6805
:100B9000EBE7274B9C42E8D1EC68E6E75B0713D50F
:100BA000616B002908D023004433994202D0300001
:100BB000FFF702FE002363632422A3899343A381EA
:100BC00000236360236923600823A2891343A38160
:100BD0002369002B0BD1A0218022A38989009200D8
:100BE0000B40934203D02100300000F0D7F90123DD
:100BF000A289134011D00023A36063695B42A36103
:100C0000002023698342BED10C23E25E1306BAD5CD
:100C100040231343A3810138B5E7920700D46369E9
:100C2000A360EDE7BC890208B4170010D4170010C8
:100C300094170010F7B58A8905000C00130760D4DB
:100C40004B68002B04DC0B6C002B01DC0020FEBD8C
:100C5000E76A002FFAD000232E682B6080235B0107
:100C6000216A1A4034D0606DA3895B0706D563689A
:100C7000C01A636B002B01D0236CC01A0200216ADA
:100C800000232800E76AB847A189431C06D12B68D6
:100C90001D2B30D82B4ADA40D3072CD500236360B4
:100CA00023692360CB0405D5431C02D12B68002B9C
:100CB00000D16065616B2E600029C7D023004433EA
:100CC000994202D02800FFF777FD00206063BEE75D
:100CD00001232800B847431CC6D12B68002BC3D082
:100CE0001D2B01D0162B01D12E60AFE74023A28926
:100CF0001343A381ABE740230B430120A381404270
:100D0000A5E70F69002FA1D00B680F60DB1B0193D3
:100D10000023920700D14B69A360019B002B00DCEC
:100D200094E7019B3A00216A2800A66AB047002890
:100D300003DC4023A2891343DFE7019B3F181B1A02
:100D40000193EAE7010040200B6970B505000C0033
:100D5000002B01D1002070BD002804D08369002B36
:100D600001D100F05FF80B4B9C4209D16C680C225A
:100D7000A35E002BEED021002800FFF75BFFEAE71F
:100D8000054B9C4201D1AC68F1E7044B9C42EED18B
:100D9000EC68ECE7B4170010D4170010941700109B
:100DA000002310B5040003604360836081814366C3
:100DB000C281036143618361190008225C30FFF73F
:100DC000E4FC054B24626362044BA362044BE362C0
:100DD000044B236310BDC046FD15001025160010FE
:100DE0005D1600108916001010B5024900F08CF84D
:100DF00010BDC046490D001070B568254A1E554308
:100E00000E0029007431FFF721FD041E08D00021D7
:100E10002A00016046600C30A0606832FFF7B5FC24
:100E2000200070BD836913B50400002B28D18364B2
:100E3000C3640365134B144A1B6882620193984292
:100E400001D101238361200000F020F860602000C0
:100E500000F01CF8A060200000F018F80022E0600C
:100E600004216068FFF79CFF01220921A068FFF7B9
:100E700097FF02221221E068FFF792FF0123A3618E
:100E800013BDC04690170010E90D0010F8B51C4BBB
:100E900007001E68B369002B02D13000FFF7C2FFC4
:100EA0004836B4687368013B04D53368002B07D01B
:100EB0003668F6E70C22A55E002D0DD06834F2E707
:100EC00004213800FFF798FF30600028F0D10C2390
:100ED00004003B602000F8BD20000A4B65662560D9
:100EE0006560A560E36025616561A5610822290050
:100EF0005C30FFF74AFC6563A563A564E564E9E738
:100F0000901700100100FFFFF7B50400070000264E
:100F100001914834002C01D13000FEBD6368A56802
:100F20000093009B013B009301D52468F2E7AB8955
:100F3000012B08D90E22AB5E013304D02900380002
:100F4000019B984706436835EBE7000070B50E003B
:100F50001D000E23C95E96B01400002907DA002395
:100F60002B60B3891B0611D48023DB000FE06A4697
:100F700000F0B6FB0028F2DBF022019B12021340C6
:100F8000054A9B185A4253412B60EDE7402300204D
:100F9000236016B070BDC04600E0FFFFF7B5022623
:100FA0008B8905000C00334206D0230047332360B1
:100FB000236101236361F7BD01AB6A46FFF7C6FFFA
:100FC000009907002800FFF741FC002808D10C22F7
:100FD000A35E9A05EFD4032293431E43A681E4E760
:100FE0000F4BAB628023A28920601343A381009B37
:100FF00020616361019B002B0DD00E23E15E280070
:1010000000F080FB002806D00322A38993431A0036
:1010100001231343A381A0893843A081CBE7C046B5
:10102000E90D001070477047936810B5013B93605D
:10103000002B04DA9469A34207DB0A2905D0136860
:10104000581C10601970080010BDFFF727FD010043
:10105000F9E7F8B506000F001400D518AC4201D12D
:10106000002007E021783A003000FFF7DDFF01346F
:10107000431CF3D1F8BD0000F0B5A1B003900F0000
:1010800016001D00002805D083690593002B01D1AF
:10109000FFF7C8FE7B4B9F425CD1039B5F68BB8917
:1010A0001B0763D53B69002B60D0002308AC63614C
:1010B000203363761033A376079535002B78002B09
:1010C00001D0252B5CD1AB1B05930CD0320039002D
:1010D0000398FFF7BEFF431C00D1C4E06269059B83
:1010E0009446634463612B78002B00D1BBE001225E
:1010F00000235242626004A9543252186E1C2360CD
:10110000E360A3601370A365317805225E4800F0A8
:101110001FFB751C002835D12268D30604D5532344
:1011200004A95B1820211970130704D5532304A9BF
:101130005B182B21197033782A2B2CD03500002115
:101140000A20E3682A786E1C303A092A64D90029FB
:101150002ED026E04D4B9F4202D1039B9F689EE715
:101160004B4B9F429BD1039BDF6898E73900039864
:10117000FFF7EAFC002898D00120404221B0F0BDE2
:1011800001359BE7404B2268C01A0123834013437B
:1011900023602E00B8E7079B191D1B680791002BE1
:1011A00001DB0B9304E05B42E36002231343236003
:1011B0002B782E2B0AD16B782A2B35D1079B023541
:1011C0001A1D1B680792002B2BDB0993314E2978DF
:1011D0000322300000F0BCFA002806D04023801B18
:1011E00083402268013513432360297806222A4868
:1011F0006E1C217600F0ACFA00283AD0274B002B69
:1012000025D10722079B073393430833079363696C
:10121000049A9B18636150E7434301219B183500F2
:1012200090E701235B42D0E700230A201A00013532
:10123000636029786E1C3039092903D9002BC5D089
:101240000992C3E74243012352183500F1E707AB87
:1012500000933A00124B2100039800E000BF049075
:10126000049B0133D3D1BB895B0600D584E70D987D
:1012700084E707AB00933A00094B2100039800F084
:101280007FF8ECE7B4170010F4170010D417001023
:1012900094170010FA170010FE170010000000004D
:1012A00053100010F7B5150001938A680B69009080
:1012B0000C00934200DA130022002B6043321278B4
:1012C000002A01D001332B6023689B0602D52B68CE
:1012D00002332B60062723681F4027D023004333A7
:1012E0001B785A1E93412268920630D4220001993D
:1012F00043320098089EB047431C25D0062320683F
:101300002A68E16803400025042B03D18D1AEB43C2
:10131000DB171D40A3682269934201DD9B1AED187B
:101320000027BD4220D1002010E00137E3682A6881
:101330009B1ABB42D2DD2200012319320199009889
:10134000089EB047431CF0D101204042FEBD302032
:10135000E1184331087021005A1C45310978A21860
:10136000433202331170C1E7220001231A3201997E
:101370000098089EB047431CE6D00137D1E7000033
:10138000F0B589B004920A004332059303900292AB
:101390000A7E0C000E9B6E2A00D186E01FD8632ABD
:1013A00033D008D8002A00D18CE0582A4DD025002F
:1013B00042352A7030E0642A01D0692AF7D11968D1
:1013C00025680A1D280629D508681A60002803DA4E
:1013D0002D23029A404213706B4E0A274FE0732A66
:1013E00074D008D86F2A1FD0702AE0D12022096853
:1013F0000A43226003E0752A16D0782AD7D122004A
:10140000782145321170614E22E025001A6842357C
:10141000111D196013682B70012365E008681A60BC
:101420006906D3D500B2D1E719682568081D186090
:1014300008682E0605D5544E08276F2A1BD00A27A8
:1014400019E06D06F7D580B2F5E745314E4E0A70CA
:1014500018682268011D00681960150621D5D30798
:1014600002D520231A4322601027002803D120230D
:1014700022689A4322602300002243331A70636873
:10148000A360002B58DB04222168914321600028CF
:1014900054D1029D002B5AD02500337842352B7051
:1014A00055E05506DBD580B2D9E71A680D68101DE6
:1014B0004969186013682E0601D5196002E06D06AF
:1014C000FBD519800023029D23614FE01A68111D8E
:1014D0001960156800216268280000F039F90028B9
:1014E00001D0401B6060636823610023029A13707F
:1014F0003CE023692A0004990398059DA847431CF2
:101500003ED023689B0715D4079BE068984239DAE0
:10151000180037E022000123193204990398059E30
:10152000B047431C2CD00135E368079A9B1AAB42A5
:10153000F0DCE9E70025F7E70028ADD0029D39008F
:1015400001F0DAFD735C013D2B700028F7D1082F04
:1015500009D12368DB0706D563682269934202DC60
:101560003023013D2B70029B5B1B2361059B07AA67
:1015700000932100049B0398FFF794FE431CB8D10D
:101580000120404209B0F0BD0518001016180010E7
:1015900070B506000D001400002804D08369002BEC
:1015A00001D1FFF73FFC124B9C4211D17468A36834
:1015B000013BA360002B05DAA269934212DBEBB278
:1015C0000A2B0FD02368E8B25A1C22601D7070BD30
:1015D000084B9C4201D1B468E9E7074B9C42E6D135
:1015E000F468E4E7220029003000FFF757FAEEE73D
:1015F000B4170010D41700109417001070B50C0029
:101600000E25495F00F0B0F8002803DB636D1B185E
:10161000636570BDA389024A1340A381F9E7C04600
:10162000FFEFFFFFF8B51F008B8905000C001600C7
:10163000DB0505D50E23C95E0022022300F074F8F5
:10164000A389054A28001340A38132000E23E15EDE
:101650003B0000F01FF8F8BDFFEFFFFF70B50C0076
:101660000E25495F00F060F8A389421C03D1054AAA
:101670001340A38170BD802252011343A381606592
:10168000F8E7C046FFEFFFFF10B50E23C95E00F07C
:1016900015F810BD70B50500080011000022064CB9
:1016A00022601A0021F00CF9431C03D12368002B9F
:1016B00000D02B6070BDC04624AE0208002370B578
:1016C000064C0500080023602EF0AAF9431C03D144
:1016D0002368002B00D02B6070BDC04624AE0208EA
:1016E000002370B5064C05000800110023602EF0A1
:1016F0009FF9431C03D12368002B00D02B6070BDE1
:1017000024AE0208002370B5064C050008002360D3
:101710002EF096F9431C03D12368002B00D02B60D8
:1017200070BDC04624AE020870B505000800110067
:101730000022064C22601A002EF08AF9431C03D1C5
:101740002368002B00D02B6070BDC04624AE020879
:10175000C9B28218904201D10020704703788B42B1
:10176000FBD00130F6E7000070B50500080011005D
:101770000022064C22601A002EF072F9431C03D19D
:101780002368002B00D02B6070BDC04624AE020839
:10179000C0890208000000000000000000000000F6
:1017A0000000000000000000000000000000000039
:1017B0000000000000000000000000000000000029
:1017C0000000000000000000000000000000000019
:1017D0000000000000000000000000000000000009
:1017E00000000000000000000000000000000000F9
:1017F00000000000232D302B2000686C4C00656633
:101800006745464700303132333435363738394151
:101810004243444546003031323334353637383967
:10182000616263646566000005DF70470020FBE7C6
:1018300009DF70470EDFFEE70EDFFEE730B585B04B
:101840000291050001210C48039204F0C7F9041E1F
:101850000EDD002329000193009302AA013304F056
:10186000BFF90500200004F0C7F9280005B030BD1D
:1018700084256D42F9E7C046E0F0000030B5012153
:1018800083B00B4804F0AAF9041E0DDD00230022EA
:1018900001930093002104F0A3F90500200004F057
:1018A000ABF9280003B030BD84256D42F9E7C0468E
:1018B000C0F0000070B51E0086B01B680290039156
:1018C000202001210492059304F088F9051E15DDFE
:1018D0000123019304AB009302AA0123002104F029
:1018E0007FF90400280004F087F9002C06DB02D001
:1018F000200006B070BD059B3360F9E70620F8E7CD
:1019000030B589B003AB04930423039006912120E2
:1019100001210593079304F061F9051E11DD0123F0
:10192000019306AB009304AA0123002104F058F9A7
:101930000400280004F060F9002C02DB200009B04C
:1019400030BD0620FBE7C04630B589B004930223C2
:1019500002900391059301210233222006920793FE
:1019600004F03CF9041E0FDD0323019302AB009346
:1019700000220023002104F033F90500200004F0C8
:101980003BF9280009B030BD0620FBE730B58FB029
:101990000290039102A908910A93082112AB0C93BB
:1019A000042309910B92073905AA60200D93069232
:1019B000079304F013F9041E10DD0123019306AB15
:1019C000009308AA0323002104F00AF9050020006F
:1019D00004F012F9002D01D1059800E00B200FB0A2
:1019E00030BDC04630B591B0039204AA08920822D7
:1019F000099203AA0A920422049005910B9207A966
:101A00000D92149A0C91612001210E920F9304F013
:101A1000E5F8041E10DD022301930CAB009308AA25
:101A20000223002104F0DCF80500200004F0E4F8B3
:101A3000002D01D1079800E00B2011B030BDC04649
:101A400030B58DB00290039105A902AB0891042135
:101A50000693082309916220033907930A920B9396
:101A600004F0BCF8041E10DD0223019308AB0093C0
:101A700006AA0123002104F0B3F80500200004F0B9
:101A8000BBF8002D01D1059800E00B200DB030BD52
:101A900030B58BB002AB06930823079305AB0893D0
:101AA00004230290039101216320099304F096F826
:101AB000041E10DD0123019308AB009306AA012345
:101AC000002104F08DF80500200004F095F8002DA9
:101AD00001D1059800E00B200BB030BD0C20704701
:101AE0000C207047002310B586B0039303AB04931A
:101AF000042301216420059304F070F8041E0BDD1B
:101B00000123019304AB009300220023002104F081
:101B100067F8200004F070F8039806B010BDC046C6
:101B200030B58BB00290039102A90491069308216D
:101B30000EAB08930423059170200739079209938F
:101B400004F04CF8041E10DD002304AA0193009356
:101B50000021033304F044F80500200004F04CF8A1
:101B6000032D05D028000BB030BD84256D42F9E768
:101B700087256D42F6E7C04670B58CB0039204AA83
:101B800008920822099203AA0A920422119E0B923B
:101B9000109A0490059106920793002E19D0012106
:101BA000712004F01BF8041E16DD0123019306AB1F
:101BB000009308AA0223002104F012F80500200077
:101BC00004F01AF8032D04D0079B336028000CB0F2
:101BD00070BD87256D42F9E784256D42F6E7C04662
:101BE00030B589B002AB04930823029003910593AA
:101BF0000121043372200692079303F0EFFF041EC5
:101C000011DD0123019306AB009304AA01230021F7
:101C100003F0E6FF0500200003F0EEFF032D05D0E2
:101C2000280009B030BD84256D42F9E787256D4253
:101C3000F6E7C04630B587B002AB049308230290A4
:101C4000039101217320059303F0C8FF041E0EDDEC
:101C5000002304AA019300930021013303F0C0FF85
:101C60000500200003F0C8FF280007B030BD842520
:101C70006D42F9E70020704730B595B007AC05001C
:101C8000342200212000FEF780FD3423012104933B
:101C90008020323B03940595069303F09FFF041EBA
:101CA0000FDD0123019305AB009303AA012300215B
:101CB00003F096FF0500200003F09EFF280015B0FA
:101CC00030BD84256D42F9E7F0B599B00700039166
:101CD0001600002130220CA8FEF757FD342308938C
:101CE00003AB0993042301250BAC0A930121023BAA
:101CF0008020676107940B950596069303F06EFFAD
:101D0000041E0EDD05AB0195009307AA02230021F6
:101D100003F066FF0500200003F06EFF280019B0F5
:101D2000F0BD84256D42F9E7862040427047C046E9
:101D300030B505001A2093B02E2200216844FEF72A
:101D400024FD022305AC0593012132338020A580B8
:101D50000394049303F042FF041E0EDD002303AA44
:101D6000019300930021013303F03AFF05002000A6
:101D700003F042FF280013B030BD84256D42F9E71F
:101D8000F0B5C6468046222000B594B00F0016007C
:101D900000212E2268441D00FEF7F7FC0323079361
:101DA000434607ACA380342301218020A76003941D
:101DB00004930596069503F011FF041E10DD002321
:101DC00003AA019300930021023303F009FF0500E9
:101DD000200003F011FF280014B004BC9046F0BDB1
:101DE00084256D42F7E7C04630B505001A2093B050
:101DF0002E2200216844FEF7C8FC042305AC05939D
:101E0000012130338020A5800394049303F0E6FE83
:101E1000041E0EDD002303AA019300930021013369
:101E200003F0DEFE0500200003F0E6FE280013B0FC
:101E300030BD84256D42F9E7F0B507002A2097B040
:101E40000E00150000212E226844FEF79EFC05239B
:101E500009932F3309AC04930121303B8020A780E4
:101E60000394059606930795089303F0B7FE041EA6
:101E70000FDD0223019305AB009303AA0123002188
:101E800003F0AEFE0500200003F0B6FE280017B0F8
:101E9000F0BD84256D42F9E7F0B5C6460700222063
:101EA00000B594B00E00150000212E22684498461B
:101EB000FEF76BFC062307AC079301212E3380202D
:101EC000A780039404930596069503F087FE041EED
:101ED00014DD0123019305AB009303AA0123002124
:101EE00003F07EFE4346069A05001A60200003F0C8
:101EF00083FE280014B004BC9046F0BD84256D42DA
:101F0000F7E7C046F0B5C6460700222000B594B0FA
:101F10000E00150000212E2268449846FEF735FC7D
:101F2000072307AC079301212D338020A78003945A
:101F300004930596069503F051FE041E14DD01235B
:101F4000019305AB009303AA0123002103F048FE8F
:101F50004346069A05001A60200003F04DFE280053
:101F600014B004BC9046F0BD84256D42F7E7C0462E
:101F7000F0B50E240700322099B06C442180160081
:101F800000212E226844FEF700FC08230B932C331B
:101F90000693323B0BAD089301210A33802007944E
:101FA000AF80059509960A9303F018FE041E0EDD16
:101FB000002305AA019300930021033303F010FED0
:101FC0000500200003F018FE280019B0F0BD84259C
:101FD0006D42F9E706C07047006870474068704777
:101FE00070B50600222094B00D002E220021684416
:101FF000FEF7CBFB092307932B3307AC0493012196
:10200000283B8020A68003940595069303F0E6FD07
:10201000041E0EDD002303AA019300930021023366
:1020200003F0DEFD0500200003F0E6FD280014B0FB
:1020300070BD84256D42F9E770B50600222094B08A
:102040000D002E2200216844FEF79FFB0A23079310
:102050002A3307AC04930121283B8020A6800394F7
:102060000595069303F0BAFD041E0FDD01230193CD
:1020700005AB009303AA0123002103F0B1FD050085
:10208000200003F0B9FD280014B070BD84256D4216
:10209000F9E7C04670B50600222094B00D002E224C
:1020A00000216844FEF771FB0B230793293307AC2B
:1020B00004930121303B8020A6800394059506936C
:1020C00003F08CFD041E0FDD0123019305AB00938B
:1020D00003AA0123002103F083FD0500200003F083
:1020E0008BFD280014B070BD84256D42F9E7C04611
:1020F000F0B5C64600B596B004000F0016000021EA
:1021000030220AA89846FEF740FB0C230993236867
:1021100009ADAB613423012104938020303B059449
:10212000039506930797089603F058FD041E14DDE7
:102130000223019305AB009303AA0123002103F0BE
:102140004FFD4346089A05001A60200003F054FD35
:10215000280016B004BC9046F0BD84256D42F7E718
:10216000F0B597B004000F001600002130220AA835
:10217000FEF70BFB0D230993236809ADAB613423F4
:10218000012106938020303B03940595079708961C
:10219000049303F023FD041E0FDD0123019303AB21
:1021A000009305AA0223002103F01AFD0500200078
:1021B00003F022FD280017B0F0BD84256D42F9E739
:1021C000F0B50500222095B00F00160000212E2248
:1021D0006844FEF7DAFA0E2307932B6807ACA36175
:1021E0003423012104938020303BA780266103948F
:1021F0000595069303F0F2FC041E0FDD0123019305
:1022000005AB009303AA0123002103F0E9FC0500BC
:10221000200003F0F1FC280015B0F0BD84256D42CC
:10222000F9E7C046F0B50500222095B00F00160072
:1022300000212E226844FEF7A8FA0F2307932B688B
:1022400007ACA3613423012104938020303BA78095
:10225000266103940595069303F0C0FC041E0FDD70
:102260000123019305AB009303AA0123002103F08E
:10227000B7FC0500200003F0BFFC280015B0F0BD3E
:1022800084256D42F9E7C046F0B5C64600B598B062
:10229000040088461700002130220CA81E00FEF71B
:1022A00074FA10230B9323680BADAB6134230493B2
:1022B00043460593042308931E9B01218020079425
:1022C0000395069709960A9303F088FC041E14DD13
:1022D0000223019307AB009303AA0223002103F01A
:1022E0007FFC0A9A1F9B05001A60200003F084FC03
:1022F000280018B004BC9046F0BD84256D42F7E775
:1023000030B595B004003022002108A8FEF73DFA50
:1023100011230793236807ADAB6134230121049394
:102320008020303B05940395069303F057FC041E70
:102330000FDD0123019305AB009303AA01230021C4
:1023400003F04EFC0500200003F056FC280015B0F9
:1023500030BD84256D42F9E7F0B5C64600B596B0AC
:1023600004000F001600002130220AA89846FEF74C
:102370000CFA12230993236809ADAB6134230121C0
:1023800004938020303B05940395069307970896A5
:1023900003F024FC041E14DD0223019305AB00931B
:1023A00003AA0123002103F01BFC4346089A050001
:1023B0001A60200003F020FC280016B004BC9046F0
:1023C000F0BD84256D42F7E770B594B005000E00AE
:1023D0003022002108A8FEF7D8F9132307932B68B1
:1023E00007ACA3613423012104938020303B266194
:1023F00003940595069303F0F1FB041E0FDD012302
:10240000019305AB009303AA0123002103F0E8FB2D
:102410000500200003F0F0FB280014B070BD8425F7
:102420006D42F9E7F0B597B004000F0016000021E7
:1024300030220AA8FEF7A9F914230993236809ADED
:10244000AB613423012106938020303B0394059532
:1024500007970896049303F0C1FB041E0FDD0123C8
:10246000019303AB009305AA0223002103F0B8FBFC
:102470000500200003F0C0FB280017B0F0BD842544
:102480006D42F9E7F0B5C64600B596B004000F00FE
:102490001600002130220AA89846FEF776F9152387
:1024A0000993236809ADAB61342301210493802093
:1024B000303B0594039506930797089603F08EFB2F
:1024C000041E14DD0223019305AB009303AA01232C
:1024D000002103F085FB4346089A05001A6020009E
:1024E00003F08AFB280016B004BC9046F0BD84259A
:1024F0006D42F7E7F0B597B004000F001600002119
:1025000030220AA8FEF741F916230993236809AD82
:10251000AB613423012106938020303B0394059561
:1025200007970896049303F059FB041E0FDD01235F
:10253000019303AB009305AA0223002103F050FB93
:102540000500200003F058FB280017B0F0BD8425DB
:102550006D42F9E730B595B004003022002108A89B
:10256000FEF713F917230793236807ADAB613423F4
:10257000012104938020303B05940395069303F0DA
:102580002DFB041E0FDD0123019305AB009303AA6D
:102590000123002103F024FB0500200003F02CFBA5
:1025A000280015B030BD84256D42F9E770B594B0B0
:1025B00006000D003022002108A8FEF7E6F81823D7
:1025C0000793336807ACA36134230121049380206F
:1025D000303B03940595069303F000FB041E0FDDCA
:1025E0000123019305AB009303AA0123002103F00B
:1025F000F7FA0500200003F0FFFA280014B070BDC0
:1026000084256D42F9E7C046F0B50500222095B05B
:102610000F00160000212E226844FEF7B6F8192399
:1026200007932B6807ACA361342301210493802016
:10263000303BA780266103940595069303F0CEFAFC
:10264000041E0FDD0123019305AB009303AA0123B0
:10265000002103F0C5FA0500200003F0CDFA2800A0
:1026600015B0F0BD84256D42F9E7C046F0B5050010
:10267000222095B00F00160000212E226844FEF79C
:1026800084F81A2307932B6807ACA3613423012134
:1026900004938020303BA780266103940595069320
:1026A00003F09CFA041E0FDD0123019305AB009398
:1026B00003AA0123002103F093FA0500200003F090
:1026C0009BFA280015B0F0BD84256D42F9E7C0469D
:1026D000F0B597B004000F001600002130220AA8C0
:1026E000FEF753F81B230993236809ADAB6134232C
:1026F000012106938020303B0394059507970896A7
:10270000049303F06BFA041E0FDD0123019303AB66
:10271000009305AA0223002103F062FA05002000BD
:1027200003F06AFA280017B0F0BD84256D42F9E77E
:10273000F0B5C64600B596B004000F0016000021A3
:1027400030220AA89846FEF720F81C230993236834
:1027500009ADAB613423012104938020303B059403
:10276000039506930797089603F038FA041E14DDC4
:102770000223019305AB009303AA0123002103F078
:102780002FFA4346089A05001A60200003F034FA35
:10279000280016B004BC9046F0BD84256D42F7E7D2
:1027A000F0B597B004000F001600002130220AA8EF
:1027B000FDF7EBFF1D230993236809ADAB613423BB
:1027C000012106938020303B0394059507970896D6
:1027D000049303F003FA041E0FDD0123019303ABFE
:1027E000009305AA0223002103F0FAF90500200056
:1027F00003F002FA280017B0F0BD84256D42F9E716
:1028000030B595B004003022002108A8FDF7BDFFC7
:102810001E230793236807ADAB6134230121049382
:102820008020303B05940395069303F0D7F9041EEE
:102830000FDD0123019305AB009303AA01230021BF
:1028400003F0CEF90500200003F0D6F9280015B0FA
:1028500030BD84256D42F9E7F0B50400322099B00F
:102860000F00160000212A2268441D00FDF78DFF8D
:102870001F230B936B461C861E9B0F971795002BEF
:1028800036D00BAB059334230693209B0793219BF3
:1028900008931E9B09931F9B0A93229B0393239BE0
:1028A0000493102D27D8002E06D0002D04D02A0026
:1028B000310013A8FDF74DFF0121802003F08EF9B0
:1028C000051E1BDD1E9B01225C1EA341019203AA73
:1028D00002330092002105AA03F082F9049A249B96
:1028E00004001A60280003F087F9200019B0F0BD39
:1028F0001F9B002BC5D087246442F6E784246442E2
:10290000F3E7C046F0B50400322099B00F0016007E
:1029100000212A2268441D00FDF737FF20230B9376
:102920006B461C861E9B0F971795002B36D00BAB62
:10293000059334230693209B0793219B08931E9BAA
:1029400009931F9B0A93229B0393239B0493102DAF
:1029500027D8002E06D0002D04D02A00310013A85D
:10296000FDF7F7FE0121802003F038F9051E1BDD7D
:102970001E9B01225C1EA341019203AA0233009216
:10298000002105AA03F02CF9049A249B04001A6084
:10299000280003F031F9200019B0F0BD1F9B002B77
:1029A000C5D087246442F6E784246442F3E7C04636
:1029B000F0B5C64680462A2000B596B00F00160036
:1029C00000212E2268441D00FDF7DFFE212309931C
:1029D000434609ACA380342306931C9B0121039337
:1029E0001D9B80202761059407960895049303F0AA
:1029F000F5F8041E14DD0123019303AB009305AA2F
:102A00000223002103F0ECF8049A1E9B05001A60D3
:102A1000200003F0F1F8280016B004BC9046F0BD89
:102A200084256D42F7E7C046F0B5C64680462A20A9
:102A300000B596B00F00160000212E2268441D003C
:102A4000FDF7A3FE22230993434609ACA380342358
:102A500004931C9B012107931D9B802027610394F5
:102A600005960695089303F0B9F8041E10DD0023BF
:102A700003AA019300930021033303F0B1F805008A
:102A8000200003F0B9F8280016B004BC9046F0BD51
:102A900084256D42F7E7C046F0B50500322099B0B5
:102AA0000C00170000212E2268441E00FDF76DFE69
:102AB00023230B936B461D861E9B0F94002B28D05F
:102AC0000BAB0593342305AC63601E9BE66023616A
:102AD0001F9B03AE6361209BA7600393219B012191
:102AE0007360802003F07AF80323051E2BDD01229A
:102AF0000096019200212200280003F071F872680C
:102B0000229B04001A60280003F076F8200019B018
:102B1000F0BD1F9B002B19D10BAB0593342305ACE3
:102B200063601F9BE66023616361209B03AE039398
:102B3000219BA76073600121802003F04FF8051EE0
:102B400001DD0223D3E784246442DFE78724644263
:102B5000DCE7C046F0B50500322099B00C00170044
:102B600000212E2268441E00FDF70FFE24230B9344
:102B70006B461D861E9B0F94002B28D00BAB059334
:102B8000342305AC63601E9BE66023611F9B03AE8C
:102B90006361209BA7600393219B012173608020C8
:102BA00003F01CF80323051E2BDD01220096019281
:102BB00000212200280003F013F87268229B040011
:102BC0001A60280003F018F8200019B0F0BD1F9B10
:102BD000002B19D10BAB0593342305AC63601F9B0D
:102BE000E66023616361209B03AE0393219BA76092
:102BF00073600121802002F0F1FF051E01DD022338
:102C0000D3E784246442DFE787246442DCE7C046DC
:102C100070B594B006000D003022002108A8FDF721
:102C2000B4FD25230793336807ACA3613423012146
:102C300004938020303B03940595069302F0CEFF69
:102C4000041E0FDD0123019305AB009303AA0123AA
:102C5000002102F0C5FF0500200002F0CDFF280092
:102C600014B070BD84256D42F9E7C046F0B595B04B
:102C700007000E0015000021302208A8FDF785FD91
:102C8000262307933B6807ACA361342301218020EE
:102C9000039404930596069502F0A0FF041E0FDD31
:102CA0000123019305AB009303AA0123002102F045
:102CB00097FF0500200002F09FFF280015B0F0BD2F
:102CC00084256D42F9E7C046F0B507002A2097B089
:102CD0000E00039200212E2268441D00FDF755FDD1
:102CE000272309932B6809ACA3613423069303AB14
:102CF0000793042301218020A780A66005940893F0
:102D000002F06CFF041E0EDD002305AA0193009360
:102D10000021023302F064FF0500200002F06CFF86
:102D2000280017B0F0BD84256D42F9E730B595B0A5
:102D300004003022002108A8FDF727FD282307936F
:102D4000236807ADAB613423012104938020303B1D
:102D500005940395069302F041FF041E0FDD012345
:102D6000019305AB009303AA0123002102F038FF71
:102D70000500200002F040FF280015B030BD84257A
:102D80006D42F9E7F0B50600322099B00F0014004B
:102D900000212E2268441D00FDF7F7FC29230B9328
:102DA0006B461F8633680F941193219B1293002D5D
:102DB00045D01F9B002B25D00BAB0593342305ACCE
:102DC00063601E9B03AFE3601F9BA5602361209B94
:102DD00001216361042380207B60039602F0FEFEE4
:102DE000061E32DD032301220097019200212200FA
:102DF000300002F0F5FE0400300002F0FDFE20007D
:102E000019B0F0BD209B002B1CD10BAB05933423D4
:102E100005AC63601E9B03AFE360209BA56023614C
:102E20006361042301217B608020039602F0D6FEBB
:102E3000061E0ADD2B005D1EAB410133D3E71E9B4E
:102E4000002BB6D087246442D9E784246442D6E7B5
:102E5000F0B5C64605002A2000B596B08846170092
:102E600000212E2268441E00FDF78FFC2A230993BF
:102E7000434609ACA3801C9B012123612B68802061
:102E8000A36134230693303B059407970896039576
:102E9000049302F0A3FE041E11DD0123019303AB92
:102EA000009305AA0223002102F09AFE05002000EB
:102EB00002F0A2FE280016B004BC9046F0BD8425A6
:102EC0006D42F7E730B595B005000C0030220021C7
:102ED00008A8FDF75AFC2B23079307AB0393342371
:102EE0000595049306940025002C02D1280015B006
:102EF00030BD0121802002F071FE041E0DDD012392
:102F0000019305AB009303AA0123002102F068FEA0
:102F10000500200002F070FEE8E784256D42E5E739
:102F200070B50600322098B00C00039200212E22CA
:102F300068441D00FDF729FC2C230B936B460D9470
:102F40001E86002D21D00BAB0593342305AC6360A6
:102F500003ABA3600423E3601C9B25616361012133
:102F6000802002F03BFE0323051E25DD0022002108
:102F7000019200922800220002F032FE0400280094
:102F800002F03AFE200018B070BD1C9B002B16D139
:102F90000BAB0593342305AC636003ABA360042340
:102FA000E3601C9B012123616361802002F016FE17
:102FB000051E01DD0223D9E784246442E2E7872469
:102FC0006442DFE702B4714649084900095C4900E0
:102FD0008E4402BC7047C04603B4714649084000A5
:102FE0004900095A49008E4403BC70470022430837
:102FF0008B4274D303098B425FD3030A8B4244D3C1
:10300000030B8B4228D3030C8B420DD3FF22090202
:1030100012BA030C8B4202D31212090265D0030BC1
:103020008B4219D300E0090AC30B8B4201D3CB03B7
:10303000C01A5241830B8B4201D38B03C01A5241F9
:10304000430B8B4201D34B03C01A5241030B8B42FB
:1030500001D30B03C01A5241C30A8B4201D3CB02E6
:10306000C01A5241830A8B4201D38B02C01A5241CB
:10307000430A8B4201D34B02C01A5241030A8B42CE
:1030800001D30B02C01A5241CDD2C3098B4201D3E6
:10309000CB01C01A524183098B4201D38B01C01A64
:1030A000524143098B4201D34B01C01A52410309DB
:1030B0008B4201D30B01C01A5241C3088B4201D38A
:1030C000CB00C01A524183088B4201D38B00C01A37
:1030D000524143088B4201D34B00C01A5241411A5E
:1030E00000D20146524110467047FFE701B500206B
:1030F00000F0F0F802BDC0460029F7D076E770472F
:1031000003460B437FD4002243088B4274D3030948
:103110008B425FD3030A8B4244D3030B8B4228D3E9
:10312000030C8B420DD3FF22090212BA030C8B420F
:1031300002D31212090265D0030B8B4219D300E0AF
:10314000090AC30B8B4201D3CB03C01A5241830B34
:103150008B4201D38B03C01A5241430B8B4201D3E4
:103160004B03C01A5241030B8B4201D30B03C01A0D
:103170005241C30A8B4201D3CB02C01A5241830A87
:103180008B4201D38B02C01A5241430A8B4201D3B6
:103190004B02C01A5241030A8B4201D30B02C01AE0
:1031A0005241CDD2C3098B4201D3CB01C01A524147
:1031B00083098B4201D38B01C01A524143098B42D0
:1031C00001D34B01C01A524103098B4201D30B01B9
:1031D000C01A5241C3088B4201D3CB00C01A5241DE
:1031E00083088B4201D38B00C01A524143088B42A3
:1031F00001D34B00C01A5241411A00D2014652413C
:10320000104670475DE0CA0F00D04942031000D35A
:103210004042534000229C4603098B422DD3030AAF
:103220008B4212D3FC22890112BA030A8B420CD3BF
:10323000890192118B4208D3890192118B4204D3E8
:1032400089013AD0921100E08909C3098B4201D368
:10325000CB01C01A524183098B4201D38B01C01AA2
:10326000524143098B4201D34B01C01A5241030919
:103270008B4201D30B01C01A5241C3088B4201D3C8
:10328000CB00C01A524183088B4201D38B00C01A75
:103290005241D9D243088B4201D34B00C01A52414C
:1032A000411A00D20146634652415B10104601D3D9
:1032B0004042002B00D54942704763465B1000D363
:1032C000404201B5002000F005F802BD0029F8D009
:1032D00016E770477047C0468446101C62468C460D
:1032E000191C634600E0C0461FB500F055FD0028DC
:1032F00001D40021C8421FBD10B500F0ADFC404212
:10330000013010BD10B500F047FD002801DB0020A2
:1033100010BD012010BDC04610B500F03DFD0028D5
:1033200001DD002010BD012010BDC04610B500F029
:10333000CFFC002801DC002010BD012010BDC046DC
:1033400010B500F0C5FC002801DA002010BD0120F6
:1033500010BDC046994201D1801A04D002D201208A
:103360004042704701207047002B11D1002A0FD135
:10337000002900D1002802D00021C943081C07B44D
:10338000024802A14018029003BDC04649FFFFFF5A
:1033900003B4684601B5029800F080F8019B9E4690
:1033A00002B00CBC7047C046F0B5CE464746150487
:1033B0002D0C2E0080B50704140C3F0C9946030C0D
:1033C0007E435D43674363437F19340CE4199C4695
:1033D000A54203D980235B029846C4444B4643432D
:1033E0005143250C36046544360C2404A4195B199A
:1033F000591820000CBC90469946F0BD70B50500E8
:103400000C000022002328002100FFF77BFF00288A
:1034100004D12800210000F00DF870BD80231B06A8
:10342000E118280000F006F802000B0000215042CD
:103430009941F2E770B500220B4B0D00040000F03B
:1034400013FD01F0B3FB060001F002FB0022074B65
:1034500000F00AFD02000B002000290000F076FFBA
:1034600001F0A4FB310070BD0000F03D0000F04110
:1034700070B50600080001F0B1FA0022064B00F01A
:10348000F3FC0D000400300001F0E2FA2B002200F2
:1034900000F0C6F870BDC0460000F041F0B54F46E0
:1034A0004646D646C0B5040082B00D009146984607
:1034B0008B422FD82CD04146484601F06BFB2900A7
:1034C0000600200001F066FB331A9C46203B9A461A
:1034D00000D576E04B46524693401F004B4662466D
:1034E00093401E00AF4228D825D05346A41BBD41AF
:1034F000002B00DA7BE000220023009201930123DD
:10350000524693400193012362469340009318E092
:103510008242D0D900220023009201930A9B002B03
:1035200001D01C605D600098019902B01CBC9046FF
:103530009946A246F0BDA342D7D9002200230092AB
:1035400001936346002BE9D0FB0798464146720879
:103550000A437B0866460EE0AB4201D1A2420CD87A
:10356000A41A9D41012024196D410021013E241817
:103570004D41002E06D0AB42EED9013E24196D41DB
:10358000002EF8D100980199534600196941002B8B
:1035900023DB2B005246D3402A006446E2401C0045
:1035A00053461500002B2DDB26005746BE40330046
:1035B00026006746BE403200801A99410090019172
:1035C000ACE7624620239B1A4A46DA406146130064
:1035D00042468A4017001F4380E7624620239B1A19
:1035E0002A0066469A402300F3401343D4E762461C
:1035F000202300219B1A0022009101920122DA402F
:10360000019280E72023624626009B1ADE402F00AD
:10361000B0466646B74046463B003343C8E7C0461F
:10362000F0B54F464646D6460C000903C0B5490AD8
:10363000470F5E0039431F03DB0F9C4665007B0A82
:10364000570F1F436D0DE40F760DA146C000B8461D
:10365000D200AB1B64457BD0002B5FDD002E00D079
:10366000A4E03E00164300D112E15E1E002E00D001
:103670009EE1871A4346B84280410125C91A40425B
:10368000091A0B0200D431E149024E0A002E00D182
:103690006EE1300001F060FA0300083B1F2B00DDF3
:1036A00061E120223900D21A9E40D1409F400E4352
:1036B0009D4200DD51E15D1B6B1C1F2B00DD7CE199
:1036C0002021C91A3D0030008F408840DD40791E1E
:1036D0008F41310007222843D940002507433A4053
:1036E000002A09D00F233B40042B05D03B1DBB42D1
:1036F000BF417F42C9191F000B0200D426E26A1C99
:10370000C64B55056D0D9A4200D106E1C44AFF082B
:103710000A40530752023B43120B8EE0002B00D0AD
:10372000B8E06B1C5B055B0D012B00DC30E1871AF8
:103730004346B842B641CB1A76429E1B330200D5AF
:103740004CE13B003343A1D100220024002570E06E
:10375000002B00DCE5E0002E00D183E0AF4EB54247
:1037600060D0802636043743B846382B00DC3EE173
:10377000434613431F007A1E97413F1887428041FA
:10378000404209180B0200D4B0E0A44B01359D4221
:1037900000D1C3E0A24A7B080A4001210F401F4329
:1037A0005108D30707221F433A4099E79B4EB54281
:1037B00038D0802636043743B846382B00DDDCE0AD
:1037C0001F2B00DC30E11E004746203EF740BC4680
:1037D000202B04D04026F31A46469E403243170061
:1037E00063467A1E97411F43CCE0002B00D104E2D0
:1037F0004346134300D159E14B07C00818438023C7
:10380000C9081B03194208D04546ED081D4204D1E2
:103810004346D008590708432900420FC9007F4D8D
:103820001143C0004B07CA087C49C00803438D42BE
:1038300068D012036D05120B6D0D002112031800E4
:10384000130B0A0D12051A43764B2D0513402B431B
:103850005B00E4075B08234319001CBC90469946B3
:10386000A246F0BD3E00164312D05E1E002E00D0D0
:1038700000E18718874280414144404209180125F0
:103880000B0233D5022585E764463300414610001C
:103890001D00C7E7002D00D0DAE00C000443F3D090
:1038A0005C1C00D19FE15D4CA64200D12FE1DB43BF
:1038B000382B00DD66E11F2B00DD83E120240500AD
:1038C000E41A0F00DD40D940A0404346A7405B1AF0
:1038D000441EA04198462F433843171ABA429241DA
:1038E00043465242991A64463500CAE607223A40D6
:1038F000002A00D0F6E64B07CA084849FF083B43B8
:103900008D4296D11900114300D19EE18021090317
:103910000A431203120B414D8FE7150000220023CA
:103920008BE7002B00D0C7E06B1C5F057F0D012FDC
:1039300000DCF1E0394DAB4200D1B9E085180A0056
:10394000854289414244494251180722CF076D08F8
:103950002F4349083A401D00C2E607223049ED1ABC
:1039600031403A40BCE63E002838864000279FE6BA
:10397000380001F0F1F820308EE6434613431F0073
:103980007A1E9741C71BB84280414042091A78E627
:103990000E003B0006431343002D61D1002E00D0E2
:1039A000F4E0002B00D11BE164463900100039E738
:1039B0001A4FBB427AD03300FFE630001F3DE8408B
:1039C000202B03D04021CB1A9E4037437B1E9F41C2
:1039D000072207433A400021002589E7171A43468A
:1039E000BA42B641591A76428E1B64464EE61F2BE8
:1039F00000DDADE020264746F61AB740B94617006D
:103A0000B246DF404E463E4337005646B240561E51
:103A1000B24117434246DA408918AEE6FF0700007C
:103A2000FFFF7FFFFFFF0F8020264746F61AB740B3
:103A3000B9461700B246DF404E463E433700564671
:103A4000B240561EB24117434246DA40891A99E7FE
:103A50007F4CA6425BD0802424045B42214327E7AD
:103A6000002E0CD1002B00D1CBE0644639001000B1
:103A7000774DD7E6764FBB4218D0330075E6002B62
:103A800014D04B07C00818438023C9081B031942F0
:103A900007D0FC081C4204D17907D0080843E1464E
:103AA00021004C46420FC9001143C000684DB9E6E1
:103AB0001D0000220023C0E6002D5BD10D00054350
:103AC00000D1E2E65D1C00D1B0E0614DAE421FD0F6
:103AD000DB43382B71DC1F2B00DD96E020250F0027
:103AE000ED1AAF40B9460700AA46DF404D463D43B8
:103AF0002F005546A840D940451EA8418844074399
:103B0000BF18974292415142414435003AE664461B
:103B100035004146100085E60B000343002D00D020
:103B200063E6002BF5D04346134300D17AE68718AD
:103B30008742804107224144404209183A400B0223
:103B400000D4D5E6434B01351940C9E5380069E694
:103B50001E004746203EF740BC46202B04D040269E
:103B6000F31A46469E403243170063467A1E974139
:103B70001F4302E6364DAE42CAD080252D045B427B
:103B80002943A6E70843411E8841A6E6002B00D141
:103B900048E6871A4346B842B641CB1A76429E1B86
:103BA00033024BD5171A4346BA429241591A524230
:103BB000891A072264463A4092E501430F00791EB4
:103BC0008F419DE71C000F00203CE740202B03D0D5
:103BD0004024E31A99400843411E884138437CE65B
:103BE0000022002425E6171A4346BA429241591A88
:103BF0005242891A6446350043E541461000144D8F
:103C000010E680220024120380E61D000F00203DF4
:103C1000EF40BC46202B03D04025EB1A99400843C7
:103C200007006346781E87411F4369E7871897425C
:103C30009B4141445B42C9183500A3E53B00334337
:103C4000CED0072231003A4052E600231A00F4E5B4
:103C5000FF070000FFFF7FFFF0B54F464646D64600
:103C60008446C0B58046194E18030F034D00000B63
:103C70005C0082463F0B6D0DC90F9146640DDB0F52
:103C80000120B5420AD0B44203D0A54201D1574524
:103C90000CD01CBC90469946A246F0BD66463E43F9
:103CA000F7D1AC42F5D154461443F2D10120C845B6
:103CB000EFD1994207D0002DEBD163461F43380066
:103CC000471EB841E5E70020E3E7C046FF070000D4
:103CD000F0B54F464646D6464D00C0B50E03C90F57
:103CE0008A462C491F035C008046360B6D0D9146B9
:103CF0003F0B640DDB0F8D421ED08C4216D0002D81
:103D00001ED130438446002C01D13A4323D0624671
:103D1000002A1AD09A4529D051460220013908407C
:103D200001381CBC90469946A246F0BD39001143AB
:103D3000E5D002204042F4E73043FAD1AC420FD044
:103D4000002C0FD13A43E7D00CE00122013B934312
:103D500018000130E5E763460020002BE1D0DBE7E7
:103D60003A43E6D19A45D7D1A542D5DCA54205DB39
:103D7000BE42D1D808D00020BE42D2D25046012344
:103D8000013898430130CCE7C845C5D80020C84564
:103D9000F4D3C6E7FF070000F0B54F464646D646C7
:103DA0004D00C0B50E03C90F8A462E491F035C00A3
:103DB0008046360B6D0D91463F0B640DDB0F8D4237
:103DC00018D08C4211D0002D18D130438446002CDD
:103DD0001ED13A431CD163460020002B30D05146FF
:103DE00002200139084001382AE039001143EAD0A5
:103DF000022025E03043FBD1AC4226D0002C26D156
:103E00003A4324D15146022001390840013817E0D5
:103E10006246002A0FD09A45E1D1A54205DBBE4299
:103E2000DDD819D00020BE420AD250460123013805
:103E30009843013004E00122013B93431800013014
:103E40001CBC90469946A246F0BD3A43D0D19A4553
:103E5000C5D1A542C3DCE0E7C845C0D80020C845AD
:103E6000E3D3EDE7FF070000F0B55746DE464E46C8
:103E70004546E0B5834606000F03480087B09246EA
:103E80001D003F0B400DCC0F002800D16FE0DE4B32
:103E9000984238D08023FF001B041F43730F3B431D
:103EA0000193DA4B0027994600239B46F600814494
:103EB0002B0369001B0B52469846490DED0F002954
:103EC00000D185E0D04B994200D173E04346DA003F
:103ED00080231B0413435246CC48520F844613439D
:103EE000524600206144D20089442100694000917B
:103EF0008C46012149448A460F2F00D990E0C449DD
:103F0000BF00CF59BF465B463B43019300D06AE1F7
:103F100002230827002681469B46C9E732005846FF
:103F2000019B61460091022800D175E0032800D171
:103F3000FEE1012800D02CE1002300270026002507
:103F40003F032A0D3F0BB34812053A4302401B05BD
:103F50001343009A5B00D1075B080B433000190044
:103F600007B03CBC90469946A246AB46F0BD5B46C6
:103F70003B43019300D12FE1002F00D1A5E1380090
:103F800000F0EAFD03000B3B1C2B00DD96E11D2237
:103F9000D31A5A460100DA405E4608398F401300B2
:103FA0008E403B4301939C4B00271B1A99460023EC
:103FB0009B467DE7414653460B4393498C46E1447B
:103FC000002B00D01AE102220220174300228CE7C6
:103FD000134300D10DE14346002B00D181E140465F
:103FE00000F0BAFD02000B3A1C2A00DD72E101006C
:103FF000434608398B4098461D239A1A5346D340AE
:104000001A004346134352468A404946081A8249D9
:1040100089468144002068E77B4B002700268EE715
:10402000140C1204120C1100370C3604350C7943B1
:1040300028008C462E00604360448346564321008E
:10404000300C80465846794340440291844506D955
:104050008846802149028C46E0444146029136045C
:10406000010C360C00048B4681191E0C1B041B0C22
:104070000391190079438C46280075436544A8468E
:104080005843050C45447743A94203D9802149028E
:104090008C466744290C8C4639000004000C2D0422
:1040A0002D186144AB4405915946049101990F04C0
:1040B0003F0C080C390051434243904602008C46A5
:1040C000090C8B4662437C4344445C44A04503D9BD
:1040D0008021490288464244210C884661460904F1
:1040E000090C8C4639005943434370437E430F0CFF
:1040F000F6182404BE19644442448C46B34203D9E2
:1041000080235B0298464044029B61469846049B8C
:10411000370443449B46AB45AD416B420D040599C2
:104120002D0C8C467F196744FD18A8465D462D1955
:10413000A542A44193466442A446C344DC448F4252
:10414000BF4198459B4193459241A445A4415B42A0
:104150007F421F43360C52426442BF192243BF18AC
:10416000624638184302D20D039913436A020A4388
:10417000501E82416146ED0D2A434E023243D90161
:1041800000D4B3E00126500832400243DE07324338
:104190005B08224C5444002C62DD510709D00F20EB
:1041A0001040042805D0101D9042924152429B18A5
:1041B0000200D90104D580241948E4000340544486
:1041C0001848844200DD27E75E075B02D2081F0B18
:1041D000630516435B0DB2E60023994601330427BD
:1041E00000269B4664E60323019781460C279B46E5
:1041F0005EE6012201201743002276E60323032016
:104200001F43434671E6C046FF07000001FCFFFF65
:10421000544C0010FFFF0F800DFCFFFFFF03000058
:10422000FFFFFFFEFE0700000023802700933F03EF
:104230000026434B83E6019B3200A446584670E6B5
:10424000AC466EE6802701993F0339422DD03B42B0
:104250002BD11F433F033F0B00951600384B6EE6F2
:1042600001252D1B382D00DD66E61F2D40DC35486D
:104270001C005044160082408440EE40501E824193
:1042800034431443EB40620709D00F222240042A32
:1042900005D02200141D9442804140421B181A028E
:1042A0003ED501230027002649E68027019B3F03D6
:1042B0001F433F033F0B0094214B40E603005A4647
:1042C000283B9A40002601926DE6584600F044FCD7
:1042D000203057E603005246283B9A401300002244
:1042E00093E6504600F038FC20307BE6CA4650E7A3
:1042F0001F201E004042041BE640202D03D0124C1C
:104300005444A3401A43501E8241324307260027DB
:10431000164009D00F200023104014000428B9D102
:1043200022005E075B021F0BD2081643002306E63D
:1043300080273F031F433F033F0B1600004BFEE562
:10434000FF0700001E0400003E040000F8B55746B9
:104350004E464546DE460C000903E0B5490A460FC5
:104360005F0031431E03DB0F760A9B46530F334336
:10437000C84E6500C000E40FD2006D0DA246814614
:104380007F0D9C469046B74200D1B9E05B460126BE
:1043900073409B46EE1BA34500D183E0002E63DDF6
:1043A000002F00D0B1E06346134300D123E1731E18
:1043B000002B00D0BAE1861A6346B0428041012545
:1043C000C91A4042091A0B0200D447E149024B0ABC
:1043D00098464346002B00D189E1404600F0BCFBE3
:1043E0000300083B1F2B00DD7CE120223000D21AA5
:1043F0004146D040994002009E400A439D4200DD64
:104400006AE15D1B6B1C1F2B00DD94E12021100075
:104410003500C91A8E40DA408840DD40711E8E4159
:10442000110007222843002506433240002A09D004
:104430000F233340042B05D0331DB342B6417642DF
:1044400089191E000B0200D43DE26A1C914B5505F0
:104450006D0D9A4200D119E18F4AF6080A405707BC
:1044600052023743120B9BE0002E00D0C5E06E1CB9
:104470007605760D012E00DC48E16746861ACB1BD7
:10448000B042BF417F42B8461F004346FF1A3B007F
:10449000B8461B0200D55FE137439AD100220024C1
:1044A000002579E0002E00DCFAE0002F00D18DE03D
:1044B000784B9D4267D0802367461B041F43BC4650
:1044C000382E00DC52E1634613435A1E93411E18F6
:1044D00086428041404209180B0200D4BEE06D4B79
:1044E00001359D4200D1D2E06B4A73080A40012198
:1044F0000E401E435108D30707221E43324095E762
:104500001E00164300D045E740E7624B9D423AD07B
:10451000802367461B041F43BC46382E00DDEBE0BA
:104520001F2E00DC3AE133006746203BDF403B00B2
:10453000202E05D04027BF1B6646BE403243904622
:104540004646721E96413343DAE0002B00D114E256
:104550006346134300D168E180234E07C008C908B1
:104560001B030643194208D06046C008184204D114
:1045700063460100D2085E071643F3009946C9005E
:10458000720F444D11434B46DE08424B4F073743F1
:10459000CA089D4200D16EE012036D05120B6D0D2D
:1045A00000211203130B0A0D12051A433B4B2D0574
:1045B00013402B435B00E4075B08234338001900DA
:1045C0003CBC90469946A246AB46F8BD63461343B1
:1045D00011D0731E002B00D007E18618864280415F
:1045E00061444042091801250B0237D502257BE7BB
:1045F0003E00614691463500C5E75C46002D00D07F
:10460000E1E00B000343F3D0731C00D1ACE1214B7C
:104610009F4200D13AE1F343382B00DD6FE11F2BBD
:1046200000DD8CE120250E00ED1AAE40B0460600FC
:10463000AA46DE40454635432E005546D940A8409F
:104640006346451EA8415B1A9C463043161AB24287
:10465000924163465242991A3D00B4E60722324025
:10466000002A00D0E4E60B4BF6084F073743CA0890
:104670009D4200D090E73B00134300D1A6E1802388
:104680001B031A431203120B024D89E71500002287
:10469000002785E7FF070000FFFF7FFFFFFF0F8078
:1046A000002E00D0C7E06B1C5E05760D012E00DCED
:1046B000F0E0C84DAB4200D1B9E085180A00854250
:1046C00089416244494251180722CE076D082E43A2
:1046D000490832401D00A9E6BF49ED1A11400722E2
:1046E0003240A3E6320028388240002686E63000B9
:1046F00000F032FA203073E6634613435A1E9341AA
:10470000C61AB04280414042091A5CE60E00674674
:1047100006431743002D5ED1002E00D0F3E0002F9A
:1047200000D11EE15C46614691462CE7A94FBE428E
:104730007BD01E00F1E610001F3DE840202B03D087
:104740004021CB1A9A401643731E9E41072206430E
:1047500032400021002583E7161A6346B2428041A9
:10476000591A40420B1A98465C4632E61F2E00DD6D
:10477000ABE02027BB1B9A4663465746BB40994691
:1047800013004F46F3401F433B005746BA40571EA5
:10479000BA4113436246F240891898E62027BB1BB2
:1047A0009A4663465746BB40994613004F46F3402E
:1047B0001F433B005746BA40571EBA411343624657
:1047C000F240891A9CE7834B9F425FD080252D04DD
:1047D0007342294320E7002E0CD1002F00D1D0E0F6
:1047E0005C46614691467B4DCDE67A4FBE421CD079
:1047F0001E0065E6002F18D0C0084E070643802033
:10480000C9080003014208D06346DC08044204D111
:104810002100DA46D2085E071643F30099460124C8
:104820005346C900720F11431C406A4DABE61D0090
:1048300000220027B4E6002D59D10B00034300D11C
:10484000D6E6731C00D1B2E0624B9F421ED0F34308
:10485000382B6FDC1F2B00DD97E020250E00ED1AB2
:10486000AE40B0460600AA46DE40454635432E001F
:104870005546A840D940451EA8418C440643B61869
:1048800096429241514261443D0025E63D00614619
:10489000914678E60B000343002D00D055E6002B2F
:1048A000F5D06346134300D16DE6861886428041F9
:1048B00061444042091800220B0200D4D0E6464B66
:1048C00001351940B2E5B1465DE633006746203B4D
:1048D000DF403B00202E05D04027BF1B6646BE4070
:1048E000324390464646721E96413343EFE5394BBC
:1048F0009F42CBD080252D0473422943A8E708436B
:10490000411E8841A2E6002F00D13CE66346861A8C
:10491000CF1AB0429B415B42FB1A98461B024ED510
:10492000161A6346B2429241591A5242891A5C469B
:1049300000227BE501430E00711E8E419FE71D00A2
:104940000E00203DEE40B046202B04D04025EB1A4F
:1049500099400843814648464346411E88411843D2
:1049600074E60022002417E6161A6346B24292410A
:10497000591A5242891A3D0025E561469146154D66
:1049800001E680220024120379E61D000E00203D7E
:10499000EE40B046202B04D04025EB1A9940084346
:1049A00081464E464346711E8E411E4367E7861878
:1049B00096429B4161445B42C9183D008CE54746E5
:1049C0003743CED007224146324049E600273A001D
:1049D000E6E5C046FF070000FFFF7FFF70B5002837
:1049E0002DD0C317C5185D40C40F280000F0B4F8DF
:1049F000154B1B1A5B055B0D0A2815DD0B3885402E
:104A000000222D032D0B002110002D030A0D2D0B6C
:104A100012052A430D4D1B052A4013435B00E40792
:104A20005B082343190070BD020029001532914034
:104A30000A000B21081AC5402D032D0BE3E70024C3
:104A4000002300250022DEE71E040000FFFF0F8088
:104A500010B5041E25D000F07FF8144B1B1A5B051F
:104A60005B0D0A2812DD0B38844000222403240B3E
:104A70000021100024030A0D240B120522430C4CC4
:104A80001B05224013435B00590810BD02002100A2
:104A9000153291400A000B21081AC4402403240B4C
:104AA000E6E7002300240022E2E7C0461E040000DF
:104AB000FFFF0F804100090E4B1C70B5DBB24602B0
:104AC000750AC40F012B14DDE0239B006D07360B24
:104AD000CB1800210A0D280012051C4D32435B053E
:104AE0002A405B0813435B00E4075B08234319007B
:104AF00070BD002914D1002D1ED0280000F02CF824
:104B00000A281CDC0B232A001B1ADA400300153389
:104B10009D400F4B12031B1A5B05160B5B0DD8E76C
:104B2000002D06D0320B802636036D071643094B45
:104B3000CFE7084B0026CCE700230026C9E7030097
:104B40002A000B3B9A400025E3E7C046FFFF0F8099
:104B500089030000FF0700001C2101231B04984269
:104B600001D3000C10391B0A984201D3000A0839FE
:104B70001B09984201D30009043902A2105C4018B5
:104B80007047C04604030202010101010000000059
:104B90000000000010B5002903D1FFF7DDFF203031
:104BA00002E0081CFFF7D8FF10BDC04670B5002218
:104BB0000C4B04000D00FEF7C3FB002804D12000BD
:104BC000290000F011F870BD064B002220002900DA
:104BD000FFF7BCFB00F008F880231B069C466044EE
:104BE000F1E7C0460000E04130B5144D0A034B0028
:104BF000120B5B0DC90F0024AB4211DD104CA34218
:104C000010DC8024640322430E4CE41A1F2C0CDDBC
:104C10000D48C31ADA4013005C42002900D11C0081
:104C2000200030BD094BCC18FAE7094DE040AC46F6
:104C300063449A4013000343EEE7C046FE030000BE
:104C40001D0400003304000013040000FFFFFF7F79
:104C5000EDFBFFFF20400010223F0010223F00101C
:104C6000404200101C3F00101C3F00102842001062
:104C7000404200101C3F0010284200101C3F001052
:104C800040420010364200103642001036420010FA
:104C9000444200100FB4F0B55746DE464E46454636
:104CA000E0B595B01EAE08CE00249A4600235746C4
:104CB0009B4607960B933B78002B12D07A1C9046AC
:104CC000252B20D00BAD621C2C190B9223711F2AAF
:104CD00024D8012347469C463B78E3441400002B2C
:104CE000ECD1002C04D021000CA81DF0D3FD83448E
:104CF000584615B03CBC90469946A246AB46F0BC1F
:104D000008BC04B018477B78253BDBB2532B01D994
:104D100000F09EFC854A9B00D3589F46002320212B
:104D20000CA80B931DF0B6FD0B9AD2E70023804A26
:104D30000BAD984691462A004546B04616003033E2
:104D4000621C3419326023711F2A0BD84B4601357F
:104D50005B5D002B12D01400621C34193260237189
:104D60001F2AF3D9002320210CA833601DF092FDE7
:104D70004B4601355B5D3268002BECD13300464673
:104D8000A8461D00331D019308AB924600210C225A
:104D9000180034689946FBF7F8FC0F231A004946BF
:104DA00064482240825CC3440A700392524698468B
:104DB00021090132002901D100F0D7FD4E461940EA
:104DC000415C7170260A01D100F010FE1E404B4676
:104DD000865D9E70230B01D100F031FE1900434621
:104DE00019404B46415CD970230C01D100F04BFEB9
:104DF0001E0043461E404B46865D1E71230D01D1A9
:104E000000F04AFE1900434619404B46415C597177
:104E1000230E01D100F076FE46461E404B46865DCD
:104E2000240F9E7101D100F090FE015DD97106231F
:104E30000293023398465346EB182A6019711F2AD1
:104E400001D900F06BFD541CAA182C6016711F2CA0
:104E500001D900F0A6FC029B002B01D100F05CFC04
:104E60004346DE1E4B469A5D631C2C192B60227153
:104E70001F2B01D900F014FD002E01D100F078FCA9
:104E80004246161F4A46925D5C1CEB182C601A7154
:104E90001F2C01D900F02FFD002E01D100F092FC53
:104EA00043465E1F4B469A5D631C2C192B60227192
:104EB0001F2B01D900F071FD002E01D100F00AFD79
:104EC0004246961F4A46925D5C1CEB182C601A7194
:104ED0001F2C06D9002320210CA82B601DF0DAFC22
:104EE0002C68002E01D100F017FD46464B46073EC8
:104EF0009A5D631C2C192B6022711F2B01D900F0C5
:104F000077FC002E01D100F05AFD039A5C1CEB18CF
:104F10002C601A7108261F2C00D80FE200232021D4
:104F20000CA82B601DF0B6FC2C6807E2145C001086
:104F3000845D0010645D0010331D029308AB1800FF
:104F400036680C2200219946FBF71FFC631C9A4629
:104F5000002E00DAA6E30023B046012603930BAD32
:104F60000A214046FEF7C8F84A463031CBB21370EA
:104F70000A2140460593FEF739F8002801D100F0D8
:104F8000E9FC0A21FEF7B8F84B463031CEB25E702C
:104F900064214046FEF72AF8002801D100F017FDF1
:104FA0000A21FEF7A9F83031CBB24A46FA219370B4
:104FB000890040460193FEF719F8002801D100F05E
:104FC0002DFD0A21FEF798F84B463031CEB2DE7047
:104FD000E4494046FEF70AF8002801D100F049FDF7
:104FE0000A21FEF789F84A463031CBB21371DE4907
:104FF00040460193FDF7FAFF002801D100F055FD6E
:105000000A21FEF779F84B463031CEB25E71D749AE
:105010004046FDF7EBFF002801D100F05BFD0A21BF
:10502000FEF76AF84A463031CBB29371D049404618
:105030000193FDF7DBFF002801D100F075FD0A2187
:10504000FEF75AF84B463031CEB2DE71C9494046C0
:10505000FDF7CCFF002801D100F091FD0A21FEF7F9
:105060004BF84A463031CBB21372C34940460193E4
:10507000FDF7BCFF002801D100F0A0FD4B46303009
:10508000C6B25E72082304930233984653462C1925
:105090002B6026711F2B01D900F052FC5346019A58
:1050A0005C1CEB182C601A711F2C00D971E3049B57
:1050B000002B01D100F0CCFC4346DE1E4B469A5D2E
:1050C000631C2C192B6022711F2B00D9F1E3002ED9
:1050D00001D100F0C9FC4246161F4A46925D5C1C95
:1050E000EB182C601A711F2C01D900F0FBFB002E6D
:1050F00001D100F0E3FC43465E1F4B469A5D631C02
:105100002C192B6022711F2B01D900F04FFC002EAF
:1051100001D100F0FDFC4246961F4A46925D5C1CA0
:10512000EB182C601A711F2C06D9002320210CA823
:105130002B601DF0AFFB2C68002E01D100F0EDFCC0
:105140004346DE1F4B469A5D631C2C192B6022716F
:105150001F2B00D955E3002E01D100F016FD464665
:105160004A46083E925D5C1CEB182C601A711F2C9D
:1051700000D966E3002E01D100F029FD46464B46DA
:10518000093E9A5D631C2C192B6022711F2B00D9DC
:105190005FE3002E00D16CE3059A5C1CEB182C60D9
:1051A0001A711F2C01D900F09BFC039E0A36B344F0
:1051B0000237029E7FE5331D32780BAD9846631CA3
:1051C0002C190B9322711F2B00D97DE201229446EA
:1051D0001C00E344464602376DE5331D019308ABDE
:1051E00000210C22180035689946FBF7CEFA634976
:1051F0000F231A002A408A5C984692464A46504637
:1052000010702809621C002800D19FE24E46184009
:10521000085C70702E0A00D1ADE21E404B468E5DD8
:105220009E702B0B00D12BE31800434618404B46D1
:10523000085CD8702B0C00D14FE31E0043461E4083
:105240004B468E5D1E712B0D00D1BDE2180043460A
:1052500018404B46085C58712B0E00D1B2E346460D
:105260001E404B468E5D2D0F9E7100D1CEE3485DF2
:10527000D87106230293023398460BAD2C190B927A
:1052800020711F2A00D959E2541CAA182C601671EB
:105290001F2C00D928E2029B002B00D13CE24346A0
:1052A000DE1E4B469A5D631C2C192B6022711F2B4E
:1052B00000D921E2002E00D15AE24246161F4A468A
:1052C000925D5C1CEB182C601A711F2C00D91BE23C
:1052D000002E00D176E243465E1F4B469A5D631C6A
:1052E0002C192B6022711F2B00D939E2002E00D11E
:1052F000F0E24246961F4A46925D5C1CEB182C6019
:105300001A711F2C00D93CE2002E00D104E346465E
:105310004B46073E9A5D631C2C192B6022711F2B94
:1053200000D9B5E2002E00D149E352465C1CEB18CF
:105330002C601A7108261F2C00D9EFE5B344023700
:10534000019EB8E425220BAD631C2C190B9322712E
:105350001F2B00D9C0E1012294461C00E344023710
:10536000A9E4C04610270000A086010040420F00BB
:105370008096980000E1F50500CA9A3B745D001024
:10538000331D019308AB00210C22180035689946A3
:10539000FBF7FBF9E1492BE7331D029308AB994674
:1053A00035680C2218000021FBF7EFF90A212800CC
:1053B000FDF7A2FE4A463031CBB213700A21280015
:1053C0000493FDF713FE631C9A46002800D103E204
:1053D0000A21FDF791FE4B463031CEB25E7064215A
:1053E0002800FDF703FE002800D1F8E20A21FDF7AE
:1053F00083FE3031CBB29846FA214B4642468900B3
:105400009A702800FDF7F2FD002800D10FE30A2171
:10541000FDF772FE4B463031CEB2DE70C049280037
:10542000FDF7E4FD002800D119E30A21FDF764FE31
:105430003031CBB298464B464246BA491A712800E1
:10544000FDF7D4FD002800D13CE30A21FDF754FE0E
:105450004B463031CEB25E71B3492800FDF7C6FD30
:10546000002800D149E30A21FDF746FE3031CBB2D6
:1054700098464B464246AD499A712800FDF7B6FD65
:10548000002800D159E30A21FDF736FE4B463031A2
:10549000CEB2DE71A6492800FDF7A8FD002800D194
:1054A00078E30A21FDF728FE3031CBB298464B460F
:1054B0004246A0491A722800FDF798FD002800D145
:1054C00071E34B463030C6B25E7208230393023359
:1054D000019353460BAD2C190B9326711F2B00D94A
:1054E00025E2534642465C1CEB182C601A711F2CB7
:1054F00000D95FE1039B002B00D1ADE2019BDE1ED2
:105500004B469A5D631C2C192B6022711F2B00D90E
:10551000D8E1002E00D1B2E2019A5C1C161F4A4667
:10552000925DEB182C601A711F2C00D9ECE1002E53
:1055300000D1AEE2019B5E1F4B469A5D631C2C19A5
:105540002B6022711F2B00D91FE2002E00D1D0E268
:10555000019A5C1C961F4A46925DEB182C601A71EA
:105560001F2C06D9002320210CA82B601DF092F9D6
:105570002C68002E00D1D4E2019BDE1F4B469A5DC1
:10558000631C2C192B6022711F2B00D941E1002EC6
:1055900000D104E34A46019E5C1C083E925DEB1874
:1055A0002C601A711F2C00D943E1002E00D102E3B8
:1055B0004B46019E093E9A5D631C2C192B6022719B
:1055C0001F2B00D94DE1002E00D156E1049A5C1C3E
:1055D000EB182C601A710A261F2C00D8E7E500236F
:1055E00020210CA82B601DF055F92C68DFE5331D38
:1055F000994633681A789846002A25D000239A469F
:105600003B000BAD47469846631C2C1900262B60C7
:1056100022711F2B0AD80136BA5D002A11D01C0056
:10562000631C2C192B6022711F2BF4D953462021A7
:105630000CA801362B601DF02DF9BA5D2B68002AED
:10564000EDD147461C00B3444E460237FFF733FB0B
:10565000394B5B22994600230BAD9A46631C2C19EB
:1056600000272B6022711F2B0BD84A460137D25DD1
:10567000002A12D01C00631C2C192B6022711F2BD6
:10568000F3D9534620210CA82B601DF003F94A469C
:105690000137D25D2B68002AECD1BB441C00474681
:1056A000FFF709FB0B932D230BAD2C1923715346E8
:1056B0001F2B00D9A1E17342984601239C46544612
:1056C0000226E24403934BE4002320210CA80B9311
:1056D0001DF0E0F80B9B79E5002320210CA80B932B
:1056E0001DF0D8F80B9B36E6002320210CA82B6078
:1056F0001DF0D0F82C68CEE5002320210CA82B60EB
:105700001DF0C8F82B68D5E5002320210CA82B60DC
:105710001DF0C0F82C68DBE502260FE6645D001082
:1057200010270000A086010040420F0080969800DC
:1057300000E1F50500CA9A3B885D00100023202196
:105740000CA80B931DF0A6F80B9A9DE553460BADE4
:105750002C190B9223711F2A63D814000126EDE542
:10576000002320210CA82B601DF094F82B68BDE5C8
:105770001C000326E2E500230293023356469846B6
:105780007BE5002320210CA82B601DF083F82C68FA
:10579000BAE5002320210CA82B601DF07BF82C68B3
:1057A00085E4002320210CA82B601DF073F82C68E1
:1057B000FFF751FB002320210CA82B601DF06AF895
:1057C0002C6897E60426B9E5030030001E00032389
:1057D00002930233984650E50BAD0B93049B2C19B2
:1057E000237153461F2B00D9C0E154460126DEE445
:1057F000002320210CA82B601DF04CF82B68FFF72C
:1058000080FB002320210CA82B601DF043F82B689F
:10581000A1E4002320210CA82B601DF03BF82B688D
:10582000B5E60B9020210CA81DF034F801260B9C46
:1058300084E5002320210CA82B601DF02BF82C6898
:10584000B3E6002320210CA82B601DF023F82C6860
:1058500090E4002320210CA82B601DF01BF82B687E
:1058600097E4002320210CA82B601DF013F82B686F
:10587000A9E6039E1C00093699E41C00092696E45B
:10588000030030001E000123029302339846F4E423
:10589000002320210CA82B601CF0FCFF2B6841E5A5
:1058A000002320210CA82B601CF0F4FF2B68FFF7CD
:1058B000E3FA002320210CA82B601CF0EBFF2B68DF
:1058C000FFF705FC002320210CA82B601CF0E2FF51
:1058D0002B681EE61C00052630E5022302930233E6
:1058E0009846CAE4002320210CA82B601CF0D2FFAC
:1058F0002C68FFF7FCFB002320210CA82B601CF078
:10590000C9FF2C68FFF7C8FA002320210CA82B60E0
:105910001CF0C0FF2C680AE606260FE500232021B4
:105920000CA82B601CF0B6FF2A68FFF78CFA002346
:1059300020210CA80B931CF0ADFF0B9B9A46D0E5E1
:10594000002320210CA82B601CF0A4FF2B689A4692
:10595000FFF7A4FB53462B60059B2C19237153467C
:105960001F2B00D9FAE0544621E453460398EB1864
:105970002A6018711F2A00D8EFE629600CA82021A0
:105980001CF088FF01262C68D8E4002320210CA8F5
:105990002B601CF07FFF2B68D7E5002320210CA88B
:1059A0002B601CF077FF2B68FFF786FA002320217D
:1059B0000CA82B601CF06EFF2B68FFF7A8FB1C00E7
:1059C0000726BBE4042302930233984655E4059B63
:1059D00001930023049302339846FFF757FB049B7F
:1059E0009846002303930233019372E50023029348
:1059F0000233039E9846FFF71EFA002320210CA8CD
:105A00000B931CF047FF0B9B9A4654E603003000B3
:105A10001E0005230293023398462EE43300019EB4
:105A200001930123049302339846FFF72FFB3300C1
:105A300046469846012303930233019349E50B0040
:105A400031001E000123029302339846FFF7F3F959
:105A5000039E0236FFF7ABFB0226FFF7A8FB0223EB
:105A600003930233019334E5039E1C000336FFF7D2
:105A70009EFB0223049302339846FFF707FB1C00AA
:105A80000326FFF794FB0223029302339846FFF7A5
:105A9000D2F90426FFF78BFB0B0031001E00032315
:105AA000029302339846FFF7C6F93300019E019333
:105AB0000323049302339846FFF7E8FA039E043663
:105AC000FFF775FB330046469846032303930233E2
:105AD0000193FEE40423049302339846FFF7D6FAB9
:105AE000002320210CA82B601CF0D4FE2C68FFF7AB
:105AF0005CFB1C000526FFF75AFB042303930233CB
:105B00000193E6E40423029302339846FFF793F9E6
:105B1000039E1C000536FFF74AFB039E0636FFF77F
:105B200046FB0626FFF743FB3300019E0193052346
:105B3000049302339846FFF7A9FA33004646984685
:105B40000523039302330193C3E40B0031001E00CD
:105B50000523029302339846FFF76DF92860202150
:105B60000CA81CF097FE2C68FFF721FB0B9020215E
:105B70000CA81CF08FFE01260B9CFFF718FB0623D8
:105B8000049302339846FFF781FA039E1C00073600
:105B9000FFF70DFB062303930233019399E41C00E6
:105BA0000726FFF704FB3300464698460723039376
:105BB000023301938DE40826FFF7F9FA3300019EC2
:105BC00001930723049302339846FFF75FFA039E7D
:105BD0000836FFF7ECFAC04612DF704711DF704756
:105BE00000B585B00293079B0191039301A9069B21
:105BF000FFF7F2FF05B000BD13DF70470BDF704702
:105C000014DF704716DF704718DF704719DF7047E1
:105C10000CDF7047445300105056001050560010CF
:105C2000505600105056001050560010505600109C
:105C3000505600105056001050560010505600108C
:105C4000505600105056001050560010505600107C
:105C5000505600105056001050560010505600106C
:105C6000505600105056001050560010505600105C
:105C7000505600105056001050560010505600104C
:105C8000505600105056001050560010505600103C
:105C9000505600105056001050560010505600102C
:105CA000505600105056001050560010505600101C
:105CB000505600105056001050560010505600100C
:105CC00050560010505600105056001050560010FC
:105CD00050560010505600105056001050560010EC
:105CE000DA51001050560010505600105056001057
:105CF00050560010505600105056001050560010CC
:105D0000505600105056001050560010B65100105A
:105D1000384F0010505600105056001050560010CA
:105D200050560010384F00105056001050560010BA
:105D3000505600105056001050560010505600108B
:105D40002C4D00105056001050560010EE5500100B
:105D50005056001098530010505600105056001026
:105D60008053001030313233343536373839616280
:105D70006364656630313233343536373839414201
:105D800043444546307800005B556E737570706F04
:105D900072746564205461675D00000000000000BB
:105DA00070B5184C86B02369082B05D16369042BA4
:105DB00002D1236A042B02D0082006B070BD043340
:105DC00004AA00216068A568666AFFF71BFF08281F
:105DD000F2D1042302AA01216068FFF713FF04280F
:105DE000EAD1029B019600932800049A059B00F0DB
:105DF00053F90423039003AA60680021FFF704FF0E
:105E00000020DAE70010010870B5184C86B023694D
:105E1000082B05D1A369042B02D1236A042B02D0DD
:105E2000082006B070BD043304AA00216068A5688C
:105E30006669FFF7E7FE0828F2D1042302AA0221CF
:105E40006068FFF7DFFE0428EAD1029B0096019309
:105E50002800049A059B00F003F90423039003AA89
:105E600060680021FFF7D0FE0020DAE7001001088B
:105E7000F0B5C64600B588B000F0E4F8002821D19E
:105E80000825614C06AF8021012009064042FFF73A
:105E9000B5FE0300C20636D4820623D4420613D4CC
:105EA000020641D48020400003420CD02100FFF7BD
:105EB000A7FE2668B31C00DAA5E0002E00DB91E007
:105EC000002144E0FEE7FEE721004020FFF798FEB6
:105ED00021688B1C54DB002954DA00216068FFF72D
