:020000041000EA
:1004000000080108910400100D0000002174021082
:1004100000000000000000000000000000000000DC
:10042000000000000000000000000000097402103D
:100430000000000000000000CD730210FD04001059
:10044000FD04001075740210FD040010953C0210AC
:10045000FD040010FD040010FD0400106572021080
:10046000FD040010FD040010FD040010FD04001048
:10047000FD040010FD040010FD040010FD04001038
:100480007047EFF3108072B6704780F310887047A2
:10049000FFF7F6FF72B6144C144DAC4209DA21682E
:1004A0006268A368043B02DBC858D050FAE70C34FA
:1004B000F3E70F4B0F4CA34208DA19685A68002083
:1004C000043A01DB8850FBE70833F4E727F0B4F87F
:1004D000EFF314800221084380F31488064880F368
:1004E000098824F00FFBFEE71C050010E80500104A
:1004F000E8050010D006001000100108FEE7FEE736
:1005000000B504207146084202D0EFF3098001E0F3
:0C051000EFF30880043026F0FDF9FEE750
:10051C00004D031000890208B00A0000204B0310A4
:10052C000010000880000000C04B031000100108F0
:10053C0000000000C04B0310002301080000000065
:10054C00C04B031080BA010840000000004C03109F
:10055C00805B020800000000004C031000600208E1
:10056C0000000000004C0310006D020800000000A9
:10057C00A04B03108010000800000000004C03107A
:10058C000071020800010000004D031000810208F8
:10059C0000000000A04B03108015000800000000B4
:1005AC00A04B03100019000820000000004D0310A0
:1005BC00A083020800000000C04B0310801D00083F
:1005CC0000000000C04B03100021000800000000D8
:0C05DC00B057031000F002089804000063
:1005E800B09302088021000000100108A00C000050
:1005F800001D010800060000002301088092000089
:1006080080B5010800050000C0BA0108808000001C
:10061800803B020800200000805B020820000000E8
:10062800005C02080004000000600208600200008C
:1006380080620208800A0000006D020820000000A5
:10064800806D02088003000080100008200200006E
:100658000013000880020000007202080002000077
:1006680000740208000D000000810208200000004C
:100678008081020820020000801500082000000088
:1006880000160008000300002019000820000000E0
:100698008019000800040000A08302082000000060
:1006A8000084020800050000801D000820000000EA
:1006B800001E0008000300000021000820000000C0
:0806C800802100080001000080
:0806D000000000000000000022
:1006D8000000000000000000000000000000000012
:1006E8000000000000000000000000000000000002
:1007000010B5034B0A000100186800F055F810BD41
:1007100044930208084B10B50400002B02D00021BE
:1007200000E000BF054B1868836A002B00D0984793
:1007300020002FF02DF8C0460000000044180010E3
:1007400010B5034B0100186800F044F810BDC04616
:100750004493020830B500240139A24201D100209F
:1007600005E0035D01340D5DAB42F6D0581B30BD92
:10077000002310B59A4200D110BDCC5CC4540133A3
:10078000F8E710B5884202D98B18984203D30023AA
:1007900007E08B5C8354013AFBD210BDCC5CC4549F
:1007A00001339A42FAD1F8E703008218934200D14C
:1007B000704719700133F9E74A4370B5110015000D
:1007C00000F052F8041E03D02A000021FFF7ECFFCE
:1007D000200070BD70B50500002910D00C1F2368E3
:1007E000002B00DAE418280000F06EFC1D4A1368A4
:1007F000002B05D163601460280000F06DFC70BD13
:10080000A34208D9216860188342F3D118685B6855
:1008100041182160EEE71A005B68002B01D0A3426B
:10082000F9D911685018A0420BD120680918501846
:1008300011608342E0D118685B6841181160536011
:10084000DAE7A04202D90C232B60D5E721686018B3
:10085000834203D118685B6841182160636054606B
:10086000CAE7C04610B50208F8B50323CD1C9D4366
:10087000083506000C2D1FD20C25A9421ED83000C9
:1008800000F022FC25490A681400002C1AD1244FDC
:100890003B68002B04D12100300000F0D9F838600B
:1008A0002900300000F0D4F8431C2BD10C23300079
:1008B000336000F011FC03E0002DDEDA0C2333601E
:1008C0000020F8BD23685B1B19D40B2B03D92360D0
:1008D000E418256003E06368A2420ED10B6030008B
:1008E00000F0FAFB200007220B30231D9043C21AB0
:1008F0009842E6D01B1AA350E3E75360EFE72200CB
:100900006468C2E70323C41C9C43A042E1D0211ABF
:10091000300000F09DF8431CDBD1C7E710B502089A
:1009200014B502080FB40B4B13B51C68002C05D08E
:10093000A369002B02D1200000F0B6FA05AB20001D
:10094000049AA168019300F0F7FB16BC08BC04B040
:100950001847C0464493020870B505000E000028F1
:1009600004D08369002B01D100F09EFAAB69AC681A
:10097000002B02D1280000F097FA2D4B9C4222D187
:100980006C68636EDB0705D4A3899B0502D4A06D58
:1009900000F02BFBA3891B0702D52369002B29D16B
:1009A0002100280000F0DAF8002823D001256D424C
:1009B000636EDB0705D4A3899B0502D4A06D00F00C
:1009C00015FB280070BD1B4B9C4201D1AC68D8E7D9
:1009D000194B9C42D5D1EC68D3E70136A360002BBC
:1009E00004DAA2699A4216DC0A2914D023685A1C38
:1009F00022601970A3683178013B0029EDD1A36012
:100A0000002B0FDA280022000A3100F051F80A25E5
:100A1000431CCDD1CAE72200280000F049F8431C4E
:100A2000E8D1C3E70A2523685A1C22601D70BFE77E
:100A300068180010881800104818001010B5034BF3
:100A400001001868FFF788FF10BDC04644930208F4
:100A5000002370B5064D040008002B602EF08AFEBE
:100A6000431C03D12B68002B00D0236070BDC0460F
:100A70002CB502080023C25C0133002AFBD1581EAA
:100A800070470A7830B5002A0CD130BD9A4208D19F
:100A90000123CC5C002CF8D0C55CA54201D1013308
:100AA000F7E701300378002BF0D11800EDE70000E4
:100AB000F8B505000E001400002804D08369002B4F
:100AC00001D100F0F1F9224B9C422ED16C68A36950
:100AD000A360A3891B0732D52369002B2FD023687D
:100AE0002269F7B2981A6369F6B2834205DC2100E5
:100AF000280000F037F9002827D1A3680130013B16
:100B0000A36023685A1C22601F706369834204D06B
:100B1000A389DB0707D50A2E05D12100280000F0A4
:100B200021F9002811D13000F8BD0A4B9C4201D1B7
:100B3000AC68CCE7084B9C42C9D1EC68C7E7210000
:100B4000280000F00BF80028C9D001267642EAE719
:100B5000681800108818001048180010374B70B53E
:100B60001D6806000C00002D05D0AB69002B02D1DA
:100B7000280000F099F9324B9C420FD16C680C238D
:100B8000E25E93B211072DD4D90611D409230120B6
:100B9000336037331343A381404270BD294B9C42DD
:100BA00001D1AC68EBE7284B9C42E8D1EC68E6E762
:100BB0005B0713D5616B002908D0230044339942A9
:100BC00002D03000FFF706FE002363632422A389CE
:100BD0009343A38100236360236923600823A289D0
:100BE0001343A3812369002B0BD1A0218022A38969
:100BF000890092000B40934203D02100300000F0A6
:100C00001FFA0C22A35E01201A0099B2024003428F
:100C10000FD00022A26062695242A26100202269C4
:100C20008242BAD10A06B8D540221343A3810138C3
:100C3000B3E7880700D46269A260EFE74493020833
:100C4000681800108818001048180010F7B58B8934
:100C500005000C001A075FD44A68002A04DC0A6CFD
:100C6000002A01DC0020FEBDE76A002FFAD0002236
:100C700080212E682A601A0049010A400B4234D0B4
:100C8000606DA3895B0706D56368C01A636B002B90
:100C900001D0236CC01A0200216A00232800E76AF1
:100CA000B847A189431C06D12B681D2B31D82C4A8B
:100CB000DA40D3072DD50023636023692360CB047A
:100CC00005D5431C02D12B68002B00D16065616BF8
:100CD0002E600029C6D023004433994202D0280058
:100CE000FFF778FD00206063BDE701232800216A3B
:100CF000B847431CC5D12B68002BC2D01D2B01D097
:100D0000162B01D12E60ADE74023A2891343A381A6
:100D1000A9E740230B43FAE70F69002FA2D00A6826
:100D20000F60D21B019200229B0700D14A69A2608A
:100D3000019B002B00DC95E73A002800019B216A0B
:100D4000A66AB047002806DC40230120A289404261
:100D50001343A38187E7019B3F181B1A0193E7E721
:100D6000010040200B6970B505000C00002B02D17A
:100D70000025280070BD002804D08369002B01D114
:100D800000F092F8144B9C421BD16C680C22A35EBD
:100D9000002BEDD0626ED20704D49B0502D4A06D67
:100DA00000F023F928002100FFF750FF636E0500D3
:100DB000DB07DED4A3899B05DBD4A06D00F016F918
:100DC000D7E7064B9C4201D1AC68DFE7044B9C425D
:100DD000DCD1EC68DAE7C04668180010881800100B
:100DE00048180010002310B50400036043608360BE
:100DF000818143661900C2810361436183610822D6
:100E00005C30FFF7D1FC054B6362054B2462A362A3
:100E1000044BE362044B236310BDC046B1160010BF
:100E2000D9160010111700103D17001010B5024917
:100E300000F0BAF810BDC046650D001070B5682509
:100E40004A1E55430E0029007431FFF70DFD041EA4
:100E500008D000212A00016046600C30A060683292
:100E6000FFF7A2FC200070BD10B5024800F0BDF8ED
:100E700010BDC04628B5020810B5024800F0B6F80B
:100E800010BDC04628B5020810B5024800F0ADF804
:100E900010BDC04623B5020810B5024800F0A6F800
:100EA00010BDC04623B5020813B50400FFF7ECFFE0
:100EB000A369002B02D0FFF7EFFF13BDA364E36427
:100EC0002365134B134A1B68A2620193A34201D10D
:100ED0000123A361200000F01FF86060200000F0F3
:100EE0001BF8A060200000F017F800220421E06049
:100EF0006068FFF777FF01220921A068FFF772FF02
:100F000002221221E068FFF76DFF0123A361D2E7FF
:100F1000441800102D0E0010F8B50700FFF7A4FFCD
:100F20001F4B1E68B369002B02D13000FFF7BCFFD6
:100F30004836B4687368013B04D53368002B22D06F
:100F40003668F6E70C22A55E002D1AD12000154B5D
:100F50005830E360656600F047F8FFF78DFF20002A
:100F6000082229002560A560656025616561A5618D
:100F70005C30FFF719FC6563A563A564E564200098
:100F8000F8BD6834D7E704213800FFF757FF041E87
:100F90003060D5D1FFF770FF0C233B60EFE7C04610
:100FA000441800100100FFFFF7B5040006000027F9
:100FB000019148346368A5680093009B013B00934E
:100FC00004D52468002CF5D13800FEBDAB89012B77
:100FD00008D90E22AB5E013304D029003000019BFA
:100FE000984707436835E8E7704770477047000047
:100FF00070B50E001D000E23C95E140096B00029C6
:1010000007DA00232B60B3891B0611D48023DB0091
:101010000FE06A4600F0BEFB0028F2DBF0230199E6
:101020001B021940054BC9184B4259412960EDE795
:1010300040230020236016B070BDC04600E0FFFFD3
:10104000F7B502268B8905000C00334206D0230039
:1010500047332360236101236361F7BD6A4601AB17
:10106000FFF7C6FF009907002800FFF7FDFB0028E7
:1010700008D10C22A35E9A05EFD4032293431E43AA
:10108000A681E4E70F4BAB628023A2892060134363
:10109000A381009B20616361019B002B0DD0280080
:1010A0000E23E15E00F088FB002806D00322A3890E
:1010B00093431A0001231343A381A0890743A78107
:1010C000CBE7C0462D0E001010B50248FFF78DFF8C
:1010D00010BDC04624B5020810B50248FFF786FFD0
:1010E00010BDC04624B50208936810B5013B93605B
:1010F000002B04DA9469A34207DB0A2905D01368A0
:10110000581C10601970080010BDFFF7D1FC0100D9
:10111000F9E7F8B506000F001400D518AC4201D16C
:10112000002007E021783A003000FFF7DDFF0134AE
:10113000431CF3D1F8BD0000F0B5A1B006000C00CF
:101140001F000392002804D08369002B01D1FFF710
:10115000ABFE8E4B9C421CD17468636EDB0705D4DA
:10116000A3899B0502D4A06DFFF73FFFA3891B074E
:1011700002D52369002B1DD121003000FFF7EEFCC2
:10118000002817D0636EDB070DD50120404221B047
:10119000F0BD7F4B9C4201D1B468DEE77D4B9C42A1
:1011A000DBD1F468D9E7A3899B05EED4A06DFFF7E6
:1011B0001DFFEAE7002308AD6B6120336B76103327
:1011C000AB760797039F3B78002B01D0252B4ED1A0
:1011D000039BFB1A0593039B9F420DD0059B2100A7
:1011E0003000039AFFF795FF431C00D1B5E06A6910
:1011F000059B944663446B613B78002B00D1ACE0C7
:1012000001227B1C0393002352426A6004A95432DA
:1012100052182B60EB60AB601370AB65039B05222B
:1012200019785D4800F0EEFA039B5F1C002820D17E
:101230002A68D30604D5532304A95B18202119700A
:10124000130704D5532304A95B182B211970039BA2
:101250001B782A2B16D00021EB68039F3A78781C64
:10126000303A8446092A4FD9002911D117E00137B5
:10127000A9E7494B2A68C01A0123834013432B6016
:101280000397CBE7079B191D1B680791002B01DB18
:101290000B9304E05B42EB60022313432B603B782B
:1012A0002E2B0AD17B782A2B37D1079B02371A1DA8
:1012B0001B680792002B2DDB0993032239783748EE
:1012C00000F0A0FA002807D0344B2A68C01A402347
:1012D0008340134301372B6039787B1C062230484A
:1012E0000393297600F08EFA002845D02D4B002B71
:1012F00027D10722079B07339343083307936B6972
:10130000049A9B186B615DE70A214B4367469B1863
:101310000939A3E701235B42CEE700231A00013716
:101320006B603978781C30398446092903D9002B41
:10133000C3D00992C1E70A235A4367465218093BB2
:10134000EFE707AB0093220029003000164B00E0C6
:1013500000BF0490049B0133D1D1636EDB0705D439
:10136000A3899B0502D4A06DFFF740FEA3895B060D
:1013700000D50AE70D980AE707AB00932200290081
:101380003000094B00F082F8E3E7C046681800100F
:101390008818001048180010A8180010AE18001087
:1013A000B21800100000000013110010F7B515006E
:1013B00001938A680B690C000090934200DA1300D5
:1013C00022002B6043321278002A01D001332B60B7
:1013D00023689B0602D52B6802332B602268062304
:1013E00017001F401A4227D0230043331B785A1E90
:1013F00093412268920630D4220001990098089EF9
:101400004332B047431C25D0062320682A68E16890
:1014100000250340042B03D18D1AEB43DB171D403D
:10142000A3682269934201DD9B1AED180027BD4293
:1014300020D1002010E00137E3682A689B1ABB42E4
:10144000D2DD2200012301990098089E1932B0478D
:10145000431CF0D101204042FEBD3020E118433151
:10146000087021005A1C45310978A2184332023312
:101470001170C1E72200012301990098089E1A32D9
:10148000B047431CE6D00137D1E70000F0B58BB080
:1014900006920A0043320793059004920A7E0C00DC
:1014A000109B782A06D8622A08D8002A00D1C0E00A
:1014B000582A52D026004236327022E0100063389B
:1014C0001528F7D801F03CFE16001F00F6FFF6FFC6
:1014D000F6FFF6FF1F00F6FFF6FFF6FFF6FFA80087
:1014E00036009A00F6FFF6FFB900F6FF3600F6FF69
:1014F000F6FF9E0026001A684236111D1960136817
:1015000033700123A7E0086819680A1D05060BD58A
:101510000D681A60002D03DA2D23049A6D421370B2
:10152000614B0A27039332E00D681A604106F1D53A
:101530002DB2EFE70D681968081D18602E0601D559
:101540000D6803E06D06FBD50D68ADB2564B0A275A
:1015500003936F2A17D1082715E045310A70524AC4
:1015600003921A68216820CA1A60080650D5CB0772
:1015700002D52023194321601027002D03D12023F9
:1015800022689A4322602300002243331A70636862
:10159000A360002B03DB0422216891432160002D0E
:1015A00002D1049E002B0CD0049E2800390001F0CB
:1015B00061FE039B013E5B5C33702B0005009F4284
:1015C000F3D9082F09D12368DB0706D563682269A0
:1015D000934202DC3023013E3370049B9B1B23614A
:1015E000079B210000930598069B09AAFFF7DEFEE2
:1015F000431C35D1012040420BB0F0BD20220968C8
:101600000A4322602200782145321170274AA7E759
:101610004806ACD5ADB2AAE71A680D68101D496935
:10162000186013682E0601D5196002E06D06FBD51F
:1016300019800023049E2361D2E71A68111D1960E6
:10164000166800213000626800F0DCF8002801D044
:10165000801B6060636823610023049A1370BFE7F6
:101660002369320006990598079DA847431CC1D0FD
:1016700023689B0715D4099BE0689842BCDA1800E0
:10168000BAE72200012306990598079E1932B04750
:10169000431CAFD00135E368099A9B1AAB42F0DCDA
:1016A000E9E70025F7E7C046B9180010CA1800108E
:1016B00070B50C000E25495F00F0B0F8002803DB80
:1016C000636D1B18636570BDA389024A1340A38133
:1016D000F9E7C046FFEFFFFFF8B51F008B89050053
:1016E0000C001600DB0505D50E23C95E002202237F
:1016F00000F074F8A389054A28001340A381320042
:101700000E23E15E3B0000F01FF8F8BDFFEFFFFF86
:1017100070B50C000E25495F00F060F8A389421CEB
:1017200003D1054A1340A38170BD802252011343A7
:10173000A3816065F8E7C046FFEFFFFF10B50E23F9
:10174000C95E00F015F810BD70B504000800110066
:101750001A000023054D2B6020F070FD431C03D1BF
:101760002B68002B00D0236070BDC0462CB502084A
:10177000002370B5064D040008002B602DF0D2FF49
:10178000431C03D12B68002B00D0236070BDC046E2
:101790002CB50208002370B5064D040008001100A6
:1017A0002B602DF0C7FF431C03D12B68002B00D00A
:1017B000236070BD2CB50208002370B5064D0400EF
:1017C00008002B602DF0BEFF431C03D12B68002BBB
:1017D00000D0236070BDC0462CB5020870B504006F
:1017E000080011001A000023054D2B602DF0B2FFF8
:1017F000431C03D12B68002B00D0236070BDC04672
:101800002CB50208C9B28218904201D1002070475D
:1018100003788B42FBD00130F6E7000070B504007E
:10182000080011001A000023054D2B602DF09AFFCF
:10183000431C03D12B68002B00D0236070BDC04631
:101840002CB50208489302080000000000000000C8
:101850000000000000000000000000000000000088
:101860000000000000000000000000000000000078
:101870000000000000000000000000000000000068
:101880000000000000000000000000000000000058
:101890000000000000000000000000000000000048
:1018A0000000000000000000232D302B2000686C99
:1018B0004C00656667454647003031323334353673
:1018C00037383941424344454600303132333435AC
:1018D00036373839616263646566000005DF70473A
:1018E0000020FBE706DF704709DF704730B585B0A1
:1018F0000291050001210C48039204F057F9041EDF
:101900000EDD002329000193009302AA013304F0A5
:101910004FF90500200004F057F9280005B030BD4C
:1019200084256D42F9E7C046E0F0000030B50121A2
:101930000B4883B004F03AF9041E0DDD00230022A9
:1019400000210193009304F033F90500200004F016
:101950003BF9280003B030BD84256D42F9E7C0464D
:10196000C0F0000030B587B0029003912020012123
:101970000492059304F01AF90400051E11DD0123F9
:10198000019304AB00930021012302AA04F010F993
:101990000400280004F018F9002C02D1059A0A9BD3
:1019A0001A60200007B030BD30B589B003AB049396
:1019B000042303900691212001210593079304F04D
:1019C000F5F8041E0DDD0123019306AB0021009301
:1019D00004AA012304F0ECF80500200004F0F4F858
:1019E0002C00200009B030BD30B589B0049302232B
:1019F000029003910593012102332220069207935E
:101A000004F0D4F8041E0DDD0323019302AB002281
:101A100000210093002304F0CBF80500200004F01F
:101A2000D3F82C00200009B030BDC04630B58BB0D3
:101A30000290039102A90491069308210EAB08932A
:101A400004230591602007390792099304F0AEF84A
:101A5000041E10DD002300210193009304AA033328
:101A600004F0A6F80500200004F0AEF8032D05D020
:101A700028000BB030BD84256D42F9E78A3DF7E7B9
:101A800070B58CB0039204AA08920822099203AAA6
:101A90000A920422119E0B92109A049005910692CC
:101AA0000793002E1CD00121612004F07FF8041E52
:101AB00013DD0123019306AB00930021022308AA42
:101AC00004F076F80500200004F07EF8032D07D01E
:101AD000079B336028000CB070BD84256D42F9E788
:101AE00087256D42F6E7C04630B589B002AB049356
:101AF000082302900391059301210433622006928A
:101B0000079304F053F8041E11DD0123019306AB83
:101B100000930021012304AA04F04AF805002000E4
:101B200004F052F8032D05D0280009B030BD8425FB
:101B30006D42F9E78A3DF7E730B587B002AB049311
:101B400008230290039101216320059304F02EF8ED
:101B5000041E10DD002300210193009304AA013329
:101B600004F026F80500200004F02EF8032D05D01F
:101B7000280007B030BD84256D42F9E78A3DF7E7BC
:101B8000862040427047C046862040427047C0468B
:101B9000002310B586B0039303AB04930423012103
:101BA0006420059304F002F8041E0BDD0123019369
:101BB00004AB009300220023002103F0F9FF200072
:101BC00004F002F8039806B010BDC04630B58BB0E3
:101BD0000290039102A90491069308210EAB089389
:101BE00004230591702007390792099303F0DEFF63
:101BF000041E10DD002300210193009304AA033387
:101C000003F0D6FF0500200003F0DEFF032D05D012
:101C100028000BB030BD84256D42F9E78A3DF7E717
:101C200070B58CB0039204AA08920822099203AA04
:101C30000A920422119E0B92109A0490059106922A
:101C40000793002E1CD00121712003F0AFFF041E6A
:101C500013DD0123019306AB00930021022308AAA0
:101C600003F0A6FF0500200003F0AEFF032D07D010
:101C7000079B336028000CB070BD84256D42F9E7E6
:101C800087256D42F6E7C04630B589B002AB0493B4
:101C900008230290039105930121043372200692D8
:101CA000079303F083FF041E11DD0123019306ABAC
:101CB00000930021012304AA03F07AFF050020000D
:101CC00003F082FF032D05D0280009B030BD842524
:101CD0006D42F9E78A3DF7E730B587B002AB049370
:101CE00008230290039101217320059303F05EFF06
:101CF000041E0EDD002300210193009304AA01338A
:101D000003F056FF0500200003F05EFF280007B037
:101D100030BD84256D42F9E70020704730B595B09D
:101D20000C002422002103900BA8FEF73DFD0AAA17
:101D300006922822079203AA022308920422012174
:101D4000802004940A930992059303F02FFF041E48
:101D50000FDD0123019304AB00930021022306AAA7
:101D600003F026FF0500200003F02EFF280015B029
:101D700030BD84256D42F9E730B58FB004002422D0
:101D8000002105A8FEF710FD032304AD04930121F3
:101D900025338020EC800295039303F007FF041E97
:101DA0000EDD002300210193009302AA013303F00A
:101DB000FFFE0500200003F007FF28000FB030BD34
:101DC00084256D42F9E7C046F0B595B007000E00D6
:101DD0001500002124220BA81C00FEF7E5FC0423BB
:101DE0000A930AAB049328230593043B079301212C
:101DF000223B80200294069708960995039303F0EE
:101E0000D5FE041E0FDD0123019302AB00930021D8
:101E1000032304AA03F0CCFE0500200003F0D4FE47
:101E2000280015B0F0BD84256D42F9E730B58FB0BC
:101E300004002422002105A8FEF7B6FC052304AD0A
:101E40000493012123338020EC800295039303F057
:101E5000ADFE041E0EDD002300210193009302AAB3
:101E6000013303F0A5FE0500200003F0ADFE2800BD
:101E70000FB030BD84256D42F9E7C04630B591B052
:101E80000C0005002822002106A8FEF78DFC6B46F9
:101E9000DD8306AB02932823012103938020043BBA
:101EA0000494059303F082FE041E0FDD01230193C9
:101EB00004AB00930021012302AA03F079FE050080
:101EC000200003F081FE280011B030BD84256D4252
:101ED000F9E7C046F0B5C64600B590B0140006005C
:101EE0000D002422002107A89846FEF75DFC06237A
:101EF00006AF06930121223380200594FE800297CD
:101F00000393049503F052FE041E14DD0123019394
:101F100004AB009302AA0123002103F049FE4346CB
:101F2000059A05001A60200003F04EFE280010B04C
:101F300004BC9046F0BD84256D42F7E7F0B5C64677
:101F400000B590B0140006000D002422002107A85F
:101F50009846FEF729FC072306AF0693012121339B
:101F600080200594FE8002970393049503F01EFEE3
:101F7000041E14DD0123019304AB009302AA012384
:101F8000002103F015FE4346059A05001A60200063
:101F900003F01AFE280010B004BC9046F0BD842562
:101FA0006D42F7E7F0B593B0140006000D0024224F
:101FB000002109A8FEF7F8FB0823089320330593B6
:101FC000043B08AF07930121223B80200294FE804E
:101FD00004970695039303F0E9FD041E0FDD01232A
:101FE000019302AB00930021022304AA03F0E0FD59
:101FF0000500200003F0E8FD280013B0F0BD8425A3
:102000006D42F9E7F0B5C64600B592B004000E0087
:102010001500002124221F0009A808AB9846FEF7EE
:10202000C3FB1D230893434622680293DA602823EA
:10203000012103938020243B049405930696079581
:1020400003F0B4FD041E13DD0223019304AB0093DF
:102050000021012302AA03F0ABFD079B05003B60B2
:10206000200003F0B1FD280012B004BC9046F0BD82
:1020700084256D42F7E7C046F0B593B004000E002A
:1020800015000021242209A8FEF78EFB1E230893C9
:10209000236808AFFB602823012105938020243B9F
:1020A0000294049706960795039303F07FFD041EA0
:1020B0000FDD0123019302AB00930021022304AA48
:1020C00003F076FD0500200003F07EFD280013B02C
:1020D000F0BD84256D42F9E7F0B591B004000F0022
:1020E00016000021242207A8FEF75EFB1B2306939F
:1020F000236806ADEB602823012103938020243B55
:102100000494EF8002950593AE6003F04FFD041E2A
:102110000FDD0123019304AB00930021012302AAE8
:1021200003F046FD0500200003F04EFD280011B02D
:10213000F0BD84256D42F9E7F0B591B004000F00C1
:1021400016000021242207A8FEF72EFB1C2306936D
:10215000236806ADEB602823012103938020243BF4
:102160000494EF8002950593AE6003F01FFD041EFA
:102170000FDD0123019304AB00930021012302AA88
:1021800003F016FD0500200003F01EFD280011B02D
:10219000F0BD84256D42F9E7F0B5C64600B594B0B0
:1021A00004000F0016001D0024220AAB00210BA81A
:1021B0009846FEF7F9FA1F230A93434622680293D2
:1021C000DA6028230393243B07931A9B0121802084
:1021D0000694049705960895099303F0E7FC041EFE
:1021E00014DD0223019306AB009302AA022300210F
:1021F00003F0DEFC099A1B9B05001A60200003F027
:10220000E3FC280014B004BC9046F0BD84256D4268
:10221000F7E7C04630B591B004002422002107A89A
:10222000FEF7C2FA21230693236806ADEB6028234C
:10223000012103938020243B04940295059303F02D
:10224000B5FC041E0FDD0123019304AB00930021B4
:10225000012302AA03F0ACFC0500200003F0B4FC4B
:10226000280011B030BD84256D42F9E7F0B5C646AF
:1022700000B592B004000E001500002124221F00BA
:1022800009A808AB9846FEF78FFA20230893434627
:1022900022680293DA602823012103938020243BE3
:1022A000049405930696079503F080FC041E13DD45
:1022B0000223019304AB00930021012302AA03F03F
:1022C00077FC079B05003B60200003F07DFC2800A5
:1022D00012B004BC9046F0BD84256D42F7E7C046BD
:1022E00070B590B004000E002422002107A8FEF76C
:1022F0005BFA0B230693236806ADEB6028230121CC
:1023000003938020243B049402950593AE6003F070
:102310004DFC041E0FDD0123019304AB009300214B
:10232000012302AA03F044FC0500200003F04CFC4A
:10233000280010B070BD84256D42F9E7F0B593B068
:1023400004000E0015000021242209A8FEF72CFA33
:102350000C230893236808AFFB6028230121059311
:102360008020243B0294049706960795039303F07C
:102370001DFC041E0FDD0123019302AB009300211D
:10238000022304AA03F014FC0500200003F01CFC47
:10239000280013B0F0BD84256D42F9E7F0B5C646BC
:1023A00000B592B004000E001500002124221F0089
:1023B00009A808AB9846FEF7F7F90D2308934346A2
:1023C00022680293DA602823012103938020243BB2
:1023D000049405930696079503F0E8FB041E13DDAD
:1023E0000223019304AB00930021012302AA03F00E
:1023F000DFFB079B05003B60200003F0E5FB2800A6
:1024000012B004BC9046F0BD84256D42F7E7C0468B
:10241000F0B593B004000E0015000021242209A895
:10242000FEF7C2F90E230893236808AFFB60282348
:10243000012105938020243B02940497069607957A
:10244000039303F0B3FB041E0FDD0123019302ABE2
:1024500000930021022304AA03F0AAFB0500200038
:1024600003F0B2FB280013B0F0BD84256D42F9E7FC
:1024700030B591B004002422002107A8FEF794F99A
:102480000F230693236806ADEB60282301210393F5
:102490008020243B04940295059303F087FB041EDF
:1024A0000FDD0123019304AB00930021012302AA55
:1024B00003F07EFB0500200003F086FB280011B02E
:1024C00030BD84256D42F9E770B590B005000C0071
:1024D0002422002107A8FEF767F9102306932B6832
:1024E00006AEF36028230393243B029604940593DD
:1024F000002C02D02368002B18D10121802003F08A
:1025000055FB041E0FDD0123019304AB0093002152
:10251000012302AA03F04CFB0500200003F054FB4A
:10252000280010B070BD84256D42F9E789256D4201
:10253000F6E7C046F0B591B004000F001600002188
:10254000242207A8FEF730F913230693236806AD6B
:10255000EB602823012103938020243B0494EF8027
:1025600002950593AE6003F021FB041E0FDD0123ED
:10257000019304AB00930021012302AA03F018FB8E
:102580000500200003F020FB280011B0F0BD8425D9
:102590006D42F9E7F0B591B004000F00160000217C
:1025A000242207A8FEF700F914230693236806AD3A
:1025B000EB602823012103938020243B0494EF80C7
:1025C00002950593AE6003F0F1FA041E0FDD0123BE
:1025D000019304AB00930021012302AA03F0E8FA5F
:1025E0000500200003F0F0FA280011B0F0BD8425AA
:1025F0006D42F9E7F0B593B004000E00150000211C
:10260000242209A8FEF7D0F815230893236808AF01
:10261000FB602823012105938020243B029404972A
:1026200006960795039303F0C1FA041E0FDD0123FC
:10263000019302AB00930021022304AA03F0B8FA2D
:102640000500200003F0C0FA280013B0F0BD842577
:102650006D42F9E7F0B5C64600B592B004000E0031
:102660001500002124221F0009A808AB9846FEF798
:102670009BF816230893434622680293DA602823C6
:10268000012103938020243B04940593069607952B
:1026900003F08CFA041E13DD0223019304AB0093B4
:1026A0000021012302AA03F083FA079B05003B6087
:1026B000200003F089FA280012B004BC9046F0BD57
:1026C00084256D42F7E7C046F0B593B004000E00D4
:1026D00015000021242209A8FEF766F817230893A5
:1026E000236808AFFB602823012105938020243B49
:1026F0000294049706960795039303F057FA041E75
:102700000FDD0123019302AB00930021022304AAF1
:1027100003F04EFA0500200003F056FA280013B02B
:10272000F0BD84256D42F9E730B591B00400242254
:10273000002107A8FEF738F818230693236806AD92
:10274000EB602823012103938020243B049402950D
:10275000059303F02BFA041E0FDD0123019304AB54
:1027600000930021012302AA03F022FA05002000B1
:1027700003F02AFA280011B030BD84256D42F9E734
:10278000F0B5C64600B594B080460F001600002193
:1027900020220BA81D001A9CFEF706F822234246B1
:1027A0000A936B460C97DA851395002C37D00AAB49
:1027B0000493282305931C9B089406931D9B079361
:1027C0001B9B09931E9B02931F9B0393102D29D8DB
:1027D000002E06D0002D04D02A0031000FA8FDF7EE
:1027E000C7FF0121802003F0E1F9051E1DDD230054
:1027F00001225C1EA341019202AA02330092002131
:1028000004AA03F0D5F9039A209B04001A6028005B
:1028100003F0DAF9200014B004BC9046F0BD1B9B15
:10282000002BC4D087246442F4E784246442F1E797
:10283000F0B5C64600B594B080460F0016000021E2
:1028400020220BA81D001A9CFDF7AEFF2323424651
:102850000A936B460C97DA851395002C37D00AAB98
:102860000493282305931C9B089406931D9B0793B0
:102870001B9B09931E9B02931F9B0393102D29D82A
:10288000002E06D0002D04D02A0031000FA8FDF73D
:102890006FFF0121802003F089F9051E1DDD230053
:1028A00001225C1EA341019202AA02330092002180
:1028B00004AA03F07DF9039A209B04001A60280003
:1028C00003F082F9200014B004BC9046F0BD1B9BBD
:1028D000002BC4D087246442F4E784246442F1E7E7
:1028E000F0B5C64600B592B080460F001500002135
:1028F000242209A81C00FDF757FF2E230893434606
:1029000008AEF38028230593189B01210293199B9D
:1029100080200794049606950393B76003F046F968
:10292000041E14DD0123019302AB009304AA0223C9
:10293000002103F03DF9039A1A9B05001A6020005C
:1029400003F042F9280012B004BC9046F0BD842583
:102950006D42F7E7F0B5C64600B592B080460F006D
:1029600015000021242209A81C00FDF71DFF2E23BD
:102970000893434608AEF38028230593189B012152
:102980000293199B80200794049606950393B760E1
:1029900003F00CF9041E14DD0123019302AB009334
:1029A00004AA0223002103F003F9039A1A9B0500ED
:1029B0001A60200003F008F9280012B004BC904609
:1029C000F0BD84256D42F7E7F0B5C64600B592B07C
:1029D00080460F0015000021242209A81C00FDF7E5
:1029E000E3FE2F230893434608AEF3802823039386
:1029F000189B01210693199B80200594029604954B
:102A00000793B76003F0D2F8041E10DD0023002105
:102A10000193009302AA033303F0CAF805002000D3
:102A200003F0D2F8280012B004BC9046F0BD842513
:102A30006D42F7E7F0B5C64600B592B080460F008C
:102A400015000021242209A81C00FDF7ADFE2F234C
:102A50000893434608AEF38028230393189B012173
:102A60000693199B80200594029604950793B760FE
:102A700003F09CF8041E10DD002300210193009355
:102A800002AA033303F094F80500200003F09CF839
:102A9000280012B004BC9046F0BD84256D42F7E7D3
:102AA000F0B595B005000C001700002124220BA8FA
:102AB0001E00FDF779FE30230A936B46DD851A9BD5
:102AC0000C94002B29D00AAB0493282305931A9B5E
:102AD000079608931B9B02AE09931C9B012102934E
:102AE0001D9B80207360069703F060F804AC05001E
:102AF000032300282BDD012200210192280022005F
:102B0000009603F055F872681E9B04001A602800B6
:102B100003F05AF8200015B0F0BD1B9B002B19D113
:102B20000AAB0493282305931B9B079608930993EC
:102B30001C9B02AE02931D9B0121802073600697AF
:102B400003F034F804AC051E01DD0223D3E784242E
:102B50006442DFE787246442DCE7C046F0B595B005
:102B600005000C001700002124220BA81E00FDF711
:102B70001BFE31230A936B46DD851A9B0C94002BB8
:102B800029D00AAB0493282305931A9B0796089330
:102B90001B9B02AE09931C9B012102931D9B80206D
:102BA0007360069703F002F804AC050003230028C5
:102BB0002BDD01220021019228002200009602F064
:102BC000F7FF72681E9B04001A60280002F0FCFFE9
:102BD000200015B0F0BD1B9B002B19D10AAB04934C
:102BE000282305931B9B0796089309931C9B02AE11
:102BF00002931D9B012180207360069702F0D6FF8F
:102C000004AC051E01DD0223D3E784246442DFE720
:102C100087246442DCE7C04670B590B00C00050024
:102C20002422002107A8FDF7BFFD332306932B685C
:102C300006AEF3602823012103938020243B0494F3
:102C40000296059302F0B2FF041E0FDD01230193EB
:102C500004AB00930021012302AA02F0A9FF0500A2
:102C6000200002F0B1FF280010B070BD84256D4235
:102C7000F9E7C046F0B591B0140006000D0024221B
:102C8000002107A8FDF790FD38230693336806AFAF
:102C9000FB6028230121802005940297039304956B
:102CA00002F084FF041E0FDD0123019304AB0093A7
:102CB0000021012302AA02F07BFF0500200002F0A0
:102CC00083FF280011B0F0BD84256D42F9E7C046AE
:102CD000F0B58FB005000F0016000021202206A8D5
:102CE000FDF762FD362304932B6804ACE3602823D0
:102CF00001218020A780E6800294039302F056FF12
:102D0000041E0EDD002300210193009302AA01336B
:102D100002F04EFF0500200002F056FF28000FB021
:102D2000F0BD84256D42F9E730B591B0040024224E
:102D3000002107A8FDF738FD3A230693236806AD66
:102D4000EB602823012103938020243B0494029507
:102D5000059302F02BFF041E0FDD0123019304AB4A
:102D600000930021012302AA02F022FF05002000A7
:102D700002F02AFF280011B030BD84256D42F9E72A
:102D8000F0B5C64600B592B0040088461700002191
:102D900020220AA81E00FDF707FD372308934346AB
:102DA00008ADAB8023680121EB6028230593189BB5
:102DB0008020079304230294EF80049506960393E2
:102DC00002F0F4FE041E11DD0123019302AB009317
:102DD0000021022304AA02F0EBFE0500200002F00D
:102DE000F3FE280012B004BC9046F0BD84256D426D
:102DF000F7E7C04630B591B005000C002422002151
:102E000007A8FDF7D1FC3C23069306AB02932823C9
:102E10000495039300250594002C02D1280011B0DD
:102E200030BD0121802002F0C1FE041E0DDD012312
:102E3000019304AB00930021012302AA02F0B8FE23
:102E40000500200002F0C0FEE8E784256D42E5E7BA
:102E500030B593B00C0005002422002109A8FDF72D
:102E6000A3FC3D23089308AB049328230593043B5C
:102E700007930121223B802002940695039302F0E0
:102E800095FE041E0FDD0123019302AB0093002188
:102E9000022304AA02F08CFE0500200002F094FE3A
:102EA000280013B030BD84256D42F9E786204042EA
:102EB0007047C046862040427047C0468620404248
:102EC0007047C046862040427047C0468620404238
:102ED0007047C046862040427047C0468620404228
:102EE0007047C046862040427047C0468620404218
:102EF0007047C046862040427047C0468620404208
:102F00007047C046F0B5C64600B592B00700884687
:102F100015000021242209A81C00FDF745FC3B23D5
:102F20000893434608AEF38028230593189B01219C
:102F30000293199B80200794049606950393B7602B
:102F400002F034FE041E14DD0123019302AB009352
:102F500004AA0223002102F02BFE039A1A9B05000B
:102F60001A60200002F030FE280012B004BC904627
:102F7000F0BD84256D42F7E770B590B004000E00F7
:102F80002422002107A8FDF70FFC322306932368B3
:102F900006ADEB602823012103938020243B049499
:102FA00002950593AE6002F001FE041E0FDD0123C1
:102FB000019304AB00930021012302AA02F0F8FD63
:102FC0000500200002F000FE280010B070BD84252E
:102FD0006D42F9E770B58EB006000D002422002185
:102FE00005A8FDF7E1FB34230493336804ACE360E8
:102FF00028230121802002942561039302F0D6FD4D
:10300000041E0EDD002300210193009302AA013368
:1030100002F0CEFD0500200002F0D6FD28000EB023
:1030200070BD84256D42F9E7F0B5C64600B590B095
:103030000700884615000021242207A81C00FDF780
:10304000B3FB35230693434606AEB3803B680121AC
:10305000F36028238020059402960393049502F0E0
:10306000A5FD041E10DD002300210193009302AA98
:10307000023302F09DFD0500200002F0A5FD2800AE
:1030800010B004BC9046F0BD84256D42F7E7C04601
:10309000F0B593B0140005000E002422002109A809
:1030A000FDF782FB39230893336808AFFB602823C0
:1030B0000593043B07930121223B8020029404974F
:1030C0000695039302F072FD041E0FDD01230193A8
:1030D00002AB00930021022304AA02F069FD05005F
:1030E000200002F071FD280013B0F0BD84256D4270
:1030F000F9E7C046862040427047C04686204042DD
:103100007047C046862040427047C04686204042F5
:103110007047C046862040427047C04686204042E5
:103120007047C046862040427047C04602B4714690
:1031300049084900095C49008E4402BC7047C046FA
:1031400003B47146490840004900095E49008E44B5
:1031500003BC704703B47146490840004900095A4E
:1031600049008E4403BC7047002243088B4274D34D
:1031700003098B425FD3030A8B4244D3030B8B4278
:1031800028D3030C8B420DD3FF22090212BA030C81
:103190008B4202D31212090265D0030B8B4219D362
:1031A00000E0090AC30B8B4201D3CB03C01A524182
:1031B000830B8B4201D38B03C01A5241430B8B42CA
:1031C00001D34B03C01A5241030B8B4201D30B03B3
:1031D000C01A5241C30A8B4201D3CB02C01A5241DA
:1031E000830A8B4201D38B02C01A5241430A8B429D
:1031F00001D34B02C01A5241030A8B4201D30B0286
:10320000C01A5241CDD2C3098B4201D3CB01C01A9F
:10321000524183098B4201D38B01C01A52414309A9
:103220008B4201D34B01C01A524103098B4201D397
:103230000B01C01A5241C3088B4201D3CB00C01A04
:10324000524183088B4201D38B00C01A524143087C
:103250008B4201D34B00C01A5241411A00D20146A1
:10326000524110467047FFE701B5002000F0F0F82A
:1032700002BDC0460029F7D076E7704703460B43EE
:103280007FD4002243088B4274D303098B425FD35F
:10329000030A8B4244D3030B8B4228D3030C8B428B
:1032A0000DD3FF22090212BA030C8B4202D3121271
:1032B000090265D0030B8B4219D300E0090AC30B46
:1032C0008B4201D3CB03C01A5241830B8B4201D3F3
:1032D0008B03C01A5241430B8B4201D34B03C01ADC
:1032E0005241030B8B4201D30B03C01A5241C30A54
:1032F0008B4201D3CB02C01A5241830A8B4201D3C5
:103300008B02C01A5241430A8B4201D34B02C01AAE
:103310005241030A8B4201D30B02C01A5241CDD253
:10332000C3098B4201D3CB01C01A524183098B429E
:1033300001D38B01C01A524143098B4201D34B0187
:10334000C01A524103098B4201D30B01C01A5241EA
:10335000C3088B4201D3CB00C01A524183088B4271
:1033600001D38B00C01A524143088B4201D34B005A
:10337000C01A5241411A00D20146524110467047CC
:103380005DE0CA0F00D04942031000D340425340D1
:1033900000229C4603098B422DD3030A8B4212D391
:1033A000FC22890112BA030A8B420CD389019211C3
:1033B0008B4208D3890192118B4204D389013AD000
:1033C000921100E08909C3098B4201D3CB01C01AD5
:1033D000524183098B4201D38B01C01A52414309E8
:1033E0008B4201D34B01C01A524103098B4201D3D6
:1033F0000B01C01A5241C3088B4201D3CB00C01A43
:10340000524183088B4201D38B00C01A5241D9D25A
:1034100043088B4201D34B00C01A5241411A00D2DB
:103420000146634652415B10104601D34042002BD7
:1034300000D54942704763465B1000D3404201B556
:10344000002000F005F802BD0029F8D016E770470B
:103450007047C0468446101C62468C46191C634661
:1034600000E0C0461FB500F0BBFD002801D40021DC
:10347000C8421FBD10B500F005FD4042013010BD2F
:1034800010B500F0ADFD002801DB002010BD0120CB
:1034900010BDC04610B500F0A3FD002801DD0020DE
:1034A00010BD012010BDC04610B500F027FD00285A
:1034B00001DC002010BD012010BDC04610B500F099
:1034C0001DFD002801DA002010BD012010BDC046FE
:1034D000994201D1801A04D002D2012040427047A3
:1034E00001207047002B11D1002A0FD1002900D1F3
:1034F000002802D00021C943081C07B4024802A1D9
:103500004018029003BDC04649FFFFFF03B4684660
:1035100001B5029800F080F8019B9E4602B00CBCF9
:103520007047C046F0B515042D0C0F0001002E00A9
:10353000C64684460004140C000C090C46434D4357
:10354000604361434019340C241800B5A54203D9E7
:103550008020400280464144250C6D186146594345
:103560007A43300449192404000C2018891804BC3B
:103570009046F0BD70B505000C0000220023280025
:103580002100FFF77DFF002808D12800210000F06E
:103590000FF802000B001000190070BD80231B06FD
:1035A000E118280000F004F8002342428B41F2E7C2
:1035B00070B500220B4B0D00040000F081FD01F0FE
:1035C00045FC060001F0AAFB0022074B00F078FD45
:1035D00002000B002000290000F0DEFF01F036FCA5
:1035E000310070BD0000F03D0000F04170B50600F4
:1035F000080001F063FB0022064B00F061FD0D00A6
:103600000400300001F08AFB2B00220000F0D0F80B
:1036100070BDC0460000F041F0B557464E464546E5
:10362000DE46E0B504000D009246994683B08B4219
:1036300030D82DD04946504601F0FCFB2900060049
:10364000200001F0F7FB331A9846203B9B4633D409
:103650005A465346934042461F00534693401E002D
:10366000AF423AD8AF4200D178E05B46A41BBD41DF
:10367000002B00DA75E00022002300920193012361
:103680005A4693400193012342469340009328E019
:103690008242CFD900220023009201930C9B002B81
:1036A00001D01C605D600098019903B03CBC90465D
:1036B0009946A246AB46F0BD424620239B1A52468D
:1036C000DA40414613004A468A40170042461F43EB
:1036D000534693401E00AF42C4D9002200230092FB
:1036E00001934346002BD9D0FB0772081A43464684
:1036F0007B080EE0AB4201D1A2420CD8A41A9D4136
:10370000012024196D410021013E24184D41002E55
:1037100006D0AB42EED9013E24196D41002EF8D1FE
:10372000009801995B4600196941002B24DB2B00AE
:103730005A464446D3402A00E2401C005B4615002E
:10374000002B2ADB26009E40330026004746BE4061
:103750003200801A9941009001919FE7A342BCD8A2
:1037600083E74246202300219B1A00220091019208
:103770000122DA40019286E7424620239B1A2A0062
:1037800046469A402300F340444613432A00E24051
:103790001C005B461500002BD4DA42462F00202384
:1037A000260097409B1ADE403B003343CDE7C046DE
:1037B000F0B54F46D64646460D0001001800C0B58C
:1037C00017002B035A0A4B0F1343CA0091460203FA
:1037D0006E004100520AEC0F7D0F1543760D490D26
:1037E000C00F8246AC46FF00721A844200D198E0B6
:1037F000002A00DC81E0002900D1B6E0C9498E42F0
:1038000000D172E180212800090408438446382A47
:1038100000DD5EE11F2A00DDEEE120203900654673
:10382000801A8740D14085400D4339004F1EB94171
:103830006746D7402943DB1B4A46551AA9458941AB
:1038400049425B1A984643461B0200D4CCE04346EB
:103850005B025B0A98464346002B00D12CE14046B0
:1038600001F0CAFA01000839202228004346521A02
:103870008B40D0408D4003438E4200DD17E18E1B0C
:10388000721C1F2A00DDA7E1202118002E00891AD2
:103890008D408840D640D340691E8D4130439846C4
:1038A000002605436B0709D00F232B40042B05D0BE
:1038B0002B1DAB42AD416D42A8441D0043461B0287
:1038C00000D494E0974B721C9A4200D19DE041468F
:1038D000954BED0819400B00520549075B0229433F
:1038E0001B0B520D12051343E40723430800190074
:1038F0001CBC90469946A246F0BD002A43D08A1BC4
:10390000002E00D02AE14C461C4300D1D1E1541EC8
:10391000012A00D11FE2834DAA4200D172E22200A7
:1039200023E1002A00DC98E0002942D07D498E4244
:1039300000D1DAE080212800090408438446382AAF
:1039400000DD29E11F2A00DC87E1110065462039EE
:10395000CD40202A04D040206146821A91400F4376
:1039600039004F1EB9410D431BE12900394300D1F5
:10397000B5E0511E012A00D1ABE16A48824200D174
:10398000B2E10A0043E76949751C0D4200D0CFE05F
:10399000002E00D093E14946194300D1D1E16146A0
:1039A000394300D0E3E149465807C9080143DB0821
:1039B00026E02900394300D191E0511E012A05D0AB
:1039C0005848824200D18FE10A00B8E73D004D44DB
:1039D0004D458941634498464942884443460226FE
:1039E0001B0200D5EBE0013E6B0700D05CE74346CD
:1039F000E9085A0711433200DB084A48824221D0C5
:103A00001B0352051B0B520D6CE70023002169E7D5
:103A10002A003A4369D04A465807D108DA08802379
:103A20001B0308431A4207D02900ED081D4203D1A9
:103A30002A00FF0848073843430FC1005B07C90845
:103A4000194313000A001A4300D113E28022120323
:103A500013431B03334A1B0B44E7002A4BD08A1B3A
:103A6000002E00D1E7E02F48814200D195E180206F
:103A700000040343382A00DD43E11F2A00DDDBE1B7
:103A800020201D004E46801A8540D64035434E46C4
:103A900086403000D340461EB0419C440543ED199A
:103AA000BD429B415B42634498460E007FE01E4A44
:103AB000761A13409846F5E6280001F09DF90100BA
:103AC00018311F2900DCCFE62B0008388340002581
:103AD000D2E662463A4311004F1EB941ACE6494670
:103AE0005807C9080143DB0887E749465A07C90850
:103AF0001143DB08A6E70D49701C084200D0BBE06B
:103B0000002E00D014E14946194300D175E1290087
:103B1000394300D07EE149465807C9080143DB0814
:103B20006EE7C046FF070000FFFF7FFFFE070000B3
:103B30004946CD1B6146581AA945894149428846E4
:103B400001004046091A8846090200D5A6E0414610
:103B5000294300D07FE60023002451E7C74CA1424F
:103B600000D1C7E0802424042343382A54DC1F2AD0
:103B700000DDCCE020244846A41A1D004E46A0409B
:103B8000D640A5400400D34062463543661EB4418A
:103B9000D31A9C46254344E062463A4315006F1E03
:103BA000BD414D444D45894149428846984443466C
:103BB0001B0200D418E7B14B01369E4249D0424661
:103BC000AF4B01211A4013006A080D401543D90775
:103BD0005B0898460D4365E618001F3EF040202A1A
:103BE00003D040218A1A93401D43691E8D41002352
:103BF000002698460543F7E6110065462039CD407A
:103C0000202A04D040206146821A91400F43390097
:103C10004F1EB94129430FE64A4613431D006B1E50
:103C20009D417D1BAF429B4162465B42D31A984641
:103C300054460E0007E64846184300D1B3E0501E34
:103C4000012A00D10DE18D4DAA4200D1A5E002006C
:103C500010E732000023002144E620213800891AB1
:103C600065468F408D40D040791E8F4105433D43CE
:103C70006746D740DB1994E7804A904200D1ECE0D8
:103C80003900494449459241634452429B18DD073B
:103C900049085B08984606000D43A5E64A46BD1A4A
:103CA000AF42894162464942D31A5B1A984654464C
:103CB000D1E56C07F9082143EB0804009DE64A466C
:103CC0001A4375D16146394314D1802300241B0364
:103CD000BCE64A46D51BA9458941624649429B1A22
:103CE0005B1A98460126AEE54A46D1085A071143A9
:103CF000DB08A7E66346F9085A0754461143DB0878
:103D0000A0E64A4613431D006B1E9D41C7E6140002
:103D10001E00203CE640202A05D04024A21A9340F1
:103D20004A461A4391464D466B1E9D41354378E7FE
:103D30004A461A4300D06BE66B07F9081943EB08B3
:103D400080E66146394354D06346F9085C07214355
:103D5000DB08040054E64A46BD1AAF428941624678
:103D60004942D31A5B1A9846040001266BE54A467D
:103D7000D51BA9458941624649429A1A521A904672
:103D8000120232D54A46BD1AAF42894162464942C3
:103D9000D31A5B1A9846040084E56346F9085A076B
:103DA0001143DB084EE6F90868070143EB0824E6F7
:103DB00062463A4300D198E64A46D1085A07114371
:103DC000DA0880231B031A4208D06046C5081D424A
:103DD00004D154462A00F908430719434B0FC90080
:103DE0005B07C908194313002CE64146294300D05C
:103DF000FAE500230A00002402E66B07F9081943DC
:103E0000EB08FDE56346F9085B07194363460400C8
:103E1000DB0817E63D004D4463444D458941984613
:103E20004942884443461B0200D4DDE54246144B18
:103E300001261A409046D7E510001E002038C640E3
:103E4000202A05D04020821A93404A461A439146C0
:103E50004D466B1E9D41354321E6020000230021A3
:103E600040E54A46D519BD428941634498464942D6
:103E70008844B3E50021014A0B0033E5FF07000049
:103E8000FFFF7FFFF0B54F464646D6469446914623
:103E90001A03120B184DC0B54C000F0392465A007E
:103EA000060080463F0B0120640DC90F520DDB0F49
:103EB000AC420AD0AA4203D0944201D157450DD05A
:103EC0001CBC90469946A246F0BD3D003543F7D153
:103ED000A242F5D1524665462A43F1D10120C84598
:103EE000EED1994206D0002CEAD13E433000461E66
:103EF000B041E5E70020E3E7FF070000F0B54E46DC
:103F000045465746DE4604001800E0B516001B0380
:103F10001B0B324D0F034A0099464300A446B0469E
:103F20003F0B520DC90F5B0DC00FAA4229D0AB4207
:103F300018D0002A2AD13C43A34665426541002B94
:103F400002D14C46264327D0002D15D1814228D0DE
:103F500002200139084001383CBC90469946A246EF
:103F6000AB46F0BD4D462E432FD1002AEED13C4347
:103F700065426541002DE9D00028EDD10120404285
:103F8000EAE73D00254320D19342EBD0002BDDD161
:103F90004C462643DAD1DBE75B460020002BDBD022
:103FA000D6E79A420ADCE7DB4F45D1D810D0002093
:103FB0004F45D1D20029E1D00800CDE74342584116
:103FC0000223404218400138C6E702204042C3E7BE
:103FD000C445BDD80020C445BED2EBE7FF070000B2
:103FE000F0B54E4645465746DE4604001800E0B59B
:103FF00016001B031B0B314D0F034A00994643006B
:10400000A446B0463F0B520DC90F5B0DC00FAA422C
:1040100011D0AB4214D0002A2FD13C43A3466542B5
:104020006541002B14D14C46264311D15B4600203C
:10403000002B17D010E03D00254312D193421CD134
:104040004D462E430DD1002A04D13C4365426541C3
:10405000002D0DD1814216D00220013908400138CF
:1040600000E002203CBC90469946A246AB46F0BD1B
:104070000028F7D101204042F4E7002BEAD14C465A
:104080002643E7D1E8E79A4206DD4342584102233E
:10409000404218400138E5E79A42E9DB4F45DBD85A
:1040A00006D000204F45DDD20029E3D00800D9E733
:1040B000C445D1D80020C445D4D2F5E7FF0700009D
:1040C000F0B557464E464546DE46E0B598460C03E9
:1040D0004B000600924687B0240B5B0DCF0F002BE0
:1040E0006CD0DD4A934200D186E0420FE4001443D5
:1040F000802212041443D94AC500944663440093B5
:10410000002399469B46434642461E03D20F5B005E
:1041100050469046360B5B0D00D178E0CE4A934274
:104120001DD0CE49420F8C4600996344F6008C4660
:10413000164380229C44120463461643C2000020AA
:1041400000930099434601318C4649467B400193D8
:104150000F2900D97EE0C24B890059588F4652463C
:10416000009B324300D056E1BB4900268C46634495
:10417000494600930223194389460220E1E743465A
:1041800001933400150083465B46022B5ED0032B5F
:1041900000D1F3E1012B00D018E10022002400251A
:1041A000019B12052243DB071A432800110007B0C8
:1041B0003CBC90469946A246AB46F0BD250005435F
:1041C00000D141E1002C00D1ADE1200000F014FE4F
:1041D000010002000B391D2310005B1A310035006D
:1041E00008388440D94085400C439E48831A009388
:1041F000002399469B4686E70500254300D01CE135
:10420000082200930223002491469B467BE75246F6
:10421000324300D10AE1002E00D176E1300000F0F7
:10422000EBFD02000B3A1D2301009B1A5246083990
:10423000DA408E40164352468A40009B8949181A3C
:1042400003008C466344002000937AE70024002595
:10425000814AA5E72F0C2D042D0C2B00110C120404
:10426000120C53439846130028007B439946484359
:104270004844834640460B00000C824658467B4328
:1042800050440293814506D99A4680235B029946A1
:10429000CA4453460293030C9B4643461B04000446
:1042A0001B0C9846030043440493330C99462B009F
:1042B0003604360C7343984633007B439A464B468C
:1042C0005D435F4343465544180C4019824503D96A
:1042D00080235B029A465744050CEB19059343462D
:1042E0001D042D0C00044019250C2404240C270067
:1042F00057436A4390462A003B0C9A464A4361431F
:10430000414451448344884503D980235B02984645
:1043100042443F040B0C3F0C0904C919270098467E
:104320004B4677435C436E435D433B0C9946A4196F
:104330004C4442440395A64204D980235B0298462C
:1043400045440395029B3F045B441E008342804129
:1043500023049846059B3F0C4744984676188E42A6
:104360008941474440423D18A846934649428A46FF
:10437000C3449F42BF4180458041039BDA44984635
:10438000534640427F420743240C934592418A455D
:1043900089413F19DC0D049B75021D43681E854150
:1043A0005346524249420A43BF184744F60D7F0222
:1043B00035435A023C431543FB0100D4C1E00121BF
:1043C0006A080D401543E207154364082649614415
:1043D000002956DD6B0709D00F222A40042A05D098
:1043E0002A1DAA42AD416D4264191500E30104D5AE
:1043F00080211E4AC900144061441D4A914200DDDB
:1044000024E76207ED08640249051543240B4A0DB1
:10441000C6E60197B8E6104A0320944663444A462C
:10442000009303231A43914652468AE649460123E4
:10443000194389460026012083E60C2200930323BA
:10444000050091469B465EE60423994600230093AF
:10445000013300249B4656E6FF07000001FCFFFFE6
:10446000F44E00100DFCFFFFFF030000FFFFFFFEF6
:10447000FE070000002380240025444A0193240302
:104480008EE60120401A382800DD86E61F285BDD15
:104490001F2223005242511ACB401900202803D07A
:1044A0003B4A6244944025436A1E95412A000A43D0
:1044B00007210D000024154011425BD00F2100247C
:1044C0001140042953D0111D914292415242A41827
:1044D0000A0023024BD501220024002560E6802338
:1044E0001B031C4209D01E4207D133431C03434621
:1044F0001500240B254A019352E68022120314432F
:104500002403224A240B01974AE600F075FC0300BD
:104510001A00153220301C2A00DC84E65646083B7F
:1045200000229E4089E600F067FC01000200153180
:1045300020321C2900DC4EE6340008380025844077
:1045400053E6009B9C4641E71249220061442E003D
:104550008D408A40C640691E8D4132432A43C44083
:104560005307B6D00F2111400429ACD1B1E765073C
:104570006402240BD2081543002211E680221203A4
:1045800014432403014A240B0AE6C046FF07000037
:104590003E0400001E040000F8B557464E4645464E
:1045A000DE460400E0B51F0010000B03620F4E0052
:1045B000CD0F5B0A39031343490AE200440F21433C
:1045C000C24C91469246C0007A008046760D520D4C
:1045D000FF0FA24200D1B4E001246740BB46BD42B8
:1045E00000D188E0B41AA446002C00DCB2E0002A16
:1045F00000D1C5E0B54A964200D18BE28022120478
:1046000011436246382A00DDA1E11F2A00DD16E2CF
:1046100020270C00BF1ABC400200A0466446B840E8
:10462000E240444614430200501E82416046C140AD
:1046300022435B1A49468C1AA145924152429B1A69
:10464000984643461B0200D417E143465B025B0ACF
:1046500098464346002B00D16CE1404600F0CCFB6D
:104660000200083A202120004346891A9340C8409E
:1046700094400343964200DD57E1961B711C1F29AD
:1046800000DDCBE1202218002600521A9440904011
:10469000CE40CB40621E94413043984600260443EE
:1046A000630709D00F232340042B05D0231DA34209
:1046B000A4416442A0441C0043461B0200D4DFE036
:1046C000824B01369E4200D1FBE04246804BE4081B
:1046D0001A401300710552075B0222431B0B490D60
:1046E0000905ED071943294310003CBC9046994643
:1046F000A246AB46F8BDB41AA446002C58DD002AE9
:1047000000D19EE0714A964200D13BE18022120422
:1047100011436246382A00DDC1E01F2A00DCBBE1FC
:104720000C00203AD44022006446202C04D04027BC
:104730003F1BB940084380464446611E8C411443E8
:10474000B1E00C0004432AD0BB46BD422DD0614CE1
:10475000A446B4446446002C5CD0941BA446002EAE
:1047600000D015E14D461D4300D1C3E1651E012C6B
:1047700000D10CE2554EB44200D1F8E1AC460EE156
:104780000A00024300D136E12200013A012C00D197
:10479000C6E14E4CA44500D1F4E0944631E7012433
:1047A0006740BB46BD4200D01CE74A4CA446B44417
:1047B0006446002C00D1CFE0941BA446002E00D10B
:1047C0005CE1424EB24200D1ECE180263604334334
:1047D0006446382C00DDB3E11F2C00DD38E22026D2
:1047E000361B1C00B4404F46A0466446E740444692
:1047F0003C434F46B7403E00771EBE4134436646B9
:10480000F340C918241884429B415B429846160025
:1048100088444EE0304A741C144200D0D6E04A4628
:104820001A43002E00D05BE1002A00D1A5E10A0066
:10483000024300D0BBE14A465907D2080A43DB08CD
:1048400027E00A00024300D174E12200013A012C62
:1048500005D01E4CA44500D194E0944659E7484445
:10486000484592415B1898460400524290444346A2
:1048700002261B0200D5C4E0013E630700D011E709
:104880004346B4465907E2080A43DB080F498C4502
:1048900040D061461B0349051B0B490D20E701432E
:1048A0000C00611E8C414C444C4592415242904652
:1048B000984443461B02E0D5044B01369E4200D08B
:1048C0009FE03100002300220AE7C046FF070000F6
:1048D000FFFF7FFF01F8FFFFFE070000002A00D165
:1048E00060E10A0002434DD04A465C07D2082243E9
:1048F0008024DB082403234207D0CE08264204D1BB
:104900005D463300C20849070A43510FD200D2085E
:1049100049070A431100194300D1C8E18021090366
:104920000B431B03D5491B0BDAE6D549B61A0B40DE
:104930009846B5E6200000F05FFA020018321F2A00
:1049400000DC8FE6230008388340002492E6084309
:104950000200501E82416DE6CA4C721C224200D0F9
:10496000ADE04A461A43002EB8D1002A00D158E1E2
:104970000A00024300D059E14A465907D2080A43C7
:10498000DB0886E74A465907D2080A43DB08C1E735
:10499000BA4DAA4200D11EE180252D042B43644666
:1049A000382C5DDC1F2C00DDD0E0202567462D1B58
:1049B0004E461C00FE40AC4034434E46AE403500EF
:1049C000FB406E1EB541C91A2C434EE04A46141AEC
:1049D000A1459241524290465F1A3A004746D21B87
:1049E0009046120200D58BE04246224300D030E6CA
:1049F000002300254DE74A465907D2080A43DB0841
:104A000044E742469E4B61081A40130001221440BD
:104A10000C43DA075B089846144341E61A001F3E30
:104A2000F2401600202903D04022511A8B401C432B
:104A3000621E944100233443984600261DE70C0073
:104A4000203AD44022006446202C04D040273F1B4B
:104A5000B940084380464446611E8C412243E9E543
:104A60004C4623431C00631E9C41041BA0429B41F7
:104A70005B42CB1A98465D461600E2E54E461E4361
:104A800000D1AEE0661E012C00D1FDE07B4FBC42A0
:104A900000D107E1B4469BE664462022121B0C00BD
:104AA000944007009040A0466446421E90416246F2
:104AB000E7404446D1403C4304435B18F3E66F4C67
:104AC000A24200D1D5E048445B184845894149429B
:104AD0005B18DC0740085B08984616000443CCE6E8
:104AE000002A00D082E00A00024340D18023002542
:104AF0001B0313E74B07C2081A435D46CB08C5E604
:104B00004A46841AA0429241CB1A52429B1A9846B6
:104B10005D469EE54A465907D2080A43DB08F9E696
:104B20004A46141AA14592415B1A52429B1A984672
:104B3000012686E54A465907D2080A43DB08A5E65E
:104B40004C4623431C00631E9C415BE665461E00E9
:104B5000203DEE40202C05D040252D1BAB404C467F
:104B60001C43A2465446631E9C4134437DE74B07D9
:104B7000C2081A435D46CB08CCE60A00024300D1C6
:104B800036E74B07C2081A435D46CB0881E64A4622
:104B9000841AA0429241CB1A52429B1A98465D4613
:104BA00001264EE54B07C2081A43CB08B2E64A4637
:104BB000141AA14592415F1A5242BA1A9046120243
:104BC0006BD54A46841AA0429241CB1A52429B1A94
:104BD00098465D4664E54B07C2081A435D46CB081C
:104BE00098E64B07C2081A43CB084FE60A00024377
:104BF00090D04A465C07D20814438022DB08120397
:104C0000134208D0CE08164205D1C0084907084310
:104C100004005D463300610FE2004907D2080A43F1
:104C200078E64B07C2081A43CB0832E648445B18C3
:104C300048459241984652429044434604001B0224
:104C400000D41AE642460E4B01261A40904614E65E
:104C500066461F00203EF740202C05D04026361B1C
:104C6000B3404C461C43A2465446631E9C413C4301
:104C7000C8E511000023002232E5C046FF0700000E
:104C8000FFFF7FFFFE0700004A461418844292414E
:104C90005B18984652429044E9E54246224300D1CF
:104CA000A6E6EAE54B07C2081A43CB0832E6002223
:104CB0000149130014E5C046FF07000070B5002845
:104CC00016D0C317C5185D40C40F280000F094F833
:104CD000114A121A0A2816DC03002E0015339E40D2
:104CE0000B23181AC54053052D032D0B5B0D03E054
:104CF00000240023002500261B052B43E407234343
:104D00003000190070BD0B38854053052D03002677
:104D10002D0B5B0DF0E7C0461E04000010B5041E0D
:104D200010D000F069F80F4B1B1A0A2811DC0B2277
:104D30002100121AD14015300A035B058440120B82
:104D40005B0D01E0002300221B0513432000190026
:104D500010BD22000B3882405B0512030024120BA9
:104D60005B0DF1E71E04000070B543004602C40F5E
:104D7000FE201B0E591C750A08420CD0E02292003E
:104D800094466D07360B63441B053343E407234306
:104D90002800190070BD002B14D1002D1BD0280055
:104DA00000F02AF80A281CDC0B232A001B1ADA4020
:104DB000030015339D400E4B12031B1A5B05160BA7
:104DC0005B0DE1E7002D09D0320B80263603094B3D
:104DD0006D071643D8E700230026D5E70026054BCC
:104DE000D2E703002A000B3B9A400025E3E7C046C8
:104DF00089030000FF0700001C2101231B049842C7
:104E000001D3000C10391B0A984201D3000A08395B
:104E10001B09984201D30009043902A2105C401812
:104E20007047C046040302020101010100000000B6
:104E30000000000010B5002903D1FFF7DDFF20308E
:104E400002E0081CFFF7D8FF10BDC04670B5002275
:104E50000C4B04000D00FEF731FB002804D12000AC
:104E6000290000F011F870BD064B00222000290037
:104E7000FFF792FB00F008F880231B069C46604475
:104E8000F1E7C0460000E0410A0030B5134C530082
:104E900009030500090B00205B0DD20FA34204DDBE
:104EA0000F48834202DD0F4BD01830BD80204003F5
:104EB00001430D48C01A1F2808DD0C48C31AD94009
:104EC0000B005842002AF0D11800EEE7084CC5400C
:104ED000A446634499400B002B43F2E7FE03000015
:104EE0001D040000FFFFFF7F3304000013040000D7
:104EF000EDFBFFFF54420010824100108241001080
:104F00007E41001088410010884100107444001058
:104F10007E41001088410010744400108841001048
:104F20007E41001012440010124400101244001080
:104F3000DE4400100FB4F0B54E46DE4657464546F7
:104F40000023E0B593B01CAE04CE09930192127811
:104F50000596002A01D100F0A6FC00259B469A4642
:104F600012E0013309AC019364196B1C099322719F
:104F70001F2B00D92CE1012294461D00E344019B24
:104F80001A78002A00D111E1019B252AE9D15B782A
:104F9000252B00D125E1583BDBB2202B00D9DAE0EC
:104FA000984A9B00D3589F463023974A09AC9046B5
:104FB0006A1C6519002722602B711F2A0BD84346F3
:104FC0000137DB5D002B11D025686A1C6519226052
:104FD0002B711F2AF3D9534620210AA823601DF004
:104FE00017F943460137DB5D002BEDD1534608220C
:104FF000002107A820CE0693FBF7D6FB0F2319004C
:10500000824A2940515CBB4406AF89463970290960
:1050100001D100F058FD1940515C7970290A01D185
:1050200000F08AFD1940515CB970290B01D100F0E4
:1050300088FD1940515CF970290C01D100F0E3FCA6
:105040001940515C3971290D01D100F089FD1940D9
:10505000515C7971290E01D100F085FD0B40D35CC4
:10506000BB712B0F01D100F08BFD0825D35CFB71C8
:105070007B19013B197823685A1CE31822601971C7
:105080001F2A01D900F03DFCAB1EF95C984623684D
:105090005A1CE318226019711F2A01D900F00DFC77
:1050A0004346002B54D0EB1EF95C984623685A1CEB
:1050B000E318226019711F2A01D900F02AFC434627
:1050C000002B45D02B1FF95C984623685A1CE31827
:1050D000226019711F2A01D900F03FFC4346002BC2
:1050E00036D06B1FF95C984623685A1CE31822607F
:1050F00019711F2A01D900F054FC4346002B27D018
:10510000AB1FF95C984623685A1CE318226019719A
:105110001F2A01D900F06CFC4346002B18D0EB1F6E
:10512000F95C984623685A1CE318226019711F2AFB
:1051300001D900F07BFC4346002B09D04946236887
:105140005A1CE318226019711F2A01D900F096FC3D
:10515000AB44256851E05B2309AC6A1C6519002744
:1051600022602B711F2A0BD8294B0137DB5D002BE6
:1051700012D015006A1C651922602B711F2AF3D901
:10518000534620210AA823601DF042F8204B013726
:10519000DB5D2268002BECD1019B150001330193EC
:1051A000019BBB441A78002A00D0EDE6002D04D004
:1051B00029000AA81DF02CF88344584613B03CBCC3
:1051C00090469946A246AB46F0BC08BC04B01847CE
:1051D000534620210AA809931DF01AF8099BCAE634
:1051E00004CE09AC6B1C6419099322711F2B00D9E2
:1051F00012E3012294461D00E344019B0233019314
:10520000BDE6C046FC5B0010E45B0010805C001053
:10521000E85B001053460822002107A810CE069331
:10522000FBF7C2FAD44A06AF0F2319002140515CA4
:1052300089463970210900D197E31940515C797092
:10524000210A00D1AAE31940515CB970210B00D1A9
:10525000BDE31940515CF970210C00D1DCE3194029
:10526000515C3971210D00D1EFE31940515C797126
:10527000210E01D100F00AFC0B40D35C240FBB715E
:1052800001D100F044FC135DFB71082398464346AE
:10529000FB18013B1A7809AC6B1C651909932A713C
:1052A0001F2B00D9E3E242462368951E795D5A1C04
:1052B000E318226019711F2A00D9D1E2002D49D0CC
:1052C00042462368D51E795D5A1CE3182260197185
:1052D0001F2A00D9D2E2002D3CD042462368151F78
:1052E000795D5A1CE318226019711F2A00D9CCE29B
:1052F000002D2FD042462368551F795D5A1CE318B4
:10530000226019711F2A00D9C6E2002D22D0424620
:105310002368951F795D5A1CE318226019711F2AB2
:1053200000D9C3E2002D15D042462368D51F795D10
:105330005A1CE318226019711F2A00D982E2002D3D
:1053400008D0494623685A1CE318226019711F2AA5
:1053500000D97EE22568C3444FE7330040CB0822E2
:1053600099465346002107A806AF0693FBF71CFA9F
:10537000002E00DA58E2002309AC02930A21300023
:10538000FDF778FF3031CBB230000A213B70039338
:10539000FDF7EAFE8046092E00D8A7E30A21FDF7B3
:1053A00069FF3031404679700A21FDF7DDFE804605
:1053B000632E00D8C3E30A21FDF75CFF303140467D
:1053C000B9700A21FDF7D0FEFA2380469B009E4269
:1053D00000D2BCE30A21FDF74DFF30314046F970A1
:1053E0000A21FDF7C1FE654B80469E4200D8B0E31E
:1053F0000A21FDF73FFF3031404639710A21FDF7A0
:10540000B3FE5F4B80469E4200D8A4E30A21FDF71D
:1054100031FF3031404679710A21FDF7A5FE594B25
:1054200080469E4200D8A1E30A21FDF723FF3031D8
:105430004046B9710A21FDF797FE534B80469E42C4
:1054400000D89BE30A21FDF715FF30314046F97182
:105450000A21FDF789FE4D4B80469E4200D895E318
:105460000A21FDF707FF3031397240460A21FDF766
:105470007BFE474B9E4200D88AE30A263030787282
:10548000BB19013B1A786B1C651923602A711F2B0D
:1054900000D928E22368B51E795D5A1CE318226002
:1054A00019711F2A00D910E2002D5ED02368F51E65
:1054B000795D5A1CE318226019711F2A00D937E25E
:1054C000002D52D02368351F795D5A1CE3182260E5
:1054D00019711F2A00D939E2002D46D02368751FA3
:1054E000795D5A1CE318226019711F2A00D967E2FE
:1054F000002D3AD02368B51F795D5A1CE31822604D
:1055000019711F2A00D96CE2002D2ED02368F51FD7
:10551000795D5A1CE318226019711F2A00D97EE2B6
:10552000002D22D035002368083D795D5A1CE31810
:10553000226019711F2A00D992E2002D15D0350082
:105540002368093D795D5A1CE318226019711F2AEE
:1055500000D99FE2002D08D0236803995A1CE31854
:10556000226019711F2A00D9DCE2029B25689C4643
:105570006644B3444E4640E6805C00100F270000AE
:105580009F8601003F420F007F969800FFE0F505DF
:10559000FFC99A3B534610CE0822002107A8069364
:1055A000FBF702F90A212000FDF764FE3031CBB28F
:1055B00006AF0A2120003B709846FDF7D5FD8146D5
:1055C000092C00D874E20A21FDF754FE3031484618
:1055D00079700A21FDF7C8FD8146632C00D8A8E246
:1055E0000A21FDF747FE30314846B9700A21FDF720
:1055F000BBFDFA2381469B009C4200D2A4E20A2113
:10560000FDF738FE30314846F9700A21FDF7ACFD50
:10561000DB4B81469C4200D8F2E10A21FDF72AFECD
:105620003031484639710A21FDF79EFDD54B814640
:105630009C4200D891E20A21FDF71CFE3031484619
:1056400079710A21FDF790FDCF4B81469C4200D82D
:105650008EE20A21FDF70EFE30314846B9710A216B
:10566000FDF782FDC94B81469C4200D883E20A21A6
:10567000FDF700FE30314846F9710A21FDF774FD4F
:10568000C34B81469C4200D87DE20A21FDF7F2FD22
:105690003031397248460A21FDF766FDBD4B9C4208
:1056A00000D877E20A239946303078724B46FB18CF
:1056B000013B1A7809AC6B1C651909932A711F2BE1
:1056C00000D917E14A462368951E795D5A1CE318F4
:1056D000226019711F2A00D9FEE0002D63D04A46CE
:1056E0002368D51E795D5A1CE318226019711F2AA0
:1056F00000D916E1002D56D04A462368151F795D62
:105700005A1CE318226019711F2A00D917E1002DD5
:1057100049D04A462368551F795D5A1CE318226018
:1057200019711F2A00D944E1002D3CD04A46236854
:10573000951F795D5A1CE318226019711F2A00D940
:1057400048E1002D2FD04A462368D51F795D5A1CA9
:10575000E318226019711F2A00D96FE1002D22D0B1
:105760004D462368083D795D5A1CE3182260197183
:105770001F2A00D97BE1002D15D04D462368093D35
:10578000795D5A1CE318226019711F2A00D988E13B
:10579000002D08D0414623685A1CE3182260197175
:1057A0001F2A00D9B7E12568CB4426E508CE9846E4
:1057B0001B78002B00D120E5320009AC464690460C
:1057C0006A1C6519002722602B711F2A0AD801372D
:1057D000F35D002B11D015006A1C651922602B7136
:1057E0001F2AF4D9534620210AA8013723601CF050
:1057F0000FFDF35D2268002BEDD146461500BB443A
:10580000FBE453460822002107A810CE069306AFFA
:10581000FAF7CAFF604A07E5534620210AA8099310
:105820001CF0F6FC099BE4E42D2209AC6B1C651905
:1058300009932A711F2B00D90AE11D00012376422A
:1058400002939BE5534620210AA823601CF0E0FC4C
:1058500075E5534620210AA823601CF0D9FC79E5A0
:10586000534620210AA823601CF0D2FC26E55346AB
:1058700020210AA809931CF0CBFC14E553462021F3
:105880000AA823601CF0C4FC25E5534620210AA881
:1058900023601CF0BDFC2BE5534620210AA82360A1
:1058A0001CF0B6FC31E500239B4686E453462021DC
:1058B0000AA823601CF0ACFC34E5534620210AA85A
:1058C00023601CF0A5FCFFF7EBFB534620210AA840
:1058D00023601CF09DFCE7E5534620210AA82360C5
:1058E0001CF096FCF9E6534620210AA823601CF020
:1058F0008FFCCFE5534620210AA809931CF088FCB1
:10590000E0E6534620210AA823601CF081FCFFF743
:10591000BBFB534620210AA823601CF079FCFFF74B
:10592000CEFB534620210AA823601CF071FCE1E65F
:10593000534620210AA823601CF06AFCC0E55346A8
:1059400020210AA823601CF063FCE0E653462021D6
:105950000AA823601CF05CFCBEE5534620210AA87F
:1059600023601CF055FCFFF7B9FB3A7809AC6B1CBF
:10597000651909932A711F2B48D801239846E9E439
:105980000F2700009F8601003F420F007F9698007E
:10599000FFE0F505FFC99A3B905C00100223984692
:1059A00075E4534620210AA823601CF031FCFFF760
:1059B000A4FB534620210AA823601CF029FCB3E66F
:1059C000534620210AA823601CF022FC90E5032303
:1059D00098465CE4534620210AA823601CF018FC7A
:1059E000AFE6534620210AA823601CF011FC8BE58A
:1059F000534620210AA823601CF00AFCFFF78CFB09
:105A00000423994652E60425FFF732FB09910AA8C0
:105A100020211CF0FDFBB0E70423984637E45346F1
:105A200020210AA823601CF0F3FB79E553462021CE
:105A30000AA823601CF0ECFBFFF77DFB53462021F6
:105A40000AA823601CF0E4FB88E6052398461EE4C0
:105A5000534620210AA809931CF0DAFB099BECE6C7
:105A6000534620210AA823601CF0D2FB65E553466B
:105A700020210AA823601CF0CBFB7CE653462021A2
:105A80000AA823601CF0C4FBFFF762FB06239846BC
:105A9000FFF7FDFB534620210AA823601CF0B8FB4A
:105AA00058E5534620210AA823601CF0B1FB6FE69D
:105AB0003A7809AC6B1C651909932A711F2B6CD8B5
:105AC000012399466FE6236838785A1CE318226050
:105AD00018711F2A02D80125FFF73AFB21600AA896
:105AE00020211CF095FB0125FFF732FB3A786B1C57
:105AF000651923602A711F2B01D8012635E553460D
:105B000020210AA8236001261CF082FB2DE5072333
:105B10009846FFF7BCFB534620210AA823601CF0DF
:105B200077FB40E6534620210AA823601CF070FB57
:105B30001BE502239946B9E50225FFF799FA0226EB
:105B40009EE40325FFF794FA03239946AEE5032666
:105B500096E4042694E4052692E405239946A5E5F7
:105B60000525FFF785FA0625FFF782FA062687E462
:105B7000062399469AE50723994697E507267FE489
:105B80000725FFF775FA082399468FE5082677E47D
:105B9000092675E40923994688E5534620210AA879
:105BA00009931CF035FB8BE711DF704710DF70475E
:105BB00000B585B00293079B0191039301A9069B51
:105BC000FFF7F2FF05B000BD12DF70470BDF704733
:105BD00013DF704715DF704717DF704718DF704716
:105BE0000CDF7047307800005B556E737570706F16
:105BF00072746564205461675D00000002580010F3
:105C000056510010565100105651001056510010B8
:105C100056510010565100105651001056510010A8
:105C20005651001056510010E05100105A53001008
:105C30005651001056510010565100105651001088
:105C40005A53001056510010565100105651001072
:105C5000565100105651001056510010A84F001018
:105C60005651001056510010AC57001056510010FC
:105C70009455001056510010565100101452001047
:105C800030313233343536373839616263646566B2
:105C90003031323334353637383941424344454662
:105CA00030B5144C87B02369A568082B1FD1A369B0
:105CB000042B1CD104330021606804AAFFF78AFF7B
:105CC0002369834213D1A3690221606803AAFFF705
:105CD00081FFA36983420AD1039B28000193636972
:105CE0000093049A059B00F01BF907B030BD81209A
:105CF0004042FAE700100108F0B5CE46474680B5AD
:105D00008DB000F0FFF8002829D106AB9846802717
:105D10006B4C08AE8021012009064042FFF756FF78
:105D20000300C2061CD4820653D4420647D40200A4
:105D30003A409146384200D09AE080204000034229
:105D400026D02100FFF744FF2568002D21DAAB1C87
:105D500000DA8CE049466068FFF740FFDAE7FEE7CB
:105D600021001020FFF734FF2368002B06DA0233EE
:105D70000DDB00216068FFF731FFCBE7002B75D109
:105D8000FFF78EFF01006068FFF728FFC2E7FEE71C
:105D9000FEE7002D00D08AE0236A9946042B00D04C
:105DA0008BE000F015F94B4608903200290060683E
:105DB000FFF712FF29006068FFF710FFAAE7210034
:105DC0004020FFF705FF216800290CDA8B1CD0DA90
:105DD000FEE721002020FFF7FBFE2168002920DAE2
:105DE0008B1CC6DAFEE7002962D12369082B64D137
:105DF000226A0C2A61D142466068FFF7EBFE2369F4
:105E000098425AD1069A079B0096A06800F0BAF80B
:105E1000051ECFD101003200236A6068FFF7DCFE67
:105E2000C8E7002942D12369082B43D16269042ABB
:105E300040D132006068FFF7CDFE2369984239D126
:105E400063690121606805AAFFF7C4FE636998428F
:105E500030D143460293236A0193059B0093A068C7
:105E6000089A099B00F078F8010074E78FE7FEE7D5
:105E700021003800FFF7ACFE2168002903DA8B1CF3
:105E800000DB76E7FEE7002913D12369082B11D147
:105E900032006068FFF79EFE236998420AD1089A93
:105EA000099BA06800F07EF8010054E79AE7DEE75E
:105EB0008EE7E7E7812149424DE781256D4279E789
:105EC00000100108084B10B502000C0058680B00C8
:105ED0000121FFF77FFE201A4442604181244042A5
