:020000041000EA
:1004000000080108910400100D000000F5400210E2
:1004100000000000000000000000000000000000DC
:10042000000000000000000000000000DD4002109D
:100430000000000000000000A1400210FD040010B8
:10044000FD040010FD400210FD040010FD0400102A
:10045000FD040010FD040010FD040010713F0210A7
:10046000FD040010FD040010FD040010FD04001048
:10047000FD040010FD040010FD040010FD04001038
:100480007047EFF3108072B6704780F310887047A2
:10049000FFF7F6FF72B6144C144DAC4209DA21682E
:1004A0006268A368043B02DBC858D050FAE70C34FA
:1004B000F3E70F4B0F4CA34208DA19685A68002083
:1004C000043A01DB8850FBE70833F4E723F0F8FE39
:1004D000EFF314800221084380F31488064880F368
:1004E000098820F02DFFFEE71C05001070050010A4
:1004F00070050010C805001000100108FEE7FEE7B7
:1005000000B504207146084202D0EFF3098001E0F3
:0C051000EFF30880043022F097FEFEE7B5
:10051C00805E021080D50108F0000000405E0210E1
:10052C000010010800000000405E0210802C010841
:10053C0000000000405E0210003401084000000082
:10054C00805E021000C4010800000000805E0210F2
:10055C0080C8010800000000705F021000F0020863
:04056C0098040000EF
:1005700070D60108081400000010010840120000A5
:1005800080220108000A0000802C010840020000BF
:10059000002F01080005000040340108806F0000B2
:1005A00000A401080020000000C401082000000091
:1005B00080C401080004000080C801086002000037
:0805C00000CB0108800A0000D5
:0805C80000000000000000002B
:1005D000000000000000000000000000000000001B
:1005E000000000000000000000000000000000000B
:1006000010B5034B0A000100186800F055F810BD42
:1006100004D60108084B10B50400002B02D00021BD
:1006200000E000BF054B1868836A002B00D0984794
:10063000200024F0F3FCC046000000004417001026
:1006400010B5034B0100186800F044F810BDC04617
:1006500004D6010830B500240139A24201D100209E
:1006600005E0035D01340D5DAB42F6D0581B30BD93
:10067000002310B59A4200D110BDCC5CC4540133A4
:10068000F8E710B5884202D98B18984203D30023AB
:1006900007E08B5C8354013AFBD210BDCC5CC454A0
:1006A00001339A42FAD1F8E703008218934200D14D
:1006B000704719700133F9E74A4370B5110015000E
:1006C00000F052F8041E03D02A000021FFF7ECFFCF
:1006D000200070BD70B50500002910D00C1F2368E4
:1006E000002B00DAE418280000F06EFC1D4A1368A5
:1006F000002B05D163601460280000F06DFC70BD14
:10070000A34208D9216860188342F3D118685B6856
:1007100041182160EEE71A005B68002B01D0A3426C
:10072000F9D911685018A0420BD120680918501847
:1007300011608342E0D118685B6841181160536012
:10074000DAE7A04202D90C232B60D5E721686018B4
:10075000834203D118685B6841182160636054606C
:10076000CAE7C04658EA0108F8B50323CD1C9D43EB
:10077000083506000C2D1FD20C25A9421ED83000CA
:1007800000F022FC25490A681400002C1AD1244FDD
:100790003B68002B04D12100300000F0D9F838600C
:1007A0002900300000F0D4F8431C2BD10C2330007A
:1007B000336000F011FC03E0002DDEDA0C2333601F
:1007C0000020F8BD23685B1B19D40B2B03D92360D1
:1007D000E418256003E06368A2420ED10B6030008C
:1007E00000F0FAFB200007220B30231D9043C21AB1
:1007F0009842E6D01B1AA350E3E75360EFE72200CC
:100800006468C2E70323C41C9C43A042E1D0211AC0
:10081000300000F09DF8431CDBD1C7E758EA01081F
:100820005CEA01080FB40B4B13B51C68002C05D013
:10083000A369002B02D1200000F0B6FA05AB20001E
:10084000049AA168019300F0F7FB16BC08BC04B041
:100850001847C04604D6010870B505000E000028F0
:1008600004D08369002B01D100F09EFAAB69AC681B
:10087000002B02D1280000F097FA2D4B9C4222D188
:100880006C68636EDB0705D4A3899B0502D4A06D59
:1008900000F02BFBA3891B0702D52369002B29D16C
:1008A0002100280000F0DAF8002823D001256D424D
:1008B000636EDB0705D4A3899B0502D4A06D00F00D
:1008C00015FB280070BD1B4B9C4201D1AC68D8E7DA
:1008D000194B9C42D5D1EC68D3E70136A360002BBD
:1008E00004DAA2699A4216DC0A2914D023685A1C39
:1008F00022601970A3683178013B0029EDD1A36013
:10090000002B0FDA280022000A3100F051F80A25E6
:10091000431CCDD1CAE72200280000F049F8431C4F
:10092000E8D1C3E70A2523685A1C22601D70BFE77F
:1009300068170010881700104817001010B5034BF7
:1009400001001868FFF788FF10BDC04604D60108F3
:10095000002370B5064D040008002B6024F050FB06
:10096000431C03D12B68002B00D0236070BDC04610
:1009700074EA01080023C25C0133002AFBD1581E2F
:1009800070470A7830B5002A0CD130BD9A4208D1A0
:100990000123CC5C002CF8D0C55CA54201D1013309
:1009A000F7E701300378002BF0D11800EDE70000E5
:1009B000F8B505000E001400002804D08369002B50
:1009C00001D100F0F1F9224B9C422ED16C68A36951
:1009D000A360A3891B0732D52369002B2FD023687E
:1009E0002269F7B2981A6369F6B2834205DC2100E6
:1009F000280000F037F9002827D1A3680130013B17
:100A0000A36023685A1C22601F706369834204D06C
:100A1000A389DB0707D50A2E05D12100280000F0A5
:100A200021F9002811D13000F8BD0A4B9C4201D1B8
:100A3000AC68CCE7084B9C42C9D1EC68C7E7210001
:100A4000280000F00BF80028C9D001267642EAE71A
:100A5000681700108817001048170010374B70B542
:100A60001D6806000C00002D05D0AB69002B02D1DB
:100A7000280000F099F9324B9C420FD16C680C238E
:100A8000E25E93B211072DD4D90611D409230120B7
:100A9000336037331343A381404270BD294B9C42DE
:100AA00001D1AC68EBE7284B9C42E8D1EC68E6E763
:100AB0005B0713D5616B002908D0230044339942AA
:100AC00002D03000FFF706FE002363632422A389CF
:100AD0009343A38100236360236923600823A289D1
:100AE0001343A3812369002B0BD1A0218022A3896A
:100AF000890092000B40934203D02100300000F0A7
:100B00001FFA0C22A35E01201A0099B20240034290
:100B10000FD00022A26062695242A26100202269C5
:100B20008242BAD10A06B8D540221343A3810138C4
:100B3000B3E7880700D46269A260EFE704D6010832
:100B4000681700108817001048170010F7B58B8938
:100B500005000C001A075FD44A68002A04DC0A6CFE
:100B6000002A01DC0020FEBDE76A002FFAD0002237
:100B700080212E682A601A0049010A400B4234D0B5
:100B8000606DA3895B0706D56368C01A636B002B91
:100B900001D0236CC01A0200216A00232800E76AF2
:100BA000B847A189431C06D12B681D2B31D82C4A8C
:100BB000DA40D3072DD50023636023692360CB047B
:100BC00005D5431C02D12B68002B00D16065616BF9
:100BD0002E600029C6D023004433994202D0280059
:100BE000FFF778FD00206063BDE701232800216A3C
:100BF000B847431CC5D12B68002BC2D01D2B01D098
:100C0000162B01D12E60ADE74023A2891343A381A7
:100C1000A9E740230B43FAE70F69002FA2D00A6827
:100C20000F60D21B019200229B0700D14A69A2608B
:100C3000019B002B00DC95E73A002800019B216A0C
:100C4000A66AB047002806DC40230120A289404262
:100C50001343A38187E7019B3F181B1A0193E7E722
:100C6000010040200B6970B505000C00002B02D17B
:100C70000025280070BD002804D08369002B01D115
:100C800000F092F8144B9C421BD16C680C22A35EBE
:100C9000002BEDD0626ED20704D49B0502D4A06D68
:100CA00000F023F928002100FFF750FF636E0500D4
:100CB000DB07DED4A3899B05DBD4A06D00F016F919
:100CC000D7E7064B9C4201D1AC68DFE7044B9C425E
:100CD000DCD1EC68DAE7C04668170010881700100E
:100CE00048170010002310B50400036043608360C0
:100CF000818143661900C2810361436183610822D7
:100D00005C30FFF7D1FC054B6362054B2462A362A4
:100D1000044BE362044B236310BDC046B1150010C1
:100D2000D9150010111600103D16001010B502491B
:100D300000F0BAF810BDC046650C001070B568250B
:100D40004A1E55430E0029007431FFF70DFD041EA5
:100D500008D000212A00016046600C30A060683293
:100D6000FFF7A2FC200070BD10B5024800F0BDF8EE
:100D700010BDC04670EA010810B5024800F0B6F890
:100D800010BDC04670EA010810B5024800F0ADF889
:100D900010BDC0466BEA010810B5024800F0A6F885
:100DA00010BDC0466BEA010813B50400FFF7ECFF65
:100DB000A369002B02D0FFF7EFFF13BDA364E36428
:100DC0002365134B134A1B68A2620193A34201D10E
:100DD0000123A361200000F01FF86060200000F0F4
:100DE0001BF8A060200000F017F800220421E0604A
:100DF0006068FFF777FF01220921A068FFF772FF03
:100E000002221221E068FFF76DFF0123A361D2E700
:100E1000441700102D0D0010F8B50700FFF7A4FFD0
:100E20001F4B1E68B369002B02D13000FFF7BCFFD7
:100E30004836B4687368013B04D53368002B22D070
:100E40003668F6E70C22A55E002D1AD12000154B5E
:100E50005830E360656600F047F8FFF78DFF20002B
:100E6000082229002560A560656025616561A5618E
:100E70005C30FFF719FC6563A563A564E564200099
:100E8000F8BD6834D7E704213800FFF757FF041E88
:100E90003060D5D1FFF770FF0C233B60EFE7C04611
:100EA000441700100100FFFFF7B5040006000027FB
:100EB000019148346368A5680093009B013B00934F
:100EC00004D52468002CF5D13800FEBDAB89012B78
:100ED00008D90E22AB5E013304D029003000019BFB
:100EE000984707436835E8E7704770477047000048
:100EF00070B50E001D000E23C95E140096B00029C7
:100F000007DA00232B60B3891B0611D48023DB0092
:100F10000FE06A4600F0BEFB0028F2DBF0230199E7
:100F20001B021940054BC9184B4259412960EDE796
:100F300040230020236016B070BDC04600E0FFFFD4
:100F4000F7B502268B8905000C00334206D023003A
:100F500047332360236101236361F7BD6A4601AB18
:100F6000FFF7C6FF009907002800FFF7FDFB0028E8
:100F700008D10C22A35E9A05EFD4032293431E43AB
:100F8000A681E4E70F4BAB628023A2892060134364
:100F9000A381009B20616361019B002B0DD0280081
:100FA0000E23E15E00F088FB002806D00322A3890F
:100FB00093431A0001231343A381A0890743A78108
:100FC000CBE7C0462D0D001010B50248FFF78DFF8E
:100FD00010BDC0466CEA010810B50248FFF786FF55
:100FE00010BDC0466CEA0108936810B5013B9360E0
:100FF000002B04DA9469A34207DB0A2905D01368A1
:10100000581C10601970080010BDFFF7D1FC0100DA
:10101000F9E7F8B506000F001400D518AC4201D16D
:10102000002007E021783A003000FFF7DDFF0134AF
:10103000431CF3D1F8BD0000F0B5A1B006000C00D0
:101040001F000392002804D08369002B01D1FFF711
:10105000ABFE8E4B9C421CD17468636EDB0705D4DB
:10106000A3899B0502D4A06DFFF73FFFA3891B074F
:1010700002D52369002B1DD121003000FFF7EEFCC3
:10108000002817D0636EDB070DD50120404221B048
:10109000F0BD7F4B9C4201D1B468DEE77D4B9C42A2
:1010A000DBD1F468D9E7A3899B05EED4A06DFFF7E7
:1010B0001DFFEAE7002308AD6B6120336B76103328
:1010C000AB760797039F3B78002B01D0252B4ED1A1
:1010D000039BFB1A0593039B9F420DD0059B2100A8
:1010E0003000039AFFF795FF431C00D1B5E06A6911
:1010F000059B944663446B613B78002B00D1ACE0C8
:1011000001227B1C0393002352426A6004A95432DB
:1011100052182B60EB60AB601370AB65039B05222C
:1011200019785D4800F0EEFA039B5F1C002820D17F
:101130002A68D30604D5532304A95B18202119700B
:10114000130704D5532304A95B182B211970039BA3
:101150001B782A2B16D00021EB68039F3A78781C65
:10116000303A8446092A4FD9002911D117E00137B6
:10117000A9E7494B2A68C01A0123834013432B6017
:101180000397CBE7079B191D1B680791002B01DB19
:101190000B9304E05B42EB60022313432B603B782C
:1011A0002E2B0AD17B782A2B37D1079B02371A1DA9
:1011B0001B680792002B2DDB0993032239783748EF
:1011C00000F0A0FA002807D0344B2A68C01A402348
:1011D0008340134301372B6039787B1C062230484B
:1011E0000393297600F08EFA002845D02D4B002B72
:1011F00027D10722079B07339343083307936B6973
:10120000049A9B186B615DE70A214B4367469B1864
:101210000939A3E701235B42CEE700231A00013717
:101220006B603978781C30398446092903D9002B42
:10123000C3D00992C1E70A235A4367465218093BB3
:10124000EFE707AB0093220029003000164B00E0C7
:1012500000BF0490049B0133D1D1636EDB0705D43A
:10126000A3899B0502D4A06DFFF740FEA3895B060E
:1012700000D50AE70D980AE707AB00932200290082
:101280003000094B00F082F8E3E7C0466817001011
:101290008817001048170010A8170010AE1700108C
:1012A000B21700100000000013100010F7B5150071
:1012B00001938A680B690C000090934200DA1300D6
:1012C00022002B6043321278002A01D001332B60B8
:1012D00023689B0602D52B6802332B602268062305
:1012E00017001F401A4227D0230043331B785A1E91
:1012F00093412268920630D4220001990098089EFA
:101300004332B047431C25D0062320682A68E16891
:1013100000250340042B03D18D1AEB43DB171D403E
:10132000A3682269934201DD9B1AED180027BD4294
:1013300020D1002010E00137E3682A689B1ABB42E5
:10134000D2DD2200012301990098089E1932B0478E
:10135000431CF0D101204042FEBD3020E118433152
:10136000087021005A1C45310978A2184332023313
:101370001170C1E72200012301990098089E1A32DA
:10138000B047431CE6D00137D1E70000F0B58BB081
:1013900006920A0043320793059004920A7E0C00DD
:1013A000109B782A06D8622A08D8002A00D1C0E00B
:1013B000582A52D026004236327022E0100063389C
:1013C0001528F7D801F084FE16001F00F6FFF6FF7F
:1013D000F6FFF6FF1F00F6FFF6FFF6FFF6FFA80088
:1013E00036009A00F6FFF6FFB900F6FF3600F6FF6A
:1013F000F6FF9E0026001A684236111D1960136818
:1014000033700123A7E0086819680A1D05060BD58B
:101410000D681A60002D03DA2D23049A6D421370B3
:10142000614B0A27039332E00D681A604106F1D53B
:101430002DB2EFE70D681968081D18602E0601D55A
:101440000D6803E06D06FBD50D68ADB2564B0A275B
:1014500003936F2A17D1082715E045310A70524AC5
:1014600003921A68216820CA1A60080650D5CB0773
:1014700002D52023194321601027002D03D12023FA
:1014800022689A4322602300002243331A70636863
:10149000A360002B03DB0422216891432160002D0F
:1014A00002D1049E002B0CD0049E2800390001F0CC
:1014B000E1FB039B013E5B5C33702B0005009F4208
:1014C000F3D9082F09D12368DB0706D563682269A1
:1014D000934202DC3023013E3370049B9B1B23614B
:1014E000079B210000930598069B09AAFFF7DEFEE3
:1014F000431C35D1012040420BB0F0BD20220968C9
:101500000A4322602200782145321170274AA7E75A
:101510004806ACD5ADB2AAE71A680D68101D496936
:10152000186013682E0601D5196002E06D06FBD520
:1015300019800023049E2361D2E71A68111D1960E7
:10154000166800213000626800F0DCF8002801D045
:10155000801B6060636823610023049A1370BFE7F7
:101560002369320006990598079DA847431CC1D0FE
:1015700023689B0715D4099BE0689842BCDA1800E1
:10158000BAE72200012306990598079E1932B04751
:10159000431CAFD00135E368099A9B1AAB42F0DCDB
:1015A000E9E70025F7E7C046B9170010CA17001091
:1015B00070B50C000E25495F00F0B0F8002803DB81
:1015C000636D1B18636570BDA389024A1340A38134
:1015D000F9E7C046FFEFFFFFF8B51F008B89050054
:1015E0000C001600DB0505D50E23C95E0022022380
:1015F00000F074F8A389054A28001340A381320043
:101600000E23E15E3B0000F01FF8F8BDFFEFFFFF87
:1016100070B50C000E25495F00F060F8A389421CEC
:1016200003D1054A1340A38170BD802252011343A8
:10163000A3816065F8E7C046FFEFFFFF10B50E23FA
:10164000C95E00F015F810BD70B504000800110067
:101650001A000023054D2B6020F0D6FA431C03D15D
:101660002B68002B00D0236070BDC04674EA0108CF
:10167000002370B5064D040008002B6023F098FC91
:10168000431C03D12B68002B00D0236070BDC046E3
:1016900074EA0108002370B5064D0400080011002B
:1016A0002B6023F08DFC431C03D12B68002B00D052
:1016B000236070BD74EA0108002370B5064D040074
:1016C00008002B6023F084FC431C03D12B68002B03
:1016D00000D0236070BDC04674EA010870B50400F4
:1016E000080011001A000023054D2B6023F078FC40
:1016F000431C03D12B68002B00D0236070BDC04673
:1017000074EA0108C9B28218904201D100207047E2
:1017100003788B42FBD00130F6E7000070B504007F
:10172000080011001A000023054D2B6023F060FC17
:10173000431C03D12B68002B00D0236070BDC04632
:1017400074EA010808D6010800000000000000004B
:101750000000000000000000000000000000000089
:101760000000000000000000000000000000000079
:101770000000000000000000000000000000000069
:101780000000000000000000000000000000000059
:101790000000000000000000000000000000000049
:1017A0000000000000000000232D302B2000686C9A
:1017B0004C00656667454647003031323334353674
:1017C00037383941424344454600303132333435AD
:1017D00036373839616263646566000005DF70473B
:1017E0000020FBE706DF70470EDFFEE70EDFFEE7B7
:1017F0000020704730B595B007AD040034220021B9
:101800002800FEF751FF3423012104938020323B4E
:1018100005940395069302F0A1FA041E0FDD01233F
:10182000019305AB00930021012303AA02F098FA6B
:101830000500200002F0A0FA280015B030BD842574
:101840006D42F9E7F0B599B014000500302203911C
:101850000CA80021FEF728FF3423089303AB09935B
:10186000042301270BAE0A930121023B802005943B
:101870000B9707960693756102F070FA041E0EDD51
:1018800005AB009300210223019707AA02F068FA32
:101890000500200002F070FA280019B0F0BD842580
:1018A0006D42F9E7862040427047C04630B593B09C
:1018B00004003022002106A8FEF7F6FE022305AD43
:1018C0000593012132338020AC800395049302F00C
:1018D00045FA041E0EDD002300210193009303AAA4
:1018E000013302F03DFA0500200002F045FA28001D
:1018F00013B030BD84256D42F9E7C046F0B5C64649
:1019000000B594B080460F0015000021302208A8D1
:101910001C00FEF7C9FE03230793434607AEB380BE
:101920003423012180200694039604930595B76023
:1019300002F014FA041E10DD00230021019300932D
:1019400003AA023302F00CFA0500200002F014FA98
:10195000280014B004BC9046F0BD84256D42F7E722
:1019600030B593B004003022002106A8FEF79CFE9B
:10197000042305AD0593012130338020AC8003950D
:10198000049302F0EBF9041E0EDD00230021019305
:10199000009303AA013302F0E3F90500200002F0EE
:1019A000EBF9280013B030BD84256D42F9E7C0463D
:1019B000F0B597B0140006000D00302200210AA8EF
:1019C000FEF772FE052309932F3309AF049301211B
:1019D000303B80200794BE800397059506930893BB
:1019E00002F0BCF9041E0FDD0223019305AB009346
:1019F0000021012303AA02F0B3F90500200002F040
:101A0000BBF9280017B0F0BD84256D42F9E7C04648
:101A1000F0B5C64600B594B0140006000D003022A3
:101A2000002108A89846FEF73FFE062307AF07935C
:101A300001212E3380200694BE80039704930595E0
:101A400002F08CF9041E14DD0123019305AB009311
:101A500003AA0123002102F083F94346069A0500F8
:101A60001A60200002F088F9280014B004BC9046E7
:101A7000F0BD84256D42F7E7F0B5C64600B594B0D9
:101A8000140006000D003022002108A89846FEF739
:101A90000BFE072307AF079301212D338020069407
:101AA000BE8003970493059502F058F9041E14DDD7
:101AB0000123019305AB009303AA0123002102F047
:101AC0004FF94346069A05001A60200002F054F9C7
:101AD000280014B004BC9046F0BD84256D42F7E7A1
:101AE000F0B50E2699B06E44140005003022318006
:101AF0000CA80021FEF7D8FD08230B932C33069386
:101B0000323B0BAF089301210A3380200994BD803A
:101B1000059707960A9302F021F9041E0EDD0023B3
:101B200000210193009305AA033302F019F905007F
:101B3000200002F021F9280019B0F0BD84256D4283
:101B4000F9E7C04606C070470068704740687047B4
:101B500070B594B00C0005003022002108A8FEF7F3
:101B6000A3FD092307932B3307AE04930121283BE0
:101B700080200594B5800396069302F0EFF8041ECA
:101B80000EDD002300210193009303AA023302F02B
:101B9000E7F80500200002F0EFF8280014B070BD4F
:101BA00084256D42F9E7C04670B594B00C0005007D
:101BB0003022002108A8FEF777FD0A2307932A3375
:101BC00007AE04930121283B80200594B58003963D
:101BD000069302F0C3F8041E0FDD0123019305AB49
:101BE00000930021012303AA02F0BAF805002000A7
:101BF00002F0C2F8280014B070BD84256D42F9E7E8
:101C000070B594B00C0005003022002108A8FEF742
:101C10004BFD0B230793293307AE04930121303B7F
:101C200080200594B5800396069302F097F8041E71
:101C30000FDD0123019305AB00930021012303AACB
:101C400002F08EF80500200002F096F8280014B08B
:101C500070BD84256D42F9E7F0B5C64600B596B073
:101C600004000E001500002130221F000AA809AB55
:101C70009846FEF719FD0C23099343462268039307
:101C80009A613423012104938020303B059406930C
:101C90000796089502F062F8041E13DD02230193F3
:101CA00005AB00930021012303AA02F059F8089B19
:101CB00005003B60200002F05FF8280016B004BC6D
:101CC0009046F0BD84256D42F7E7C046F0B597B069
:101CD00004000E001500002130220AA8FEF7E4FCE3
:101CE0000D230993236809AFBB61342301210693B7
:101CF0008020303B0394059707960895049302F0E3
:101D00002DF8041E0FDD0123019303AB0093002186
:101D1000022305AA02F024F80500200002F02CF8A6
:101D2000280017B0F0BD84256D42F9E7F0B595B0F5
:101D300004000F0016000021302208A8FEF7B4FCB2
:101D40000E230793236807ADAB613423012104936D
:101D50008020303B0594AF80039506932E6101F0FF
:101D6000FDFF041E0FDD0123019305AB009300214D
:101D7000012303AA01F0F4FF0500200001F0FCFF9D
:101D8000280015B0F0BD84256D42F9E7F0B595B097
:101D900004000F0016000021302208A8FEF784FC82
:101DA0000F230793236807ADAB613423012104930C
:101DB0008020303B0594AF80039506932E6101F09F
:101DC000CDFF041E0FDD0123019305AB009300211D
:101DD000012303AA01F0C4FF0500200001F0CCFF9D
:101DE000280015B0F0BD84256D42F9E7F0B5C64670
:101DF00000B598B004000F0016001D0030220BAB98
:101E000000210CA89846FEF74FFC10230B93434685
:101E1000226803939A6134230493303B08931E9BFA
:101E20000121802007940597069609950A9301F0F1
:101E300095FF041E14DD0223019307AB009303AA50
:101E40000223002101F08CFF0A9A1F9B05001A60F3
:101E5000200001F091FF280018B004BC9046F0BDAE
:101E600084256D42F7E7C04630B595B004003022B6
:101E7000002108A8FEF718FC11230793236807AD7B
:101E8000AB613423012104938020303B05940395FA
:101E9000069301F063FF041E0FDD0123019305ABE0
:101EA00000930021012303AA01F05AFF050020003E
:101EB00001F062FF280015B030BD84256D42F9E7BE
:101EC000F0B5C64600B596B004000E00150000211E
:101ED00030221F000AA809AB9846FEF7E5FB122343
:101EE00009934346226803939A61342301210493A2
:101EF0008020303B059406930796089501F02EFF4D
:101F0000041E13DD0223019305AB0093002101237E
:101F100003AA01F025FF089B05003B60200001F0AB
:101F20002BFF280016B004BC9046F0BD84256D42FE
:101F3000F7E7C04670B594B004000E0030220021CF
:101F400008A8FEF7B1FB13230793236807ADAB6125
:101F50003423012104938020303B0594039506939C
:101F60002E6101F0FBFE041E0FDD0123019305AB82
:101F700000930021012303AA01F0F2FE05002000D6
:101F800001F0FAFE280014B070BD84256D42F9E717
:101F9000F0B597B004000E001500002130220AA809
:101FA000FEF782FB14230993236809AFBB61342336
:101FB000012106938020303B0394059707960895EE
:101FC000049301F0CBFE041E0FDD0123019303AB4C
:101FD00000930021022305AA01F0C2FE05002000A3
:101FE00001F0CAFE280017B0F0BD84256D42F9E764
:101FF000F0B5C64600B596B004000E0015000021ED
:1020000030221F000AA809AB9846FEF74DFB1523A6
:1020100009934346226803939A6134230121049370
:102020008020303B059406930796089501F096FEB4
:10203000041E13DD0223019305AB0093002101234D
:1020400003AA01F08DFE089B05003B60200001F013
:1020500093FE280016B004BC9046F0BD84256D4266
:10206000F7E7C046F0B597B004000E001500002158
:1020700030220AA8FEF718FB16230993236809AF3C
:10208000BB613423012106938020303B03940597E4
:1020900007960895049301F061FE041E0FDD0123ED
:1020A000019303AB00930021022305AA01F058FE1F
:1020B0000500200001F060FE280017B0F0BD842567
:1020C0006D42F9E730B595B004003022002108A830
:1020D000FEF7EAFA17230793236807ADAB613423B1
:1020E000012104938020303B05940395069301F071
:1020F00035FE041E0FDD0123019305AB0093002183
:10210000012303AA01F02CFE0500200001F034FE9B
:10211000280015B030BD84256D42F9E770B594B044
:102120000C0005003022002108A8FEF7BDFA182394
:1021300007932B6807AEB3613423012104938020F9
:10214000303B05940396069301F008FE041E0FDD54
:102150000123019305AB00930021012303AA01F0A1
:10216000FFFD0500200001F007FE280014B070BD3F
:1021700084256D42F9E7C046F0B595B004000F0024
:1021800016000021302208A8FEF78EFA19230793C3
:10219000236807ADAB613423012104938020303BD9
:1021A0000594AF80039506932E6101F0D7FD041EC0
:1021B0000FDD0123019305AB00930021012303AA46
:1021C00001F0CEFD0500200001F0D6FD280015B07D
:1021D000F0BD84256D42F9E7F0B595B004000F001D
:1021E00016000021302208A8FEF75EFA1A23079392
:1021F000236807ADAB613423012104938020303B79
:102200000594AF80039506932E6101F0A7FD041E8F
:102210000FDD0123019305AB00930021012303AAE5
:1022200001F09EFD0500200001F0A6FD280015B07C
:10223000F0BD84256D42F9E7F0B597B004000E00BB
:102240001500002130220AA8FEF72EFA1B2309935D
:10225000236809AFBB613423012106938020303B02
:102260000394059707960895049301F077FD041EE3
:102270000FDD0123019303AB00930021022305AA84
:1022800001F06EFD0500200001F076FD280017B07A
:10229000F0BD84256D42F9E7F0B5C64600B596B0AD
:1022A00004000E001500002130221F000AA809AB0F
:1022B0009846FEF7F9F91C230993434622680393D5
:1022C0009A613423012104938020303B05940693C6
:1022D0000796089501F042FD041E13DD02230193C9
:1022E00005AB00930021012303AA01F039FD089BEF
:1022F00005003B60200001F03FFD280016B004BC43
:102300009046F0BD84256D42F7E7C046F0B597B022
:1023100004000E001500002130220AA8FEF7C4F9BF
:102320001D230993236809AFBB6134230121069360
:102330008020303B0394059707960895049301F09D
:102340000DFD041E0FDD0123019303AB009300215B
:10235000022305AA01F004FD0500200001F00CFD98
:10236000280017B0F0BD84256D42F9E730B595B06F
:1023700004003022002108A8FEF796F91E230793D7
:10238000236807ADAB613423012104938020303BE7
:1023900005940395069301F0E1FC041E0FDD012373
:1023A000019305AB00930021012303AA01F0D8FC9F
:1023B0000500200001F0E0FC280015B030BD8425A8
:1023C0006D42F9E7F0B5C64600B598B080460F00FB
:1023D000160000212C220CA81D001E9CFEF764F99B
:1023E0001F2342460B936B460F971A861795002CB6
:1023F00037D00BAB059334230693209B09940793A6
:10240000219B08931F9B0A93229B0393239B049376
:10241000102D29D8002E06D0002D04D02A0031001E
:1024200013A8FEF725F90121802001F097FC051E75
:102430001DDD230001225C1EA341019203AA023389
:102440000092002105AA01F08BFC049A249B040051
:102450001A60280001F090FC200018B004BC9046DF
:10246000F0BD1F9B002BC4D087246442F4E7842472
:102470006442F1E7F0B5C64600B598B080460F005B
:10248000160000212C220CA81D001E9CFEF70CF942
:10249000202342460B936B460F971A861795002C04
:1024A00037D00BAB059334230693209B09940793F5
:1024B000219B08931F9B0A93229B0393239B0493C6
:1024C000102D29D8002E06D0002D04D02A0031006E
:1024D00013A8FEF7CDF80121802001F03FFC051E76
:1024E0001DDD230001225C1EA341019203AA0233D9
:1024F0000092002105AA01F033FC049A249B0400F9
:102500001A60280001F038FC200018B004BC904686
:10251000F0BD1F9B002BC4D087246442F4E78424C1
:102520006442F1E7F0B5C64600B596B080460F00AC
:102530001500002130220AA81C00FEF7B5F821235F
:102540000993434609AEB380342306931C9B0121B3
:1025500003931D9B8020089405960795049337618B
:1025600001F0FCFB041E14DD0123019303AB009377
:1025700005AA0223002101F0F3FB049A1E9B05002B
:102580001A60200001F0F8FB280016B004BC904649
:10259000F0BD84256D42F7E7F0B5C64600B596B0AC
:1025A00080460F001500002130220AA81C00FEF70B
:1025B0007BF822230993434609AEB3803423049366
:1025C0001C9B012107931D9B802006940396059573
:1025D0000893376101F0C2FB041E10DD00230021C7
:1025E0000193009303AA033301F0BAFB0500200016
:1025F00001F0C2FB280016B004BC9046F0BD842553
:102600006D42F7E7F0B599B005000C001700002106
:1026100030220CA81E00FEF747F823230B936B46CD
:102620001D861E9B0F94002B29D00BAB05933423E2
:1026300006931E9B089609931F9B03AE0A93209B4B
:1026400001210393219B80207360079701F086FB93
:1026500005AC0500032300282BDD01220021019297
:1026600028002200009601F07BFB7268229B040088
:102670001A60280001F080FB200019B0F0BD1F9BFC
:10268000002B19D10BAB0593342306931F9B08969F
:1026900009930A93209B03AE0393219B0121802081
:1026A0007360079701F05AFB05AC051E01DD02239C
:1026B000D3E784246442DFE787246442DCE7C04632
:1026C000F0B599B005000C001700002130220CA8CD
:1026D0001E00FDF7E9FF24230B936B461D861E9B0E
:1026E0000F94002B29D00BAB0593342306931E9B2C
:1026F000089609931F9B03AE0A93209B0121039325
:10270000219B80207360079701F028FB05AC050032
:10271000032300282BDD0122002101922800220042
:10272000009601F01DFB7268229B04001A602800CD
:1027300001F022FB200019B0F0BD1F9B002B19D126
:102740000BAB0593342306931F9B089609930A93BA
:10275000209B03AE0393219B012180207360079788
:1027600001F0FCFA05AC051E01DD0223D3E7842449
:102770006442DFE787246442DCE7C04670B594B06A
:102780000C0005003022002108A8FDF78DFF25234D
:1027900007932B6807AEB361342301210493802093
:1027A000303B05940396069301F0D8FA041E0FDD22
:1027B0000123019305AB00930021012303AA01F03B
:1027C000CFFA0500200001F0D7FA280014B070BD40
:1027D00084256D42F9E7C046F0B595B014000600B7
:1027E0000D003022002108A8FDF75EFF2623079385
:1027F000336807AFBB61342301218020069403971F
:102800000493059501F0AAFA041E0FDD012301933C
:1028100005AB00930021012303AA01F0A1FA0500F2
:10282000200001F0A9FA280015B0F0BD84256D4202
:10283000F9E7C046F0B597B007000E0003920021FB
:1028400030220AA81D00FDF72FFF272309932B68CC
:1028500009ACA3613423069303AB0793042301213E
:102860008020A7800594A660089301F077FA041EE3
:102870000EDD002300210193009305AA023301F02D
:102880006FFA0500200001F077FA280017B0F0BDBC
:1028900084256D42F9E7C04630B595B0040030227A
:1028A000002108A8FDF700FF28230793236807AD40
:1028B000AB613423012104938020303B05940395C0
:1028C000069301F04BFA041E0FDD0123019305ABC3
:1028D00000930021012303AA01F042FA0500200021
:1028E00001F04AFA280015B030BD84256D42F9E7A1
:1028F000F0B5C64600B598B007000E0015000021DF
:1029000030220CA81C00FDF7CFFE29230B936B4649
:102910001E863B680F951193219B1293002C4CD07F
:102920001F9B002B2AD00BAB0593342306931E9BD1
:10293000012108931F9B80200993209B07940A93F1
:1029400003AB9846042342465360039701F006FA0E
:1029500005AD061E37DD0323012201924246002108
:10296000009230002A0001F0FBF90400300001F071
:1029700003FA200018B004BC9046F0BD209B002B49
:102980001ED10BAB0593342306931E9B01210893A4
:10299000209B802009930A9303AB98460423424668
:1029A00007945360039701F0D9F905AD061E0ADDBF
:1029B00023005C1EA3410133CEE71E9B002BAFD04A
:1029C00087246442D5E784246442D2E7F0B5C64642
:1029D00000B596B0040088461700002130220AA8EE
:1029E0001E00FDF761FE2A230993434609ADAB8023
:1029F0001C9B01212B6123688020AB61342306934B
:102A0000303B0394059507970896049301F0A6F9C7
:102A1000041E11DD0123019303AB00930021022367
:102A200005AA01F09DF90500200001F0A5F9280094
:102A300016B004BC9046F0BD84256D42F7E7C04651
:102A400030B595B005000C003022002108A8FDF734
:102A50002BFE2B23079307AB039334230595049395
:102A600000250694002C02D1280015B030BD0121AC
:102A7000802001F073F9041E0DDD0123019305ABE5
:102A800000930021012303AA01F06AF90500200048
:102A900001F072F9E8E784256D42E5E770B598B07A
:102AA00006000C000392002130220CA81D00FDF747
:102AB000FBFD2C230B936B460D941E86002D22D01C
:102AC0000BAB05933423069303AB079304230893BE
:102AD0001C9B09950A930121802001F03FF905AC68
:102AE00005000323002825DD002200210192009229
:102AF0002800220001F034F90400280001F03CF91C
:102B0000200018B070BD1C9B002B16D10BAB059399
:102B10003423069303AB0793042308931C9B0121E2
:102B2000802009930A9301F019F905AC051E01DD17
:102B30000223D9E784246442E2E787246442DFE782
:102B400002B4714649084900095C49008E4402BC40
:102B50007047C04603B47146490840004900095A0D
:102B600049008E4403BC7047002243088B4274D353
:102B700003098B425FD3030A8B4244D3030B8B427E
:102B800028D3030C8B420DD3FF22090212BA030C87
:102B90008B4202D31212090265D0030B8B4219D368
:102BA00000E0090AC30B8B4201D3CB03C01A524188
:102BB000830B8B4201D38B03C01A5241430B8B42D0
:102BC00001D34B03C01A5241030B8B4201D30B03B9
:102BD000C01A5241C30A8B4201D3CB02C01A5241E0
:102BE000830A8B4201D38B02C01A5241430A8B42A3
:102BF00001D34B02C01A5241030A8B4201D30B028C
:102C0000C01A5241CDD2C3098B4201D3CB01C01AA5
:102C1000524183098B4201D38B01C01A52414309AF
:102C20008B4201D34B01C01A524103098B4201D39D
:102C30000B01C01A5241C3088B4201D3CB00C01A0A
:102C4000524183088B4201D38B00C01A5241430882
:102C50008B4201D34B00C01A5241411A00D20146A7
:102C6000524110467047FFE701B5002000F0F0F830
:102C700002BDC0460029F7D076E7704703460B43F4
:102C80007FD4002243088B4274D303098B425FD365
:102C9000030A8B4244D3030B8B4228D3030C8B4291
:102CA0000DD3FF22090212BA030C8B4202D3121277
:102CB000090265D0030B8B4219D300E0090AC30B4C
:102CC0008B4201D3CB03C01A5241830B8B4201D3F9
:102CD0008B03C01A5241430B8B4201D34B03C01AE2
:102CE0005241030B8B4201D30B03C01A5241C30A5A
:102CF0008B4201D3CB02C01A5241830A8B4201D3CB
:102D00008B02C01A5241430A8B4201D34B02C01AB4
:102D10005241030A8B4201D30B02C01A5241CDD259
:102D2000C3098B4201D3CB01C01A524183098B42A4
:102D300001D38B01C01A524143098B4201D34B018D
:102D4000C01A524103098B4201D30B01C01A5241F0
:102D5000C3088B4201D3CB00C01A524183088B4277
:102D600001D38B00C01A524143088B4201D34B0060
:102D7000C01A5241411A00D20146524110467047D2
:102D80005DE0CA0F00D04942031000D340425340D7
:102D900000229C4603098B422DD3030A8B4212D397
:102DA000FC22890112BA030A8B420CD389019211C9
:102DB0008B4208D3890192118B4204D389013AD006
:102DC000921100E08909C3098B4201D3CB01C01ADB
:102DD000524183098B4201D38B01C01A52414309EE
:102DE0008B4201D34B01C01A524103098B4201D3DC
:102DF0000B01C01A5241C3088B4201D3CB00C01A49
:102E0000524183088B4201D38B00C01A5241D9D260
:102E100043088B4201D34B00C01A5241411A00D2E1
:102E20000146634652415B10104601D34042002BDD
:102E300000D54942704763465B1000D3404201B55C
:102E4000002000F005F802BD0029F8D016E7704711
:102E50007047C046002B11D1002A0FD1002900D1A4
:102E6000002802D00021C943081C07B4024802A16F
:102E70004018029003BDC046D9FFFFFF03B4684667
:102E800001B5029800F02EF8019B9E4602B00CBCE2
:102E90007047C046F0B515042D0C0F0001002E0040
:102EA000C64684460004140C000C090C46434D43EE
:102EB000604361434019340C241800B5A54203D97E
:102EC0008020400280464144250C6D1861465943DC
:102ED0007A43300449192404000C2018891804BCD2
:102EE0009046F0BDF0B557464E464546DE46E0B545
:102EF00004000D009246994683B08B4230D82DD005
:102F00004946504600F0BAF829000600200000F0BB
:102F1000B5F8331A9846203B9B4633D45A4653465D
:102F2000934042461F00534693401E00AF423AD89A
:102F3000AF4200D178E05B46A41BBD41002B00DA14
:102F400075E0002200230092019301235A4693402A
:102F50000193012342469340009328E08242CFD957
:102F600000220023009201930C9B002B01D01C60D7
:102F70005D600098019903B03CBC90469946A2461A
:102F8000AB46F0BD424620239B1A5246DA404146EA
:102F900013004A468A40170042461F435346934057
:102FA0001E00AF42C4D90022002300920193434681
:102FB000002BD9D0FB0772081A4346467B080EE067
:102FC000AB4201D1A2420CD8A41A9D410120241980
:102FD0006D410021013E24184D41002E06D0AB4228
:102FE000EED9013E24196D41002EF8D100980199C7
:102FF0005B4600196941002B24DB2B005A464446EE
:10300000D3402A00E2401C005B461500002B2ADB5F
:1030100026009E40330026004746BE403200801AFC
:103020009941009001919FE7A342BCD883E74246B3
:10303000202300219B1A0022009101920122DA40F4
:10304000019286E7424620239B1A2A0046469A4070
:103050002300F340444613432A00E2401C005B4631
:103060001500002BD4DA42462F002023260097407B
:103070009B1ADE403B003343CDE7C04610B5002924
:1030800003D100F007F8203002E0081C00F002F83D
:1030900010BDC0461C2101231B04984201D3000C23
:1030A00010391B0A984201D3000A08391B099842BB
:1030B00001D30009043902A2105C40187047C046D1
:1030C00004030202010101010000000000000000F1
:1030D00003B47146490840004900095E49008E4426
:1030E00003BC70470FB4F0B54E46DE465746454622
:1030F0000023E0B593B01CAE04CE09930192127880
:103100000596002A01D100F0A6FC00259B469A46B0
:1031100012E0013309AC019364196B1C099322710D
:103120001F2B00D92CE1012294461D00E344019B92
:103130001A78002A00D111E1019B252AE9D15B7898
:10314000252B00D125E1583BDBB2202B00D9DAE05A
:10315000984A9B00D3589F463023974A09AC904623
:103160006A1C6519002722602B711F2A0BD8434661
:103170000137DB5D002B11D025686A1C65192260C0
:103180002B711F2AF3D9534620210AA823601EF071
:1031900025FD43460137DB5D002BEDD15346082268
:1031A000002107A820CE0693FDF77EFA0F23190011
:1031B000824A2940515CBB4406AF894639702909CF
:1031C00001D100F058FD1940515C7970290A01D1F4
:1031D00000F08AFD1940515CB970290B01D100F053
:1031E00088FD1940515CF970290C01D100F0E3FC15
:1031F0001940515C3971290D01D100F089FD194048
:10320000515C7971290E01D100F085FD0B40D35C32
:10321000BB712B0F01D100F08BFD0825D35CFB7136
:103220007B19013B197823685A1CE3182260197135
:103230001F2A01D900F03DFCAB1EF95C98462368BB
:103240005A1CE318226019711F2A01D900F00DFCE5
:103250004346002B54D0EB1EF95C984623685A1C59
:10326000E318226019711F2A01D900F02AFC434695
:10327000002B45D02B1FF95C984623685A1CE31895
:10328000226019711F2A01D900F03FFC4346002B30
:1032900036D06B1FF95C984623685A1CE3182260ED
:1032A00019711F2A01D900F054FC4346002B27D086
:1032B000AB1FF95C984623685A1CE3182260197109
:1032C0001F2A01D900F06CFC4346002B18D0EB1FDD
:1032D000F95C984623685A1CE318226019711F2A6A
:1032E00001D900F07BFC4346002B09D049462368F6
:1032F0005A1CE318226019711F2A01D900F096FCAC
:10330000AB44256851E05B2309AC6A1C65190027B2
:1033100022602B711F2A0BD8294B0137DB5D002B54
:1033200012D015006A1C651922602B711F2AF3D96F
:10333000534620210AA823601EF050FC204B013781
:10334000DB5D2268002BECD1019B1500013301935A
:10335000019BBB441A78002A00D0EDE6002D04D072
:1033600029000AA81EF03AFC8344584613B03CBC1E
:1033700090469946A246AB46F0BC08BC04B018473C
:10338000534620210AA809931EF028FC099BCAE68F
:1033900004CE09AC6B1C6419099322711F2B00D950
:1033A00012E3012294461D00E344019B0233019382
:1033B000BDE6C046A83D0010903D00102C3E001018
:1033C000943D001053460822002107A810CE069312
:1033D000FDF76AF9D44A06AF0F2319002140515C6A
:1033E00089463970210900D197E31940515C797001
:1033F000210A00D1AAE31940515CB970210B00D118
:10340000BDE31940515CF970210C00D1DCE3194097
:10341000515C3971210D00D1EFE31940515C797194
:10342000210E01D100F00AFC0B40D35C240FBB71CC
:1034300001D100F044FC135DFB710823984643461C
:10344000FB18013B1A7809AC6B1C651909932A71AA
:103450001F2B00D9E3E242462368951E795D5A1C72
:10346000E318226019711F2A00D9D1E2002D49D03A
:1034700042462368D51E795D5A1CE31822601971F3
:103480001F2A00D9D2E2002D3CD042462368151FE6
:10349000795D5A1CE318226019711F2A00D9CCE209
:1034A000002D2FD042462368551F795D5A1CE31822
:1034B000226019711F2A00D9C6E2002D22D042468F
:1034C0002368951F795D5A1CE318226019711F2A21
:1034D00000D9C3E2002D15D042462368D51F795D7F
:1034E0005A1CE318226019711F2A00D982E2002DAC
:1034F00008D0494623685A1CE318226019711F2A14
:1035000000D97EE22568C3444FE7330040CB082250
:1035100099465346002107A806AF0693FDF7C4F865
:10352000002E00DA58E2002309AC02930A21300091
:10353000FFF7A0FB3031CBB230000A213B70039380
:10354000FFF712FB8046092E00D8A7E30A21FFF7F8
:1035500091FB3031404679700A21FFF705FB804628
:10356000632E00D8C3E30A21FFF784FB30314046C5
:10357000B9700A21FFF7F8FAFA2380469B009E42B1
:1035800000D2BCE30A21FFF775FB30314046F970E9
:103590000A21FFF7E9FA654B80469E4200D8B0E366
:1035A0000A21FFF767FB3031404639710A21FFF7E6
:1035B000DBFA5F4B80469E4200D8A4E30A21FFF766
:1035C00059FB3031404679710A21FFF7CDFA594B4A
:1035D00080469E4200D8A1E30A21FFF74BFB303121
:1035E0004046B9710A21FFF7BFFA534B80469E420D
:1035F00000D89BE30A21FFF73DFB30314046F971CB
:103600000A21FFF7B1FA4D4B80469E4200D895E360
:103610000A21FFF72FFB3031397240460A21FFF7AC
:10362000A3FA474B9E4200D88AE30A2630307872CC
:10363000BB19013B1A786B1C651923602A711F2B7B
:1036400000D928E22368B51E795D5A1CE318226070
:1036500019711F2A00D910E2002D5ED02368F51ED3
:10366000795D5A1CE318226019711F2A00D937E2CC
:10367000002D52D02368351F795D5A1CE318226053
:1036800019711F2A00D939E2002D46D02368751F11
:10369000795D5A1CE318226019711F2A00D967E26C
:1036A000002D3AD02368B51F795D5A1CE3182260BB
:1036B00019711F2A00D96CE2002D2ED02368F51F46
:1036C000795D5A1CE318226019711F2A00D97EE225
:1036D000002D22D035002368083D795D5A1CE3187F
:1036E000226019711F2A00D992E2002D15D03500F1
:1036F0002368093D795D5A1CE318226019711F2A5D
:1037000000D99FE2002D08D0236803995A1CE318C2
:10371000226019711F2A00D9DCE2029B25689C46B1
:103720006644B3444E4640E62C3E00100F2700008E
:103730009F8601003F420F007F969800FFE0F5054D
:10374000FFC99A3B534610CE0822002107A80693D2
:10375000FCF7AAFF0A212000FFF78CFA3031CBB228
:1037600006AF0A2120003B709846FFF7FDF981461D
:10377000092C00D874E20A21FFF77CFA3031484660
:1037800079700A21FFF7F0F98146632C00D8A8E28E
:103790000A21FFF76FFA30314846B9700A21FFF766
:1037A000E3F9FA2381469B009C4200D2A4E20A215D
:1037B000FFF760FA30314846F9700A21FFF7D4F973
:1037C000DB4B81469C4200D8F2E10A21FFF752FA16
:1037D0003031484639710A21FFF7C6F9D54B814689
:1037E0009C4200D891E20A21FFF744FA3031484662
:1037F00079710A21FFF7B8F9CF4B81469C4200D876
:103800008EE20A21FFF736FA30314846B9710A21B3
:10381000FFF7AAF9C94B81469C4200D883E20A21EE
:10382000FFF728FA30314846F9710A21FFF79CF971
:10383000C34B81469C4200D87DE20A21FFF71AFA69
:103840003031397248460A21FFF78EF9BD4B9C4250
:1038500000D877E20A239946303078724B46FB183D
:10386000013B1A7809AC6B1C651909932A711F2B4F
:1038700000D917E14A462368951E795D5A1CE31862
:10388000226019711F2A00D9FEE0002D63D04A463C
:103890002368D51E795D5A1CE318226019711F2A0E
:1038A00000D916E1002D56D04A462368151F795DD0
:1038B0005A1CE318226019711F2A00D917E1002D44
:1038C00049D04A462368551F795D5A1CE318226087
:1038D00019711F2A00D944E1002D3CD04A462368C3
:1038E000951F795D5A1CE318226019711F2A00D9AF
:1038F00048E1002D2FD04A462368D51F795D5A1C18
:10390000E318226019711F2A00D96FE1002D22D01F
:103910004D462368083D795D5A1CE31822601971F1
:103920001F2A00D97BE1002D15D04D462368093DA3
:10393000795D5A1CE318226019711F2A00D988E1A9
:10394000002D08D0414623685A1CE31822601971E3
:103950001F2A00D9B7E12568CB4426E508CE984652
:103960001B78002B00D120E5320009AC464690467A
:103970006A1C6519002722602B711F2A0AD801379B
:10398000F35D002B11D015006A1C651922602B71A4
:103990001F2AF4D9534620210AA8013723601EF0BC
:1039A0001DF9F35D2268002BEDD146461500BB449E
:1039B000FBE453460822002107A810CE069306AF69
:1039C000FCF772FE604A07E5534620210AA80993D6
:1039D0001EF004F9099BE4E42D2209AC6B1C651967
:1039E00009932A711F2B00D90AE11D000123764299
:1039F00002939BE5534620210AA823601EF0EEF8AF
:103A000075E5534620210AA823601EF0E7F879E502
:103A1000534620210AA823601EF0E0F826E553460D
:103A200020210AA809931EF0D9F814E55346202155
:103A30000AA823601EF0D2F825E5534620210AA8E3
:103A400023601EF0CBF82BE5534620210AA8236003
:103A50001EF0C4F831E500239B4686E4534620213E
:103A60000AA823601EF0BAF834E5534620210AA8BC
:103A700023601EF0B3F8FFF7EBFB534620210AA8A2
:103A800023601EF0ABF8E7E5534620210AA8236027
:103A90001EF0A4F8F9E6534620210AA823601EF080
:103AA0009DF8CFE5534620210AA809931EF096F809
:103AB000E0E6534620210AA823601EF08FF8FFF7A6
:103AC000BBFB534620210AA823601EF087F8FFF7AE
:103AD000CEFB534620210AA823601EF07FF8E1E6C2
:103AE000534620210AA823601EF078F8C0E553460B
:103AF00020210AA823601EF071F8E0E65346202139
:103B00000AA823601EF06AF8BEE5534620210AA8E1
:103B100023601EF063F8FFF7B9FB3A7809AC6B1C21
:103B2000651909932A711F2B48D801239846E9E4A7
:103B30000F2700009F8601003F420F007F969800EC
:103B4000FFE0F505FFC99A3B3C3E00100223984672
:103B500075E4534620210AA823601EF03FF8FFF7C2
:103B6000A4FB534620210AA823601EF037F8B3E6D1
:103B7000534620210AA823601EF030F890E5032365
:103B800098465CE4534620210AA823601EF026F8DC
:103B9000AFE6534620210AA823601EF01FF88BE5EC
:103BA000534620210AA823601EF018F8FFF78CFB6B
:103BB0000423994652E60425FFF732FB09910AA82F
:103BC00020211EF00BF8B0E70423984637E4534653
:103BD00020210AA823601EF001F879E55346202130
:103BE0000AA823601DF0FAFFFFF77DFB5346202152
:103BF0000AA823601DF0F2FF88E6052398461EE41C
:103C0000534620210AA809931DF0E8FF099BECE622
:103C1000534620210AA823601DF0E0FF65E55346C6
:103C200020210AA823601DF0D9FF7CE653462021FD
:103C30000AA823601DF0D2FFFFF762FB0623984617
:103C4000FFF7FDFB534620210AA823601DF0C6FFA5
:103C500058E5534620210AA823601DF0BFFF6FE6F8
:103C60003A7809AC6B1C651909932A711F2B6CD823
:103C7000012399466FE6236838785A1CE3182260BE
:103C800018711F2A02D80125FFF73AFB21600AA804
:103C900020211DF0A3FF0125FFF732FB3A786B1CB2
:103CA000651923602A711F2B01D8012635E553467B
:103CB00020210AA8236001261DF090FF2DE507238F
:103CC0009846FFF7BCFB534620210AA823601DF04D
:103CD00085FF40E6534620210AA823601DF07EFFA1
:103CE0001BE502239946B9E50225FFF799FA02265A
:103CF0009EE40325FFF794FA03239946AEE50326D5
:103D000096E4042694E4052692E405239946A5E565
:103D10000525FFF785FA0625FFF782FA062687E4D0
:103D2000062399469AE50723994697E507267FE4F7
:103D30000725FFF775FA082399468FE5082677E4EB
:103D4000092675E40923994688E5534620210AA8E7
:103D500009931DF043FF8BE712DF704711DF7047B7
:103D600000B585B00293079B0191039301A9069BBF
:103D7000FFF7F2FF05B000BD13DF70470BDF7047A0
:103D800014DF704716DF704718DF704719DF704780
:103D9000307800005B556E737570706F7274656477
:103DA000205461675D000000B23900100633001036
:103DB00006330010063300100633001006330010DF
:103DC00006330010063300100633001006330010CF
:103DD00006330010903300100A350010063300102F
:103DE0000633001006330010063300100A350010A9
:103DF000063300100633001006330010063300109F
:103E0000063300100633001058310010063300103E
:103E1000063300105C3900100633001044370010E0
:103E20000633001006330010C43300103031323333
:103E30003435363738396162636465663031323320
:103E40003435363738394142434445460000000096
:103E50000000000000000000000000000000000062
:103E600070B5184C86B02369082B0FD1A369042BB9
:103E70000CD1236A042B09D100216068043304AA01
:103E8000A5686669FFF77EFF082802D0082006B003
:103E900070BD04230221606802AAFFF773FF0428A3
:103EA000F4D1029B280001930096049A059B00F030
:103EB00031F9042303900021606803AAFFF764FF2F
:103EC0000020E4E700100108F0B5D6464F4646460C
:103ED000C0B588B000F010F9002824D18027774CB5
:103EE00006AE8021012009064042FFF747FF03008C
:103EF000C20619D4820644D4420638D4384200D0CF
:103F0000A8E080204000034222D02100FFF738FFC4
:103F10002568002D1DDAAB1C00DA9AE000216068EC
:103F2000FFF734FFDDE7FEE721001020FFF728FF51
:103F30002368002B02DA0233F0DAFEE7002B00D010
:103F400086E0FFF78DFF01006068FFF71FFFC8E7FD
:103F5000FEE7002D00D08AE0236A9846042B00D1AA
:103F6000A2E0082529006068FFF710FFB9E72100EB
:103F70004020FFF705FF2568002D0CDAAB1CCDDAD9
:103F8000FEE721002020FFF7FBFE2568002D2EDA3A
:103F9000AB1CC3DAFEE7002D68D12369082BE0D102
:103FA000236A9846042BDCD1636A082BD9D1A26816
:103FB00029009146606804AAFFF7E4FE0828D0D1E2
:103FC000049A059B4846009600F0D2F843460390B9
:103FD0002900606803AAFFF7D7FE039B002BC1D11D
:103FE0003200012160680833FFF7CEFEBAE7002DEA
:103FF0003BD12369082BB4D16269042AB1D1226A6A
:104000009046042AADD1A26829009146626A606890
:1040100092463200FFF7B6FE0828A2D1434601219E
:10402000606803AAFFF7AEFE8046042899D1534684
:104030000193039B48460093069A079B00F084F87F
:10404000049043462900606804AAFFF79DFE89E7B3
:1040500073E7FEE721003800FFF792FE2568002D88
:1040600006DAAB1C00DB59E7FEE793E788E7F0E7E9
:10407000002D18D12369082B00D072E7226A9046E0
:10408000042A00D06DE7A2682900914660683200DA
:10409000FFF778FE082800D063E7069A079B48469A
:1040A00000F076F8CCE7DFE700F084F843460690AE
:1040B000320029006068FFF767FE53E7001001082F
:1040C000064B10B502000C0058680B000121FFF7E9
:1040D00059FE201A441EA041C00010BD0010010866
:1040E00010B50B000349020048680121FFF74CFEA0
:1040F00010BDC0460010010810B500F05DF80028A2
:1041000000D110BD00F08CF90028FAD100F054F86D
:10411000F7E7C0461900130010B50B43040082B046
:104120001000002B0DD00123059A9A4307D1049B60
:1041300022000093059B00F081F802B010BD022020
:10414000FBE70820F9E7C0461900130010B50B4340
:10415000040082B01000002B07D0059B22000093C2
:10416000049B00F03BF802B010BD0820FBE7C046FE
:104170001900130010B50B4304001000002B04D0ED
:104180002200029B00F0ECF810BD0820FCE7C046BE
:104190001900130010B50B4304001000002B05D0CC
:1041A000220000F0FDF80A2802D010BD0820FCE72C
:1041B0000130FAE70020704710B500F0F9FD002843
:1041C00006D1044C200000F00DFA034B283C5C6043
:1041D00010BDC0466010010830100108F8B5144E3B
:1041E0001D00330000F042FC041E01D02000F8BD89
:1041F000104F3068390001F085FC041E06D12900FB
:10420000069AF86900F0BEFD041E05D000213800B2
:10421000094AFCF749FAE9E73800283006992818D6
:10422000FFF75EFF00213800034AFCF73DFADDE7A7
:10423000301001083810010828080000F0B5574672
:104240004E464546DE46E0B51700802283B09A46CA
:104250000C9B06000D00120193425AD83C4B3A00C9
:10426000994600F003FC3B4B041E98460ED00528EF
:1042700051D000214046384AFCF716FA200003B01E
:104280003CBC90469946A246AB46F0BD19004B4651
:10429000186801F037FC041EEBD14246526A012334
:1042A00014001C401A42E4D1434652465A620C9A0A
:1042B0001A624B461B68019301239B46274B0C99BE
:1042C00018009A46FFF7FCFE041ED2D128235B4259
:1042D0009C46E24453460C9A49465846DA6100F03F
:1042E00025FA041EC5D14B465146186801F04AFC18
:1042F000041EBED14B463A003000290000F09CFA63
:10430000041E20D1019B002B14D100F02FFD0400CE
:10431000AFE70824B2E718000F4A0021FCF7C4F900
:1043200043460C9A1A6252465A6202239B46002365
:104330000193C3E700F01AFD041E9AD1019800F022
:1043400019FE040095E74B46186800F013FE90E74D
:10435000301001083810010828080000601001081A
:10436000F8B50C4E1D00330000F080FB041E01D098
:104370002000F8BD084F3068390001F0C3FB041E6F
:1043800002D17B6AFA690CC500213800034AFCF7A8
:104390008BF9EDE7301001083810010828080000FB
:1043A000F8B54746CE461B4B80B506000D001700FA
:1043B000984600F05BFB041E04D020000CBC904625
:1043C0009946F8BD144B190099464346186801F008
:1043D00099FB041E06D14A46526A012314001C4070
:1043E0001A4205D0002148460C4AFCF75DF9E4E783
:1043F0003A003000290000F0E9FB041EF2D14346E8
:104400001D6800F0B3FC041EECD1280000F0B2FDE2
:104410000400E7E730100108381001082808000000
:1044200010B500F0C9FC002800D010BD00F0C0FCA1
:104430000028FAD100F0BEF8F7E7C046002310B517
:1044400082B0040001A90120019301F0F3FB0028D0
:1044500024D1019B9C4205D80BE0019B01330193C1
:10446000A34206D2012001F0EFFB0028F5D002B0F4
:1044700010BD022001A901F0DDFB00280ED1019B37
:104480009C4205D80CE0019B01330193A34207D263
:10449000022001F0D9FB0028F5D0E8E70B20E6E781
:1044A0000020E4E7F0B583005E58DBB0B227CA68AD
:1044B0006B460C0031007F00DA511C313A000500D8
:1044C0006846FCF7D5F8B42269463000520001F086
:1044D000F7FA002818D02369002B04D1641901339E
:1044E00023725BB0F0BD6A46D351B42269463000F6
:1044F000520001F0E5FA431E9841012340429843DF
:10450000033064192072ECE7022364192372E8E790
:10451000F0B5C646002300B50020DCB0019301F0E1
:1045200093FB041E04D020005CB004BC9046F0BD98
:10453000002001A901F07EFB041EF4D101F09EF9D8
:10454000041EF0D11A4D019C280001F013FA082135
:104550006B46B2225B182900520018001C319C5097
:10456000FCF786F8B4222800520002A901F080FA74
:10457000041E1AD101F0E6F9041ED4D18223C0260C
:10458000FF33EF5C7600984632002B003100781C38
:1045900000F022FC041EC6D14246AB5D0198AB542C
:1045A000AF55FFF74BFF0400BDE701F0CBF9BAE7C9
:1045B0006018010810B501F035FB00280ED1C422A7
:1045C000074C520000212000FCF76EF8C0230122A6
:1045D0005B00E25201232377FFF79AFF10BDC0462C
:1045E000601801080023C02170B54F4E86B001ADA0
:1045F0002B81EB602B6168603300002201204900B1
:10460000019600F02BFD002801D001232B72C02160
:10461000002202206B68490000F020FD002801D034
:1046200001236B7201F02AF9041E02D0200006B0AB
:1046300070BD01F0F7FA041E05D1002004A901F0B5
:10464000F9FA041E02D001F07DF9EFE76946012076
:1046500001F0F0FA041EF6D1022005A901F0EAFAF1
:10466000041EF0D12B69009A934200D028612B7A66
:10467000012B39D16B7A012B31D101F063F9041E82
:10468000D4D1019B1B7F012B01D001232B726968C0
:104690000B7F012B01D001236B7202232A89FF3388
:1046A0009A422DD02B7A012B35D06B7A012B20D05A
:1046B000022B27D0C023802202205B005200F2523E
:1046C00000F058FC041E01D00528AFD1E868FFF7C0
:1046D000B5FE041EAAD1300001F042F9A6E7290078
:1046E0000120FFF7DFFEC8E729000020FFF7DAFE10
:1046F000C0E780228033FF3352000220F252DFE70E
:104700000B2493E7C022012352003000B352FBF781
:10471000AFFF0120D4E7C02252003000B352FBF7B4
:10472000A7FF0120CCE7C0466018010870B504005F
:104730000D00002800D165E03E4A116B536B194310
:1047400002D1013C002C4FD0116D536D194303D1A0
:10475000013C002C00D15DE0116F536F194302D171
:10476000013C002C58D01000903003C8014302D106
:10477000013C002C52D01000B03003C8014302D1DC
:10478000013C002C4CD01000D03003C8014302D1B2
:10479000013C002C46D01000F03003C8014302D188
:1047A000013C002C40D010001130FF3003C8014301
:1047B00023D010003130FF3003C8014302D1013C47
:1047C000002C35D010005130FF3003C8014302D116
:1047D000013C002C2AD07132FF3206CA032011435B
:1047E0000AD1012C08D109340334200000F0E8FA82
:1047F000002809D000202C6070BD013C002CD8D1CD
:104800000724F1E70820F7E7200000F0B3FB0028B9
:10481000F0D0F1E70124E7E70224E5E70324E3E72A
:104820000424E1E70524DFE70624DDE70924DBE7CC
:104830000824D9E760180108F0B5DE4657464E4611
:104840004546E0B5884C1F00236B05008B461600DB
:1048500089B0834257D0236DAB4200D194E0236FDF
:10486000AB4200D19AE0230090331A68AA4200D1EB
:104870009EE02300B0331A68AA4200D1A3E02300CF
:10488000D0331A68AA4200D1A8E02300F0331A6896
:10489000AA4200D1ADE023001133FF331A68AA42C7
:1048A00000D1B1E023003133FF331A68AA4200D1AE
:1048B000B6E023005133FF331A68AA4200D1BBE0AF
:1048C00023007133FF331A68AA4200D1C0E0594671
:1048D0003A68D31E023A52015B01E318A4181D6323
:1048E0005963102279689E632000FBF7C1FEFFF731
:1048F0000FFE051E42D1280009B03CBC90469946E7
:10490000A246AB46F0BD636B8B42A4D1A36B9A4227
:10491000A1D1002301335B019846A04420224146E7
:104920006846FBF7A5FE43461B6920229A4643468C
:104930005B69002140469946FBF7B6FE59463A6846
:10494000D31E023A52015B01E318A4181D63596398
:10495000102279689E632000FBF78AFEFFF7D8FDDE
:10496000051EC8D053464A46134307D05346059206
:104970006946202240460493FBF77AFE202200215C
:104980002000FBF791FEB6E7636D5B4500D066E75C
:10499000A36D9E4200D062E70123BBE7636F5B45D6
:1049A00000D060E7A36F9E4200D05CE70223B1E72E
:1049B0005B685B4500D05CE79823E3589E4200D0DB
:1049C00057E70323A6E75B685B4500D057E7B823AA
:1049D000E3589E4200D052E704239BE75B685B45A7
:1049E00000D052E7D823E3589E4200D04DE705237C
:1049F00090E75B685B4500D04DE7F823E3589E42A3
:104A000000D048E7062385E75B685B4500D049E7AF
:104A10008C235B00E3589E4200D043E7072379E7ED
:104A20005B685B4500D044E79C235B00E3589E42F3
:104A300000D03EE708236DE75B685B4500D03FE7A9
:104A4000AC235B00E3589E4200D039E7092361E7BD
:104A50005B685B4500D03AE7BC235B00E3589E42AD
:104A600000D034E70A2355E76018010870B5564CAA
:104A7000256B85423FD0256D85424ED0256F8542FE
:104A800053D0250090352E68864256D02500B0358B
:104A90002E6886425AD02500D0352E6886425ED0D8
:104AA0002500F0352E68864262D025001135FF358D
:104AB0002E68864265D025003135FF352E68864246
:104AC0006AD025005135FF352E68864200D16FE04F
:104AD00025007135FF352E68864201D0052070BD56
:104AE00068688842FAD1BC214900615805208A4291
:104AF000F5D10A2106E0656B8D42BCD1A56BAA42B7
:104B0000B9D10021CA1C013149011A60586810222C
:104B10006118FBF7ADFD0020E1E7656D8D42ADD179
:104B2000A56DAA42AAD10121ECE7656F8D42A8D1FB
:104B3000A56FAA42A5D10221E4E76D688D42A5D1F7
:104B400098256559AA42A1D10321DBE76D688D4202
:104B5000A1D1B8256559AA429DD10421D2E76D683B
:104B60008D429DD1D8256559AA4299D10521C9E721
:104B70006D688D4299D1F8256559AA4295D10621D3
:104B8000C0E76D688D4296D18C256D006559AA42AB
:104B900000D090E70721B5E76D688D4200D090E71F
:104BA0009C256D006559AA4200D08AE70821A9E733
:104BB0006D688D4200D08BE7AC256D006559AA4227
:104BC00000D085E709219DE76018010830B5664BE4
:104BD00089B01C6B84425DD01C6D844262D01C6F16
:104BE000844267D01C0090342568854200D16BE078
:104BF0001C00B0342568854200D170E01C00D03420
:104C00002568854200D175E01C00F0342568854296
:104C100000D17AE01C001134FF342568854200D1B0
:104C20007EE01C003134FF342568854200D183E0EA
:104C30001C005134FF342568854200D188E01C00F7
:104C40007134FF342568854203D00525280009B05A
:104C500030BD60688842F8D1BC214900595805250B
:104C60000A248A42F2D1013464011C192022210055
:104C70006846FBF7FDFC202200212000FBF714FD15
:104C8000FFF746FC051EE1D0202269462000FBF715
:104C9000EFFCDBE75C6B8C429ED19C6BA2429BD10C
:104CA0000024E0E75C6D8C4299D19C6DA24296D1C4
:104CB0000124D8E75C6F8C4200D093E79C6FA2423E
:104CC00000D08FE70224CEE764688C4200D08FE7E3
:104CD00098241C59A24200D08AE70324C3E76468E1
:104CE0008C4200D08AE7B8241C59A24200D085E744
:104CF0000424B8E764688C4200D085E7D8241C59A6
:104D0000A24200D080E70524ADE764688C4200D061
:104D100080E7F8241C59A24200D07BE70624A2E7D2
:104D200064688C4200D07CE78C2464001C59A24249
:104D300000D076E7072496E764688C4200D077E7D6
:104D40009C2464001C59A24200D071E708248AE721
:104D500064688C4200D072E7AC2464001C59A24203
:104D600000D06CE709247EE760180108822310B5A3
:104D7000034AFF33D05C013000F0FCF810BDC046A0
:104D800060180108814208D8411A00209142404130
:104D9000052340429843063070470720FCE7C04691
:104DA000431E984104234042984305307047C04653
:104DB00010B500F0E1FA10BD10B500F059FC10BDBF
:104DC00000B583B001A900F083FA002801D103B037
:104DD00000BD0520FBE7C046F0B5C64600B58EB065
:104DE0000E0005A9040015001F0000F071FA00284C
:104DF0004ED006AB984600933100200009AB05AABF
:104E000000F09AFB00283FD1002D21D0AE423FD3C5
:104E1000002F3DD03B002A000A99099800F0ACF918
:104E2000002837D1404609A90B9500F0B1F90028B8
:104E300030D143461C68099B1800039300F03EFAEA
:104E400043461860099B20001900039300F08EFC74
:104E50004146099800F092FC00281BD1059809A949
:104E600000F0FEFC002815D1059800F003FA002898
:104E700010D1099B002B01D1002D03D100F0C4FA01
:104E8000002807D100F09EFA0EB004BC9046F0BD99
:104E90000820F9E70B20F7E730B587B00D00694629
:104EA000040000F015FA00280ED1009801A900F0C6
:104EB000E7FA002806D1059BA34205D1039B2B608E
:104EC000049B6B6007B030BD0520FBE770B58CB06C
:104ED0000E0003A914001D0000F0FAF9002843D1C8
:104EE000039807A900F0CCFA00283DD1079804A93F
:104EF00000F0F8FA00283AD1089B3200E118079830
:104F00002B0000F039F9002831D1099B0193B342FD
:104F100000D2099607A904A800F03AF9002826D182
:104F20000798049C00F0CAF907990490200000F04B
:104F30001DFC079804A900F021FC002817D1039854
:104F400007A900F08DFC002811D1039800F092F918
:104F500000280CD1079B002B03D000F055FA002845
:104F600005D100F02FFA00E005200CB070BD0B2039
:104F7000FBE7C046F0B5CE46474680B58DB005A9E3
:104F800000F0A6F900284ED1059806A900F078FA9D
:104F9000041E05D020000DB00CBC90469946F0BD13
:104FA0000A9B18000393FFF7FBFE00283BD1099BE7
:104FB000002298460023059806A9069E0A940694A6
:104FC00008920993079F00F04BFC041EE2D1802356
:104FD0005B010025994608E0280006A900F040FC86
:104FE000002836D101350D2D1FD0059BAB42F9D0DD
:104FF000280006A900F044FA00282AD1069B039352
:10500000B342E9D10A9B0393002BE5D0079BBB4237
:10501000E2D999451FD842469B1A0793099B9C46A3
:1050200003936444D8E70524B4E700943B004A4660
:105030004146300000F03EF8041EABD1002E04D0F3
:1050400000F0E2F90B240028A4D100F0BBF9040021
:10505000A0E704009EE79946DDE7C046F0B589B0B9
:105060000E0002A9040017001D0000F031F900280D
:1050700009D1029803A900F003FA002817D1079B71
:105080000193A34202D0052009B0F0BD059B320078
:10509000390018000193FFF775FE0028F4D12B00AA
:1050A0003200390003A800F04DF80028ECD00B20A6
:1050B000EAE7C046F0B5C64600B588B00E0005A9BF
:1050C000050090461F0000F00DFA041E04D02000D9
:1050D00008B004BC9046F0BD079B28009C4666447F
:1050E0000393079600F0EAF80E9B0600002B1BD1F5
:1050F0000699B94208D27F1A0B003000059A009732
:1051000000F0DCFD00281AD12900059800F02EFBE4
:10511000280005A9059600F031FB041ED7D0290010
:10512000300000F023FBD2E7059B390003930E9B70
:10513000039A0093434600F0C1FD0028D8D00B2409
:10514000C5E7C046F0B585B006000F00006801A9AC
:1051500015001C0000F0C6F900280AD10198431C74
:1051600007D072682B002100BA1800F083FD05B04B
:10517000F0BD0B20FBE7C04670B50D0016001C000B
:1051800000F09CF833002A00210000F085FD70BD7E
:1051900070B50D00040082B0086800F08FF86A68EE
:1051A000616806008A4208D9521A00920B002268F0
:1051B00000F084FD00280DD16A688023A068E968AA
:1051C0005B0151181B1A5B1A009330000B00226818
:1051D00000F074FD02B070BD10B584B00823002249
:1051E0006946002000F046FD002801D004B010BD43
:1051F0000823002202A9013000F03CFD0028F5D16F
:105200006B461B79012B0DD06B461B7B012B23D1E9
:105210006B465B7BFF2B1FD000220121144B996052
:10522000DA60E3E76B465B79FF2BEDD06A46127BD1
:10523000012A0ED16A46547BFF2C0AD0002C0DD1D6
:10524000012BE9D1A342894100224942A3425241A4
:10525000E4E700210122E1E70B20C7E7002BF1D1B1
:10526000013C220061426141541EA241D6E7C04682
:10527000E819010870B5104B8400DD689E68241899
:1052800082B0A4002C2332002C212800009400F0CE
:1052900015FD002805D12100982340315B0099427B
:1052A00001D302B070BD5B1A009332000B002800DE
:1052B00000F004FDF5E7C046E8190108034B00289B
:1052C00001D018687047D868FCE7C046E8190108A3
:1052D000274BF0B545469846264B57469A469823A5
:1052E0004E46DE465B00E0B5894607002C250026C9
:1052F0009B4689B0404614232A00806803A900F029
:10530000B9FC041E2FD1039B0193022B2BD8079BC2
:1053100018000193FFF744FD002813D1069A524567
:1053200021D8059B01939A421DD3039B04990193B5
:10533000002B01D1594516D380204001FFF722FDF3
:10534000002810D1079B0193BB420ED001361435C3
:105350000D2ECFD10524200009B03CBC90469946C3
:10536000A246AB46F0BD0B24F5E74B461E60F2E7C4
:10537000E81901082808000010B500F06DFC0028AD
:1053800000D010BDFFF728FF00280BD10C4C0823DC
:1053900000222100A06800F06DFC002802D12379D2
:1053A000012B01D00B20ECE76379FF2BFAD0E068EA
:1053B00000F0C2FC0028E4D1206800F0BDFCE0E76A
:1053C000E819010810B50F4C6379E0680133DBB2CE
:1053D000FF2B14D0637100220823210000F05CFC35
:1053E000002800D010BDE368A068A360E06000F072
:1053F000A3FC0028F6D1206800F09EFCF2E7002311
:10540000E8E7C046E819010830B51C4B89B09D6833
:10541000DC6808220C23280005A900F02BFC0028DA
:1054200021D1059B042B20D88020079B40010293AB
:10543000069B029A19000393FFF7A4FC011E14D1E6
:10544000059B0293012B12D9069B02938B420CD130
:105450008023079A5B019B1A5B1A00932A000B00BA
:10546000200000F02BFC09B030BD0920FBE7069BB3
:105470003131FF3102938B42EAD0F6E7E819010897
:105480008200164B1218920070B598682C321423C3
:105490000C0000F0EFFB051E1CD12368022B1BD86B
:1054A0002069FFF77DFC002814D1E2680C4B9A427A
:1054B00012D8A3689A420FD323686168002B03D1E6
:1054C00098235B00994207D380204001FFF75AFCE4
:1054D000002801D1280070BD0925FBE7E819010863
:1054E000280800004200124B1218920010B598686C
:1054F00008320C230C0000F0BDFB002815D12368F6
:10550000042B13D88020A26861684001FFF73AFCA1
:1055100000280BD10123226893429B41054A134086
:1055200031336268FF339A4200D110BD0920FCE795
:10553000E8190108D0FEFFFFF0B54E469946484BEA
:1055400057464546DE469A460123E0B58846170091
:10555000082600249B4689B0129D019050460C23DA
:1055600032002900806800F085FB002860D12B689C
:10557000042B5DD88020AA6869684001FFF702FC0F
:10558000002855D12B68374A9B459B411340313346
:105590006A68FF339A424BD1A96888454AD90134D9
:1055A0000C36032CDAD1304B2C26984698235B001E
:1055B00000259946504614233200806803A900F064
:1055C00059FB002829D1039B0193022B25D8079B67
:1055D00018000193FFF7E4FB002813D1069A424517
:1055E0001BD8059B01939A4217D3039B04990193FF
:1055F000002B01D1494510D380204001FFF7C2FBA9
:1056000000280AD1079B18000193FFF7C9FB002867
:1056100022D1013514360D2DCCD1144B3B6003241F
:10562000200009B03CBC90469946A246AB46F0BD6E
:105630000B24B8E74B461C6080234A465B015B1A8B
:1056400053604B464246DA60019A98601A614346BD
:10565000C91A0024A960A6E73D60002CE0D0DEE76F
:10566000E8190108D0FEFFFF28080000FFFF000036
:1056700070B588B0FFF7B0FD0024002801D13A4B87
:10568000DC68200000F058FB002801D008B070BD95
:105690006042604100F050FB0028F7D10223324DF8
:1056A00000222B60013BAB80EB60ED231B010293DA
:1056B00098235B0000920193A8600C23694608328E
:1056C000013000F0E9FA0028E0D1802301905B016D
:1056D0000330029300F030FB0400042000F02CFBA8
:1056E00004433CD10323142200936946E86809333C
:1056F00000F0D2FA002830D104232022009369461A
:10570000E868083300F0C8FA002826D114220021E6
:10571000982603A8FAF7C8FF2C2476001423220049
:10572000E86803A900F0B8FA002816D11434B4428E
:10573000F4D16B79EC680133DBB2FF2B11D06B71C4
:10574000082300222900200000F0A6FA002804D136
:10575000AB68EA68EB60AA6098E70B2096E7042044
:1057600094E76871ECE7C046E8190108002901D008
:10577000014B18607047C046E8190108F0B5C646ED
:1057800000B5040088B0002818D1344D0C23E86817
:105790000822086000F080FA002828D1EE68AD6881
:1057A0002C23013461000919890008315B1A009328
:1057B0002A000B00300000F081FA19E0274B470067
:1057C00098463F18BF003A0040460C23C068083294
:1057D00000F062FA00280AD143469D68DE6808227C
:1057E0000C23280005A900F045FA002804D00B205E
:1057F00008B004BC9046F0BD059B042BF7D8802070
:10580000079B40010293069B029A19000393FFF73E
:10581000B9FA0028EBD1059B0293012B1AD9069BFC
:1058200002938342E3D143460822D86805A90C239A
:10583000059600F031FA0028D9D1012CB0D90C3FDF
:1058400014232A0014213000009700F037FA0028B2
:10585000A6D0CDE73130FF30E1E7C046E8190108B6
:1058600010B58200044B12189200D8682C32142311
:1058700000F012FA10BDC046E8190108002300220A
:1058800010B58AB0069207930023284C0893200095
:105890000593FBF7AFFF00283DD1C02106A8890082
:1058A000234AFCF74FF9208806A9FCF751F9002894
:1058B0002BD112236B441A001E490130FBF7C2FFA3
:1058C000002822D16B46598A10230393043B02938C
:1058D000194B00900193194A002305A8FDF708F819
:1058E00000281DD180222088154905ABFCF7A2FFB6
:1058F000002812D105A8FCF7CFFF002810D16B4675
:10590000588AFBF7D3FF002803D02088FCF728F83B
:105910000B200AB010BD0B20FBE705A8FCF7BCFF6D
:105920006B46588AFBF7C2FFEFE7C046041A01082E
:10593000021000065B81FFFF685D0010000F00B0E1
:1059400001000040054B10B51888FCF709F84342E8
:1059500058410A23404298430B3010BD041A0108F5
:10596000010010B50C2202481031FAF781FE10BD7B
:10597000F8190108F0B583B06C460E4923000A00FF
:1059800060CA60C30122009E019F002392197B41DF
:10599000009201931A4353425A410B008D68103014
:1059A000AD1844CC44C30C228D60FAF761FE03B0FD
:1059B000F0BDC046F8190108F0B51600020089B024
:1059C000109F04001048119D008805970F9F0293B7
:1059D00004970E9F00910C230C49103206950397F3
:1059E0000196FCF7EFFC00280CD10F9B29689C4620
:1059F00010392960102220006144FAF739FE002096
:105A000009B0F0BD0B20FBE7041A010802100006E4
:105A1000F0B5C6460400904600B588B00E9E0F0053
:105A20009819210010221D00FAF722FE0E4B2200C9
:105A30001888119B10360693109B0C4905930F9BF9
:105A40001032049343460396019302950C2300976A
:105A5000FCF710FD434258410923404298430A3065
:105A600008B004BC9046F0BD041A010802100006FC
:105A7000030030B514008BB002000F4809AD008858
:105A800006950493102500230091039302930B497C
:105A90001032059501940C33FCF794FC002808D1D2
:105AA00009981038431E98410B23404218400BB010
:105AB00030BD0B20FBE7C046041A010802100006A7
:105AC00030B503008BB0150002000C4809AC00880B
:105AD00006940024059404941034029300910C233E
:105AE0000749103203940195FCF7C4FC099B184345
:105AF00001D10BB030BD0A20FBE7C046041A0108F3
:105B000002100006F0B589B00D0006A90400FFF7E9
:105B1000C3F9002801D009B0F0BD2B0000222000FD
:105B200006991033FFF79AFA0028F4D1069E0494E0
:105B3000FFF7A4FE0028EED134002F000F4E0C3CDE
:105B40001C37220039003000FAF792FD05AB0393B1
:105B50000B4B04220293280033000197009404A900
:105B6000FFF756FF002802D1059B9C4203D0FFF7A8
:105B7000E9FE0B20CFE7FFF7E5FECCE7081A0108A6
:105B80000C080000F0B5CE46474680B50C00096A07
:105B900087B00023002218310500FFF71DF9002807
:105BA00004D007B00CBC90469946F0BDE669049558
:105BB000FFF764FE0028F4D11C233700984620002C
:105BC000FFF7D8FE05AB0393144B0C370293144B2D
:105BD000A04499460193042243462000009704A95B
:105BE000FFF7EAFE002802D1059B9F4203D0FFF792
:105BF000A9FE0B20D5E73A0049464046FAF738FDA2
:105C0000FFF7A0FE0028CCD123003100002228009D
:105C100010331831FFF75AF9C3E7C0461C080000DB
:105C2000081A010810B51EF08BFD002800D110BD28
:105C30000B20FCE70A0010B504211EF0C7FD002868
:105C400000D110BD0B20FCE710B51EF00FFE0028A0
:105C500000D110BD0B20FCE700B5054B83B09B685D
:105C6000002001939847431E9841800003B000BD77
:105C7000C058021010B5C130064CFF300003801828
:105C80001A00636982B001939847431E98418000CF
:105C900002B010BDC058021010B5C130064CFF3024
:105CA000000380181A00A36982B001939847431E2D
:105CB0009841800002B010BDC0580210F0B54746B0
:105CC000D64680B5C132FF32C3B01503C130ED18DE
:105CD000FF304A9B00034718002B23D0154B0026AA
:105CE0009A465B69019380235B0098464A9B9C1B04
:105CF000444501D98024640022002800019B02A9A8
:105D00009847002810D153469B692200380002A909
:105D100000939847002807D14A9B36192D193F193F
:105D2000B342E3D8002000E0042043B00CBC90460E
:105D30009A46F0BDC05802100A4B70B5DD69802349
:105D4000C130FF3004035B01E6182000A84700289B
:105D500006D180239B009C466444B442F5D170BDBB
:105D60000420FCE7C058021073746F726167655FAE
:105D70006B657900000000000000000000000000DA
:105D8000F0B5CE46474680B59BB000F0FBF8002842
:105D900038D1812608AB9846794F0AAC76428021EB
:105DA000012009064042FDF7E9FFC3061ED4830621
:105DB0002AD443066AD4030625D580200EA9FDF710
:105DC000DFFF0028EBD10E99002900DB94E08B1C4B
:105DD00000DAC1E000210F98FDF7D8FF80210120F3
:105DE00009064042FDF7CAFFC306E0D510200EA900
:105DF000FDF7C6FF0028D2D10E99002910DA8B1CBE
:105E0000E8DAFEE7FEE7FEE720200EA9FDF7B8FF7F
:105E10000028C4D10E99002944DA8B1CDADAFEE797
:105E2000002900D099E0129B082B00D0A5E0149A1D
:105E30009146042A00D0A0E0FD32139DFF32954226
:105E400000D98EE022000F98FDF79CFF082800D0B3
:105E500093E02B003A0001210F98FDF793FF854254
:105E600000D08AE04B46424602210F98FDF78AFF98
:105E7000042800D081E0089B1098029301970095B8
:105E80000A9A0B9B00F08CF80100A4E740200EA9B1
:105E9000FDF776FF002882D10E9900293EDA8B1C8F
:105EA00098DAFEE700295BD1129B082B63D1139D82
:105EB000042D60D122000F98FDF764FF08285AD105
:105EC0002B0001210F9807AAFDF75CFF042852D18F
:105ED00043460393169B109805930193079B0297E3
