:020000041008E2
:1004000000880108E10408100D000000CD25081047
:1004100000000000000000000000000000000000DC
:10042000000000000000000000000000212908106A
:10043000000000000000000019270810FD0408104B
:10044000FF040810412008100105081003050810DA
:100450000505081007050810090508100B05081008
:100460000D050810D12508100F05081011050810FA
:1004700013050810150508101705081019050810B0
:100480001B0508101D0508101F0508102105081080
:100490002305081025050810270508102905081050
:1004A0002B0508102D0508102F0508103105081020
:1004B00033050810350508103705081039050810F0
:1004C000801C800803D0401C801EFCD100BF7047F8
:1004D000EFF3108072B6704780F310887047000009
:1004E00072B6164880476B46EFF31480022108432A
:1004F00080F314889D4612480047FEE7FEE7FEE7BA
:10050000FEE7FEE7FEE7FEE7FEE7FEE7FEE7FEE7C3
:10051000FEE7FEE7FEE7FEE7FEE7FEE7FEE7FEE7B3
:10052000FEE7FEE7FEE7FEE7FEE7FEE7FEE7FEE7A3
:10053000FEE7FEE7FEE7FEE7FEE7000029320810CF
:1005400041890810F0B581B00020C543794E30686C
:1005500041684968002911D004680027204600F04E
:1005600017FA014600280CD130684068416880685D
:1005700004197F1C00208F42F0D30CE0284601B004
:10058000F0BD6A1E5848814200D02A46431C281FED
:10059000994200D0104601B0F0BDC04610B504210C
:1005A000CC43221D424063490968096891420ED23A
:1005B000081800F0EDF90146002000290CD007488A
:1005C000814206D04848814205D1E01C10BD20463A
:1005D00010BD204610BD201D10BDC04606005200B3
:1005E00008207047534800684068704781B002484F
:1005F0000068009001B0704780A40108004870476F
:10060000010201010020704701460320C24300207F
:10061000022900D010467047F0B587B00646042086
:10062000C743002943D0002A44D0069141480068BE
:100630000568406801690592104608F02FFD3A1DD3
:1006400030465040854245D2002946D1019202975A
:10065000A919012040020390224F059D0E46204813
:1006600001403C4638460591039F3A4608F0DAF9C6
:10067000781E0496304029183E1AB94200D82E46FA
:1006800027462018069C2146324608F03BFC059878
:10069000394600F0D5F900280FD1AD1B0499711827
:1006A000A41906940020002DD8D107B0F0BD38461B
:1006B00007B0F0BD384607B0F0BD029BD91C0A4A0E
:1006C000904200D00199521C904200D00B4618462F
:1006D00007B0F0BD384607B0F0BD384607B0F0BDF2
:1006E00000FEFFFFFCA001080500520070B50346A4
:1006F0000420C04300291CD0002A1AD0041D1E4625
:1007000066400C4D2D682D68B54212D2EB1854404E
:100710000D263604AE19B3420BD2A34209D29C185F
:10072000AC4206D3B44204D80846194608F0EAFBA6
:10073000002070BD64A0010800207047F0B593B0A0
:100740000646344803A93CC83CC13CC83CC13CC82F
:100750003CC13CC83CC1304C00272046394601F022
:10076000BDF8204601F08AF80320C543F1B2012903
:100770004DD1310ACA1C07211140042947D8491D0F
:10078000059101033140002909D001225303994208
:1007900004D0120391423AD1022700E0032703A9B3
:1007A0008F738103314002220029134609D00123AF
:1007B000DF03B94204D09B03994228D1042300E00F
:1007C0000323212703A90025CD552827CD550192C4
:1007D000720C012702973A402027CA554B73320CFE
:1007E00002400198424090000CA210580C90204604
:1007F0002A4601F081F80299C90722680A4322605B
:100800000A494018022802D8800009A10D5828463C
:1008100013B0F0BD886608100000664000000000BC
:10082000080000000000000008000000FF9F55FFC6
:10083000FBFFFFFFFEFFFFFFFEFFFFFF82B0002078
:1008400000900098019002B07047000031480068A5
:100850007047C04682B0002000900098019002B01E
:10086000704700003C4800687047C04670B590B0C3
:1008700017490860174869460A4678C878C278C898
:1008800078C278C878C278C878C23D4D002428461E
:10089000224601F031F810494118022909D30028F5
:1008A0000DD00E49884201D10420C443204610B027
:1008B00070BD0420C043C41C204610B070BD012090
:1008C000C0072968014329600024204610B070BD8C
:1008D0008CA4010888660810FE9F55FF0160AA00DD
:1008E00001460320C2430020022900D01046704771
:1008F00010B50C4601460420C043002908D0002C46
:1009000006D01F48224600F07DFF02480460002008
:1009100010BDC04688A40108B0B50C4601460420AD
:10092000C043002912D0002C10D01548224601F0F7
:10093000B5F80748074902680A400368DB0B012540
:100940001D40EA42F7D1044804600020B0BDC04613
:1009500008026640FF01000084A401080320C04390
:1009600070470320C0437047B0B5054C00252046B2
:10097000294600F0B3FF204600F080FF2846B0BDB6
:1009800000006640012070470048704703020202E1
:10099000B0B50546012004022046FF30054201D0D3
:1009A0004448B0BD02F062FB43481449C160056190
:1009B000002141618161C64800685022825C002AA2
:1009C00018D08021415800680A58120E0C4B5A4327
:1009D000D2180858000AC0B2451C55437D20C100FA
:1009E0003848006808F0E0FF0146284608F0DCFFC0
:1009F00004494118204605F0C3FCB0BD0001001CAD
:100A000060F590009808000080B52B480949016006
:100A100009480860DD4800684C21415C002908D085
:100A20004D21405C002804D000200449022200F03F
:100A300033FA80BD00FC000802FF000001F002084C
:100A400070B50D460646012004022146FF311948C3
:100A50000E422DD1002D2BD002F008FB164817496D
:100A6000C160046146618561C84800684F21425CED
:100A70000021002A19D08021415800680A58120E1E
:100A80000F4B5A43D2180858000AC0B2451C5543B0
:100A90007D20C1000B48006808F086FF014628460B
:100AA00008F082FFE12189004118204605F068FC2A
:100AB00070BDC04606005200E0A00108000100061B
:100AC000808D5B0048A00108F0B5012423408B40D5
:100AD0008C400568A5431D4305608C000F252A4006
:100AE000A540EA4B1B6879269E5D3758AF43A2406C
:100AF0003A433250CA001446203C042900D322460F
:100B00001F24254695405E699B69C01AC008614B49
:100B100003409819031D042900D318460168A9430E
:100B2000059B234093400B430360F0BDF0B58AB0B2
:100B30001646574B002800D1A6E0002E00D1A3E0B6
:100B400002460846336804210824002B02910B4614
:100B500000D023460121079181400091D1508100AE
:100B60000F231C468C40C94D2F68792509977D5D60
:100B700001967768AE58A6431F4003918F40014607
:100B800037430592AF50C3001C46203C042800D3D5
:100B900023461F2408949C40099A56699769059832
:100BA000C71BFF083B4D3D40AF19381D042900D33A
:100BB0000746019A157A3E68A643089805409D406D
:100BC00035433D60480003231D4606938540089049
:100BD0007826099CA65DD7680491059C3159A943E4
:100BE0001F4087400F43375111690798014004980F
:100BF0008140A5692746009CA5430D43BD617A212C
:100C0000099B595C5569CE59A643079B1D408540F9
:100C10003543CD5108981030089006998140214302
:100C20007B25099C655DEE598E43916919401846F4
:100C3000049B99403143D669069B1E40089B9E4009
:100C40000E43EE517C21615CCB59146A0440556A15
:100C50006D0002262E402643946AA400029D2C407B
:100C60003443D56A126BED0018262E4026435201FC
:100C7000D2B232437F24E400039D2540AA40FF24E2
:100C8000A3431343CB51002318460AB0F0BDC0461E
:100C900001005A00F0FFFF1F7C4A1268B023D258AF
:100CA0001258002A01DB1248704789B241600020C7
:100CB0007047C046EC4A1268B023D2581258002A36
:100CC00001DB0B487047C068086000207047C046D1
:100CD00070AF010810B50368DB17B84C2340A3427E
:100CE00004D1C26089B28160002010BD004810BDEF
:100CF00001008A008D490A68002A00D07047086008
:100D00007047C046F0B581B00446002500954069A3
:100D1000C668874F791C8E4221D35D4931400160FE
:100D20000068D1480068B02141582069095800295D
:100D300015DA6946FFF7BEFF00280CD1009802685B
:100D4000D1B2150CE2698A4205D98900226A51584C
:100D5000002900D0884720692946FFF79DFF3E40C3
:100D6000002E0FD0606906600068606A002803D01A
:100D700080470020606203E0A06A002800D080471E
:100D80000020A0616069006801B0F0BD70AF01088B
:100D900080B52C214143654800684018FFF7B2FF39
:100DA00080BDC046F0B58FB00746406A0790386AEC
:100DB0000B90F8683E6912CF3B880A930DAD2B80EB
:100DC0002B460C95EA4D2A680592958E4919997023
:100DD0000E942C2109914843396A0891796A04914B
:100DE00052490A680692F1B211501018340AE4B25E
:100DF000320C029244608260AC25059A555B012357
:100E000001931B03126A0392D318059364011C1902
:100E100044616943891801611D490E4002990E43DE
:100E2000A660049901620899C161002686610A9949
:100E300081810B9809994843079AD1B2069B1950B2
:100E40001818140AE4B2130C446083604D430399EC
:100E5000691801616101059C611841610C4C2240D7
:100E60001A438A600662C6618661B96A0C9C204694
:100E700001F052F8208800B2002805DB1F2108404D
:100E800001998140034801600FB0F0BD70AF0108C7
:100E90000000FFFF00E100E02C23434323480068EB
:100EA000C018C369934204D9006A9200815000209F
:100EB000704701487047C0460A028A00F0B582B008
:100EC000009301922C225043184B1B681818466857
:100ED00001252C46B44051435E1872681449491CE0
:100EE00091400769134AD01E002F1DD03346183396
:100EF000B069002802D0104602B0F0BD3868C017B3
:100F00007B4A10407A4A90420A480DD10198006805
:100F1000074A1040084301990860F9601D60009875
:100F200070621440BC60002002B0F0BD74AF0108D4
:100F3000FFFF000007028A00F0B583B003467A4E37
:100F40003068C5682A689A421CD91F221A400127B6
:100F500097405A0901920022002905D10C46FFF75B
:100F6000B7FA21460246306802920268D317604AF7
:100F70001340604C661C934208D0002918D03046BC
:100F800003B0F0BD694E304603B0F0BD0091019949
:100F90008A006B6899589A18394202D0B943116097
:100FA00000240021FFF778FE264600990029E6D1AB
:100FB0000298FFF791FA304603B0F0BDFFFF75FFCE
:100FC00059480068C06800687047C046F0B581B0F5
:100FD00000290ED1002A0CD1DD490968AC228A5AB9
:100FE0005043096A4018504908600023184601B070
:100FF000F0BD1B4EB31C0029F8D0002AF6D0194CC6
:1010000006C42E251F242142F0D1D14C2468655DF1
:101010008542EBD9AC23E35A5843236AC418424FA4
:101020003C60C908104608F037F8002520462946DC
:10103000FFF732FE38680B4A2946FFF74BFE0028BF
:1010400003D03346184601B0F0BD38680021FFF7E1
:1010500023FE002800D106463346184601B0F0BDF5
:1010600001018A0000A0010870AF0108F0B583B04B
:1010700003462D4E3068C5682A689A421CD91F2243
:101080001A40012797405A0901920022002905D1F0
:101090000C46FFF71DFA21460246306802920268AC
:1010A000D317134A1340134C661C934208D00029EF
:1010B00018D0304603B0F0BD1C4E304603B0F0BD32
:1010C000009101998A006B6899589A18394202D1A7
:1010D0003943116000240021FFF7DEFD2646009908
:1010E0000029E6D10298FFF7F7F9304603B0F0BDCA
:1010F000FFFF75FF020188000B490968C9680A688B
:1011000082420ED91F22024001239340C008084AA0
:101110000240486882580748411C1A4200D00846DD
:10112000704702487047C04678AF010804018A0042
:10113000FCFFFF1F00018800D74908607047C046C8
:1011400080B5032000210A46FFF740FF0748FFF75C
:10115000D1FDD14800684D21405C002802D00548EF
:10116000FFF720FEFFF750FC80BDC04600A301083A
:1011700070AF01085465081010B501245440620096
:101180000A4359041143C44A12681269800011507D
:10119000125800208A4200D0004810BD0300C2004F
:1011A00070B5BD4A12682C23D45CBC4B5A1C1F2C52
:1011B00027D88A88BA4C224201D0184670BD0C78D4
:1011C000072525404C78E400382626402E438C78AD
:1011D000A401344340256540ECB25202D84D15407D
:1011E000C978890729432143AE4A0A408A420AD175
:1011F0004162406AAC4C0440981C00228C4200D0F2
:101200000246104670BD184670BDC04670B5CA4A49
:1012100012682C23D45CC94B5A1C1F2C27D88A88EF
:10122000DF4C224201D0184670BD0C7807252540BE
:101230004C78E400382626402E438C78A4013443B1
:1012400040256540ECB25202D64D1540C978890759
:1012500029432143D44A0A408A420AD14160406866
:10126000D24C0440981C00228C4200D0024610460A
:1012700070BD184670BDC04670B5AF4A12682C23C9
:10128000D45CC64B5A1C1F2C27D88A88C44C2242D7
:1012900001D0184670BD0C78072525404C78E40035
:1012A000382626402E438C78A401344340256540DF
:1012B000ECB25202DC4D1540C9788907294321431D
:1012C000B94A0A408A420AD14162406AB74C044096
:1012D000981C00228C4200D00246104670BD184671
:1012E00070BDC04670B5E54A12682C23D45CAB4B88
:1012F0005A1C1F2C27D88A88CA4C224201D0184673
:1013000070BD0C78072525404C78E400382626402F
:101310002E438C78A401344340256540ECB2520240
:10132000C14D1540C9788907294321439E4A0A4087
:101330008A420AD1416040689C4C0440981C0022BB
:101340008C4200D00246104670BD184670BDC046A3
:1013500070AF010870B5DE4A12682C23D45C8F4B45
:101360005A1C1F2C27D88A88AE4C224201D018461E
:1013700070BD0C78072525404C78E40038262640BF
:101380002E438C78A401344340256540ECB25202D0
:10139000A54D1540C978890729432143824A0A404F
:1013A0008A420AD14162406A804C0440981C002263
:1013B0008C4200D00246104670BD184670BDC04633
:1013C00070B5E24A12682C23D45C744B5A1C1F2C53
:1013D00027D88A88934C224201D0184670BD0C78D9
:1013E000072525404C78E400382626402E438C788B
:1013F000A401344340256540ECB252028A4D1540A9
:10140000C978890729432143674A0A408A420AD199
:1014100041604068654C0440981C00228C4200D01A
:101420000246104670BD184670BDC04670B5D24A1F
:1014300012682C23D45C594B5A1C1F2C27D84A897C
:10144000784C224201D0184670BD8C790725254082
:10145000CC79E400382626402E430C7AA40134438C
:1014600040256540ECB252026F4D1540497A89071C
:10147000294321434C4A0A408A420AD14162406AC8
:101480004A4C0440981C00228C4200D00246104670
:1014900070BD184670BDC04670AF01080100C200A3
:1014A00080FF00005BFEFF40DBFEFFE070B5D34A2B
:1014B00012682C23D45C394B5A1C1F2C38D84A890B
:1014C000584C224201D0184670BD5202564C14406E
:1014D0001F2212060D792D06154025434A7A9207E0
:1014E0002A438C7907252540CC79E400382626400C
:1014F0002E430C7AA401344340256540ECB21443DA
:10150000104A22400D68FF26B54349792943A2427B
:1015100010D1446001609A1C05688D4208D14921B0
:10152000890045688D43981C0022A54200D00246E0
:10153000104670BD184670BD70AF01080100C200B2
:1015400000FEFF005BFEFF5F70B502464B8913484B
:10155000344C234221D18C7907252540CC79E400F5
:10156000382626402E430C7AA4013443402565409A
:10157000ECB25B022C4D1D40497A89072943214377
:10158000094B0B408B4208D15162526A074B134002
:10159000821C00208B4200D0104670BD0100C200AA
:1015A00080FF000000FEFF005BFEFF40DBFEFFE06F
:1015B00070B5934B9A1E4C891A4D2C4201D010469F
:1015C00070BD6202184C14401F2212060D792D06C0
:1015D000154025434A7A92072A438C7907252540EE
:1015E000CC79E400382626402E430C7AA4013443FB
:1015F00040256540ECB214434A7909684460FF25F0
:10160000A9431143016002688A4209D101210902FC
:10161000406888430022A042D1D01A46104670BDCF
:10162000184670BD80FF000000FEFF0001467348B1
:1016300000682C22825C51481F2A0AD80122D20756
:101640004B6A13434B62496AC917594A0A4010183A
:10165000401C70470146694800682C22825C47485C
:101660001F2A0AD80122D2074B6813434B604968EE
:10167000C9174F4A0A401018401C704770AF010844
:1016800001465E4800682C22825C3C481F2A0AD82A
:101690000122D2074B6A13434B62496AC917444A75
:1016A0000A401018401C70470146544800682C221C
:1016B000825C32481F2A0AD80122D2074B681343A2
:1016C0004B604968C9173A4A0A401018401C7047D5
:1016D00070AF01080146494800682C22825C274807
:1016E0001F2A0AD80122D2074B6A13434B62496A68
:1016F000C9172F4A0A401018401C704701463F483E
:1017000000682C22825C1D481F2A0AD80122D207B9
:101710004B6813434B604968C917254A0A401018A3
:10172000401C70470146354800682C22825C1348F3
:101730001F2A0AD80122D2074B6A13434B62496A17
:10174000C9171B4A0A401018401C704770AF0108A7
:1017500001462A4800682C22825C08481F2A0AD8C1
:101760000122D2074B6813434B604968C917104ADE
:101770000A401018401C704770AF01080200C200F8
:101780000121C907426A0A434262406AC0170849F8
:1017900001401B48081870470121C90742680A43E5
:1017A00042604068C0170249014015480818704758
:1017B000FDFF3DFF8002F849096809690818012109
:1017C000890341580F2008407047C046B0B50F222A
:1017D0000B46134014040D0425401D438002EE4BBC
:1017E0001B681B69181801239B03C550C35813407D
:1017F00000208B4200D00248B0BDC04670AF010847
:101800000300C200F0B582B013460E4603210A025F
:10181000815882180192002B2ED00D22920184183B
:10182000C90801250D406121C900401800900098A9
:101830000168BC48014099421A4600D80A460198FE
:1018400001680827394209D1002A10D031461746CD
:1018500020680870491C7F1EFAD108E0002A06D0D3
:101860003146174620680880891C7F1EFAD19B1AD2
:10187000AA40B618002BDAD102B0F0BD032211063F
:101880000B460F3303600164002181641202FF23C1
:1018900008338350C12292008150312212018150BD
:1018A00041640122520283508122920081500165DD
:1018B000064A8150064A8150764A8150764A8150C4
:1018C000044A8150044A81507047C046C80E000047
:1018D000880E0000080F0000480F00000122D20708
:1018E000036893430360002904D000204860086027
:1018F0000862C86270470000F0B588B0624F0028E7
:1019000000D1BDE0002900D1BAE005920A78012497
:1019100065060792022A03D18A7F002A2A4604D04C
:101920004B680F330F221A402A4303958E68574D98
:101930008D3500230296092E00D31D4604932604FC
:101940000F7F002F00D13E4632432A43026003221C
:1019500000921206079B1B06134003644A7BD21DAC
:10196000072313408A7B15013022019215401D4345
:101970004E7F4022002E00D132462A43A6028F7CA1
:10198000002F00D13E46324323020E7C002E1F461C
:1019900000D137463A4364024E7C002E069400D1B3
:1019A000344622430F242604CF6A3F04BF19374030
:1019B00017438764079A921E049FBE1A564172020B
:1019C000CE7B002E00D0069A029E0F3626400C7B5E
:1019D000002C00D1234633431A43009C24020251B9
:1019E000FF2212048C69240414400A7D224331240E
:1019F00024010251079A541E3A1B62411402CE7F01
:101A0000002E00D134462543456412041343069A40
:101A10008350019A8A5CC1239B00C25021228A5CB8
:101A2000521EBB1A53411A062023CB5C002B039C89
:101A300000D11C4622432823CB5C5B1EFC1A5C4170
:101A40002304134324228A5C1A43026538228A5CE9
:101A500081239B00C2504A6B0D4B13400D4A8350AB
:101A6000C96B0A4A11400C4A81500598002807D0DA
:101A700000274760076007628760C7600763C76227
:101A8000384608B0F0BDC0460160AA0073070000E8
:101A90006D0B0000C80F0000880F0000F0B583B088
:101AA00016460B460122540201590290001901907A
:101AB000002E35D00924A401029D2C19C80810401D
:101AC0004121C9006918009102990968009A1268B9
:101AD000144D2A40490940270F404037B91AB142F6
:101AE000374600D80F46019909680822114209D1EA
:101AF000002F10D019463A460D782560491C521E19
:101B0000FAD108E0002F06D019463A460D88256024
:101B1000891C521EFAD1F61B8740DB19002ED3D147
:101B200003B0F0BDFF0100008100074A8818036C74
:101B300007201840042805D150581F2101400120DA
:101B40000002084380B270470003264010B5C64A21
:101B500012683A23D35CC54A83421BD9052906D2B1
:101B600007220A4080000D494250002212E0FF2364
:101B7000DB43CB189BB2132B0CD81F220A408000EA
:101B8000064943183F24E4431A51042242500022DC
:101B9000104610BD104610BD70AF0108400326402E
:101BA000F0B583B004463D48411C3D4E706801913C
:101BB000084370600121002C00D12146B068042741
:101BC0003840002C12D00028204610D12546012094
:101BD00000F060FA681E421E01469141B2683A4028
:101BE000012D04D0002A0546F1D000E020463368DC
:101BF0002C4A13400122550702952B433360002CD9
:101C00001CD000291AD10028114620D0B3681340F7
:101C1000002821D0002B1FD101252F1A284600F0C3
:101C200039FA002F294600D13946B06828407A1C7D
:101C3000002F11D000281746F0D00DE00721C9432E
:101C40007358019D2B43735000281146DED1014685
:101C5000B36813400028DDD10020021B62410A4313
:101C60003168012A06D103231B0719433160002A7A
:101C700011D10FE00B4B1940029B19433160072132
:101C8000C9437358054C23407350716821407160FB
:101C9000002A00D1044803B0F0BDC046FFFFFF7F1B
:101CA00088052640FFFFFFCF02004A00F0B50B2158
:101CB000CA4321498B58002B3BDB0468204B23404F
:101CC00001242406C579002D00D12C461C438C50DC
:101CD00082881C4B1340028914041B4A14401C4385
:101CE0000723DD434C5184892402184D2540847A12
:101CF0000F262640C47A2401E4B234432C43032542
:101D00002E07877B3F0737402743EC430F511B02C9
:101D10000C689C4385792D021D4025430D600B689E
:101D20000B4C1C40008A0004104020430860002037
:101D3000F0BD0248F0BDC0468C05264003004A00B5
:101D4000FFFF0300FF1F00000000FF0100FF1F0056
:101D5000FFFF00FEF0B581B0B84A13683B229A5CE1
:101D6000401E424D904226D28000144C025901265A
:101D7000F3071343035107193A6C324040370029E7
:101D8000009108460ED0002A00980BD1009C3046E6
:101D900000F080F939683140601E012C02D0002922
:101DA0000446F4D06D1C0021002800D00D46009898
:101DB000002800D10546284601B0F0BD00062640A7
:101DC000F0B582B0F44A12683B23D25C274B8242C2
:101DD00002D2184602B0F0BD8000254C0219045909
:101DE000981C002C3ADB8C78A01EC0B20E2802D9B9
:101DF000184602B0F0BD4E78701EC0B2112802D94C
:101E0000184602B0F0BDC878382770250190002828
:101E100000D12F460097132516270198002800D1DE
:101E20003D460F78BD421BD80098B842184615D3DE
:101E30000879022809D0210433020B433B430D49A2
:101E40001940019BDB060B431360032109070007C0
:101E5000084013688B4303431360002002B0F0BDB9
:101E6000184602B0F0BDC04670AF010801004A003C
:101E7000FC0526407F1F1F0080B5FEF729FB254982
:101E80000A681E4B1340054A1A430A608A681023E9
:101E90001A42FBD0FEF720FB80BDC0460000FA05C9
:101EA000F0B581B00546FEF713FB0446194E3068C5
:101EB00003210140114A124F03290ED11746FEF7A4
:101EC00007FB316839400E4F39433160B168102249
:101ED0001142FBD0FEF700FB084A0A480560306853
:101EE0001040B91C01433160B06810210842FBD09A
:101EF0002046FEF7F1FA01B0F0BDC046FCFF00003D
:101F00000100FA05C0022140024801680320084090
:101F10007047C04680002140F0B584B0314A0028A7
:101F20005DD00023DB43039303881BB22E4F002BAD
:101F3000029120DB9FB2984A16682822B45C82780E
:101F40001F2C21D81F2F039913D8DC0018252540FA
:101F50000095FF24AC404C40032501951D46019F90
:101F6000BD43366875192E6A2640009CA240324354
:101F70002A621D4F14E00F241C40083C0325AC438B
:101F80003E191436039911E092003468A218072410
:101F900027400124E5073D43E4031551124F0399FF
:101FA00003221C469443114AA6180022DC0018257F
:101FB000254040688001C0B2A840FF24AC404C409E
:101FC000316821400143316039680948814206D1B6
:101FD0003968814203D19900401802990164104682
:101FE00004B0F0BD0100560008ED00E000E400E0A0
:101FF00078B20108B0B5684A12682823D35C1F2B59
:1020000011D883B21F2B18D8C30018241C40FF23FB
:10201000A3400325A84312681018026A9A43A140FE
:1020200011430162B0BD89001268511807221040A7
:102030000122D3070343D0030B50B0BD70AF01089A
:1020400080B50020FEF7A4FE80BD0000F0B583B08F
:1020500004460120C503AC420FD90B4FE019029092
:10206000401E38400190094E3068FEF729FAE41905
:10207000AC42F9D802980199441A054800686043B7
:10208000FEF71EFA03B0F0BD0080FFFF58A0010864
:1020900054A0010880B5034909784843FEF710FAB7
:1020A00080BDC04640A001080120810404480068AA
:1020B0000143044A1268FF231A4200D008467047C1
:1020C00000082640040026400120C007034908609C
:1020D0000868C117024808407047C04648002740BA
:1020E00003004600F0B582B019226423002800D115
:1020F0001A460124002301918A4200D31C46FC4A5F
:102100001268A423D65A1768BB5903210091CD4306
:102110002B402343BB5113689F5920490F409F51C7
:10212000A623D35A1668F7582F402743F750146850
:10213000E5580D40E550002809D0002001991129EB
:1021400021D30120022322291DD318461BE0512050
:10215000115C0020019CA14215D25220115C01208B
:10216000A14210D25320115C0220A1420BD2542074
:10217000105CA042009806D25520115C0520042373
:10218000A14200D3184651680A680F239A430243BC
:102190000A6002B0F0BDC04670AF0108FFFCFFFF4F
:1021A000F0B585B00646012738020490CA49088870
:1021B000002804D0049880B20988814218D10024F4
:1021C0002046FFF7F7FAC44B0A21C9435A5C002A9C
:1021D00005D05A5C01240021222A00D80C46BF49B0
:1021E0004D1E002804D0002C02D1284605B0F0BDB9
:1021F000BB4CBC4DFEF76CF90390002E25D0BA48BD
:10220000006828606678B94A10681F24A0430B2133
:102210000143116003252846FFF73CFFAE490888BB
:10222000002804D0049880B20988814231D1F64850
:1022300000689421415800680A5807231B039A43F9
:1022400001239B0313430B503CE0002028602678B9
:102250000A21CA43A04B9A5C2124002A01D0C94319
:102260005C5C1988002905D0049989B21A88511A32
:10227000471A4F410020FFF79DFA002800D19FE048
:102280009C48821C002F00D1AFE0232C00D2B5E087
:10229000AAE02A0202929448016C9143DA4A126839
:1022A0009423D058009001971768C35902980340AF
:1022B0000B430098C351019F8B48C06B9821515824
:1022C00012688850894926400868A0433043086056
:1022D0000720FFF7DFFE80490888002804D0049813
:1022E00080B20988814213D1C748006894214158BF
:1022F00002688B580F24E44323402B438B50764BCA
:102300009821415800680A5822402A430A5013E095
:10231000280275490E4649698143BB4A12689423D5
:10232000D35814681D5905400D431D516A4B30693F
:1023300098215158126888500A20C143595C2124C1
:10234000002901D0C0431C5C1888002806D00498DE
:1023500080B21988081A00210F1A47410025284623
:10236000FFF728FA002804D0002F12D0232C45D3E1
:1023700011E0002F0DD0222C0DD8A3480068406832
:102380005E494258FF231B065B1E13404350002545
:1023900035E0584A00E0584A9B4C2068066A012103
:1023A0003046FEF797FC002828D12068B02140581D
:1023B00031580029FCDBF068000EA0281FD01DE07A
:1023C0004C48821C002F10D0222C0DD88E4800685B
:1023D00041684A4A8B58012424061C438C503E4ACB
:1023E0001188002920D124E0454A874C2068056ADD
:1023F00001212846FEF76EFC002806D0374D0398D1
:10240000FEF76AF8284605B0F0BD2068B0214158B3
:102410006A58002AFCDBE968090EA0292F4D2E4AD4
:10242000EDD11188002904D0049989B212888A421A
:1024300011D19421415802688B580F24E443234062
:1024400002252B438B509821415800680A5822409E
:102450002A430A5010E003210902234A936B8B435D
:1024600094240459056867590F401F436751516B05
:1024700098228258006811501F2006401B490A68A4
:10248000824332430A6014490888002804D0049823
:1024900080B2098881420ED15B480068942141587E
:1024A00000680A5807231B039A4303235B03134363
:1024B0000B500025A3E7032000020B49C9688143A4
:1024C000514A12689423D35812689C5804400C4314
:1024D0009C50002593E7C0460C0000160400420003
:1024E00040070016307F2640101800161CFF2640BB
:1024F00070AF01080100000C0100003018F000006E
:102500000101003010B50B49042804D10A680420E9
:102510001043086010BD3C4A12689C23D358032422
:102520002406000620401268985008680422904350
:10253000086010BD10E000E07047000070B50C4668
:1025400041400905090F01D0154870BD01256E02F3
:10255000590231402B02002A00D11346C5B21D4357
:102560000D43FDF7B5FF284909686A228A5A662398
:10257000CB5A23401B0A534368268E5B896889190E
:10258000C9189208104BD218224092008B58054C63
:102590001C402C438C50FDF79FFF002070BDC046AF
:1025A0000100CE0000FCFFFF06480168064A11400A
:1025B000521C0A4302600121C90702680A430260F3
:1025C0007047C04680012640FFFFFF3FFEE770478F
:1025D00010B582B00C480068006A0C4942580124CA
:1025E00021060A4203D0432292018150805801A85B
:1025F00001F0E2FC06480199814202D12007054919
:10260000086002B010BDC04670AF0108CC100000D9
:10261000C650CFA504ED00E010B504460178881E31
:1026200003281CD87844007940008744011D344BAE
:10263000606821460831FEF7F9FE002855D1606830
:1026400021461431FEF732FF00284ED16068FFF7B3
:1026500069F8002849D16068FFF77AF810BD25A015
:1026600006F0D2FA2B4810BD606821460831FEF70B
:1026700097FD002839D1606821461431FEF7C6FD68
:10268000002832D16068FEF7D1FF00282DD16068A4
:10269000FEF7E0FF10BD606821460831FEF75AFEE4
:1026A000002822D1606821461431FEF789FE0028F7
:1026B0001BD16068FFF70EF8002816D16068FFF79D
:1026C0001DF810BD606821460831FEF7D5FD0028D1
:1026D0000BD1606821461431FEF704FE002804D1B6
:1026E0006068FEF7CDFF002800D010BD6068FEF7DF
:1026F000DBFF10BD556E657870656374656420708E
:1027000065726970686572616C20747970652025E6
:10271000640A00000100C200EFF3098001B5F0B4C3
:1027200044464D4656465F46F0B4684602F022FDE8
:10273000F0BCA046A946B246BB46F0BC03BC8E46E0
:1027400080F3098870470000F0B583B00446006844
:102750004A4940180621C8410F2807D880004D4932
:102760000A58607A002805D14BA004E044A2607AA0
:102770000028F9D049A06368217A6E4602252F46C9
:102780008F403760706047A056A106F03DFA211DCA
:10279000607A002859D00291207A29468140C908E0
:1027A00054A006F031FA607A01275A4E3842324678
:1027B00000D0594A5948002106F026FA607A28428A
:1027C000324600D0544A5548394606F01DFA607A20
:1027D00004273842324600D04F4A5048294606F076
:1027E00013FA607A08210842324600D04A4A03218F
:1027F0004A4D284606F008FA607A1021084232460F
:1028000000D0454A2846394606F0FEF9607A202174
:102810000842324600D0404A0521284606F0F4F925
:10282000607A40210842324600D03B4A06212846C1
:1028300006F0EAF909202056002800DA364E072172
:102840002846324606F0E0F902992068FEF7B0FE0D
:1028500000280BD1206821461031FEF775FE0028B4
:1028600004D12068FEF798FF002801D003B0F0BD26
:102870002068FEF785FF03B0F0BDC04600E0DBBF77
:10288000556E7265636F676E6973656420534D5052
:102890005500000090630810616C6C00736F6D65EB
:1028A00000000000257328257329202D2061646411
:1028B00072657373203D2025702C2073697A652022
:1028C0003D202523782062797465732C20257320A0
:1028D000737562726567696F6E7320656E61626C95
:1028E00065640A00534D50555F436F6E66696775A6
:1028F0007265000009737562726567696F6E207397
:10290000697A65203D202523782062797465730AF1
:10291000000000007888081080880810F0870810F0
:1029200004207146084202D0EFF3098000E07047AE
:10293000714602F013F90047F0B585B00B38122844
:1029400000D983E04000C046784480884000874436
:10295000120028003E0057007D008F0095009B006C
:10296000A600B100BA00C5001F0134017C01A3011B
:10297000EA0114023102086802F024FA002801D1A9
:1029800002F0F6FB02F0E8FF002801D102F0F0FBB4
:1029900002F0EEFB0024204603F0BFF8204605B00D
:1029A000F0BD086802F00EFA002801D102F0E0FB49
:1029B00002F0D2FF002801D102F0DAFB02F0D8FBCE
:1029C0000024204603F0A6F8204605B0F0BD0029FB
:1029D00000D103E260C902F0BFFF0446002801D124
:1029E00002F0C6FBA565002E05DAA068284202D1D8
:1029F000204602F0F7F8A4682C40204605B0F0BD50
:102A0000002900D1F0E10C6802F0A6FF054600287D
:102A100001D102F0ADFB02F0ABFB204602F0D2F98F
:102A2000002801D102F0A4FBA868204202D102F0E4
:102A30009FFBA868A043A8600024204603F048F844
:102A4000204603F06AF8204605B0F0BD052080015D
:102A5000BF30EFF30581014200D1CCE1FA48FB49D8
:102A600006F0D2F80020C443833C204605B0F0BDF8
:102A700003F080FB0024204605B0F0BD02F009FD04
:102A80000446204605B0F0BD002900D1BCE108682D
:102A9000002102F005FD0446204605B0F0BD0029E6
:102AA00000D1B7E103C9002202F0AAFC0446204687
:102AB00005B0F0BD00220846114603F0F7FA0446BF
:102AC000204605B0F0BD002900D1A9E10868002426
:102AD000214602F06AFC204605B0F0BD002900D175
:102AE000A4E130C9204601F029FF012801D002F0FD
:102AF0003FFB02F031FF0646002801D102F038FB0F
:102B0000F06D406803F07CFA6946086030210027C8
:102B1000022328463A4602F0B7FA002801D002F014
:102B200027FBB068002802D102F022FBB0680495B0
:102B3000204201D102F01CFB02963046039421464C
:102B400002F04EFF0546002801D102F011FB1035BE
:102B5000284602F0BBFA0146FE4334468B3C00286F
:102B600000D196E014313022049806F0CBF92846C3
:102B700002F0CFFA00283C4600D18AE00399714068
:102B8000029A9068084090600024204605B0F0BD8D
:102B9000002900D150E111C902F0B6FE0546002817
:102BA00001D102F0E5FA2C626868A968224603F0B8
:102BB00067FA0024204605B0F0BD002900D147E1A6
:102BC00041C90A6804924968039102F09DFE0746D4
:102BD000002801D102F0CCFA78684068C06D4068E6
:102BE00003F00EFA02907869002801DA02F0C0FAC8
:102BF000042E01D302F0BCFAB0003D18686A2435F7
:102C00000024002845D06846029901600022022372
:102C10000498039902F038FA002801D002F0A8FACB
:102C20002C680398A04200D80446F0003E18716C4E
:102C30000498224606F066F9706C001970642868E2
:102C4000001B2860204605B0F0BD002900D107E137
:102C5000C1C902F059FE0546002800D11EE168698D
:102C6000002800DA20E1042E01D302F081FAB0003E
:102C70002818416A2430002400290AD08F420C46CB
:102C800000D83C46F200AA18536C1B195364091B68
:102C90000160204605B0F0BD002900D1E8E021C95F
:102CA0000A6804924C6802F02FFE0646002801D103
:102CB00002F05EFA70684068C06D406803F0A0F9E9
:102CC00003907069002801DA02F052FA042D01D352
:102CD00002F04EFAE8003718B86EA9007118496B77
:102CE000081A3D466835844201D902F041FA684627
:102CF0000399016000220123049E3046214602F020
:102D0000C3F9002801D002F033FA786E2968401820
:102D10003146224606F0F6F828680019286000249B
:102D2000204605B0F0BD002900D1A9E041C902F05C
:102D3000EBFD0446002800D1BCE06568002D00D101
:102D4000BEE06069811C00D1C0E0411C00D0C6E03B
:102D50000020C043014681393246833200D1FBE076
:102D60003046823000D1F9E0002E00D0EDE0A168BD
:102D7000E069002800DDF7E0F3E0002900D186E0FB
:102D80000C68002C01DC02F0F3F9204602F0D6FDBD
:102D90000446002801D102F0EBF9A06808220243A2
:102DA000A260A16D1140204601F040FF00242046A2
:102DB00005B0F0BD02F0D0FD0446002801D102F0BC
:102DC000D7F9A0680825284202D102F0D1F9A068FD
:102DD000A843A0600024204605B0F0BD73489E497A
:102DE000AA2205F011FFFEE71B2042016F4870A1E7
:102DF00005F00AFFFEE79C48004607DF0020C443B9
:102E0000833C204605B0F0BD684896492E2205F067
:102E1000FBFEFEE765489249392205F0F5FEFEE724
:102E200062488E49922205F0EFFEFEE75F4885A1D9
:102E3000E82205F0E9FEFEE7052082015B488049B3
:102E400005F0E2FEFEE7C0462F790810427908102F
:102E5000052082012E32554874A105F0D5FEFEE70B
:102E600005208201803251486BA105F0CDFEFEE7BE
:102E700005208201CB324D4861A105F0C5FEFEE779
:102E8000504A1E32494858A105F0BEFEFEE74D4AA1
:102E9000AA3246484CA105F0B7FEFEE702F068F9F9
:102EA0006869002800DBDEE602F062F9042E00D338
:102EB000DBE6DCE602F05CF96568002D00D040E757
:102EC00002F056F96069811C00D03EE7A1682846EF
:102ED00002F0CEFC0021E069002845DC41E000283A
:102EE00033DB0021002E0FD03D48411C02467F3AC3
:102EF000964201D08E4204DB864251D8002E3146E4
:102F000002DC02F035F900212069E269002A01DCC7
:102F1000002802D04069022835D1606B00281DD0FE
:102F20008420205822466832234638330025ED435A
:102F3000AE0096590768B7422BD116684660083232
:102F4000083040CB002EF3D108E002F011F9002147
:102F5000E069002808DC04E082380146E0690028C6
:102F600002DC2069002807D00C34204601F05EFE08
:102F70000024204605B0F0BD0024204602F0A6FA49
:102F8000204605B0F0BD094816490E4A05F03CFE42
:102F9000FEE70C48021D0548124905F035FEFEE724
:102FA00031462069E269002AB2DDB3E7EA78081009
:102FB00074666D5F737663616C6C5F7073615F657F
:102FC0006F6900004E02000074666D5F7376636186
:102FD0006C6C5F7073615F6E6F746966790000007E
:102FE0007F0000809079081074666D5F737663616E
:102FF0006C6C5F7073615F7265706C7900000000CB
:1030000074666D5F737663616C6C5F7073615F771C
:10301000726974650000000074666D5F73766361A9
:103020006C6C5F7073615F736B69700074666D5F69
:10303000737663616C6C5F7073615F72656164006D
:103040006079081074666D5F737663616C6C5F7095
:1030500073615F6765740000D77908107B79081089
:10306000C0790810A979081042790810F0B581B02C
:103070008A4F38680F2202409300184638433F2198
:10308000C943445807210C40042C08D85C48C0466A
:103090007C4424796400A7440302020229005948B1
:1030A000002A33D0511E012900D980E08900564AF8
:1030B0008D18B8216E5801210E40AA6F03231B07FB
:1030C0001A40AC6F78351C425CD02C681C400F074E
:1030D000E71B7C1EA7410024A41B74413C436F4F97
:1030E0004C409A4254D0002C61D051E0F8187F2314
:1030F000DB43C0581F2303407D200002132B01D067
:10310000112BCDD10120C003002ACBD13E4A9468B7
:1031100001252C40032300931B0717681F401668E6
:103120001E4210D016681E402A07B21A561EB2411F
:103130000026361B664116436E409F420DD0002E7E
:103140000BD1564F33E00022161B66416E409F4262
:1031500003D0002E01D1514F29E0CC432A4F3959D9
:103160002A4E0E400099C9437A582949114006F069
:103170001BFC70433959090E2940491C06F014FC08
:10318000464F14E00024A41B74414C409A42AAD13B
:1031900029687F220A4050432968090A1F242140D8
:1031A00006F002FC2968090C214006F0FDFB396895
:1031B000090903220A40D040164DA86016490C6840
:1031C0000968090E491C06F0EFFBE860210AC9B244
:1031D000491C06F0E9FB0446686028610F48201886
:1031E0000F4906F0E1FB28700E4820187D21C90028
:1031F00006F0DAFBC1036861A96101B0F0BDC04609
:1032000000127A0000366E0188052640FFFF030099
:10321000FF1F000040A00108100021403F420F00A6
:1032200040420F00E703000010B51848FDF784FF87
:103230001748184901600124E107174802688A43CA
:10324000026016490A6830239A430A602106016029
:10325000134941600521C9028160FF21C160FFF768
:10326000A3F910480168A1430160FFF765F9FFF772
:10327000FDFE0D480178002902D00078212803D1F5
:103280000A4800218160016010BDC046D873081053
:1032900008ED00E000040810800526408003264069
:1032A000010002008001264001000016E4002340D6
:1032B00010B5244824A105F0A7FC0E2000213823D6
:1032C0000A46FDF759FF0146002837D10E20062196
:1032D000FEF77CFA0146002830D10F200021402360
:1032E0000A46FDF749FF0146002827D10F20072194
:1032F000FEF76CFA0146002820D10124072320465E
:1033000021462246FDF738FF0146002816D101204C
:103310000146FEF75BFA014600280FD10020072383
:1033200021462246FDF728FF0146002806D100204D
:103330000121FEF74BFA0146002802D007A005F054
:1033400063FC10BD697A08107365745F6275735F02
:103350006D61737465725F61747472007365745F1C
:103360006275735F6D61737465725F6174747228E6
:10337000292072657475726E6564202523780A00B1
:10338000F0B50024E543CF431F26B84207D890424A
:1033900004D3401840199842264600D91F26F0B29F
:1033A000F0BD0000B0B581B0002300931D2252068D
:1033B000009C144300940904009A0A4300920002FE
:1033C0000099014300910124009820430090144982
:1033D00000980860134A1D460B20C04308585B1C28
:1033E000954201D20028F6DA0020C043954215D25A
:1033F0000323DB43CC50002423464D68641C9342D6
:1034000001D2002DF8DB934208D208680090052015
:1034100041070020009A8A4200D0009801B0B0BD58
:103420000C002340983A0000FEE770477047000008
:1034300010B582B0044601A8047003494A6901210D
:103440009047204602B010BDB4650810B0B50146E3
:103450000020C0434A1C0ED0084B5A68002A0AD0EC
:103460009B685C3300241D682D688D4204D068334E
:10347000641C9442F7D3B0BD2046B0BD10A0010833
:10348000F0B589B00E4607461F25002800D19DE003
:10349000F043874200D999E005950492EFF3058047
:1034A000002801D101F064FE0125280208AC039038
:1034B000208038463146224602F030FB20880295B3
:1034C000284203D1059D284609B0F0BD1224049975
:1034D0000C400022111B6141039B1840000A484028
:1034E000002803D0059D284609B0F0BD06A88271CA
:1034F0004271027102980004069008A840780028E2
:10350000059D019205D006AA3846314602F014FB0B
:1035100004E006AA3846314602F00AFB049B039EEB
:1035200006A88188807900040843069931424DD06D
:103530001A46029D2A40002C19D0002A0BD00246C0
:103540003240CB01049B01D4002A04D00540C203C1
:103550002BD4002D2DD11A0705D53040C90120D418
:103560000028019D32D11F25284609B0F0BD002A50
:103570000BD002463240CB01049B01D4002A04D078
:103580000540C2031DD4002D1FD11A0705D53040B8
:10359000C90112D40028019D18D11F25284609B061
:1035A000F0BD019D284609B0F0BD019D284609B037
:1035B000F0BD019D284609B0F0BD019D284609B027
:1035C000F0BD019D284609B0F0BD019D284609B017
:1035D000F0BD80B500F00AF800F0A2F800F000F9A4
:1035E00000F02EFA00F000FC80BD0000F0B588B0BD
:1035F000744801686C20085C07906D20085C012409
:1036000027468740A2070492384610438A68A302DF
:10361000D0507220085A15583E4E2E403E4D35432C
:1036200015506E200A46085C079D85406F200E5C91
:1036300003200290B0402843069007430194E0071E
:10364000059007438D68EF50EF58049EEE507027A9
:10365000C95B0391174600926858304A1040685081
:10366000069D284605990843B968C850C858079F61
:103670003846204005433043C850039C0819416830
:10368000264A1140072636020E4346600598054338
:10369000009A9068C550C15802213940069D0D43DB
:1036A000049E3143C150001981681C4C21401B26E7
:1036B000B6020E438660059F3D4390681646C5508E
:1036C000C158029A07990A4006991143049C224363
:1036D000C250039A8018C268104D2A40019D2D02E5
:1036E0001543C5603943B068C150C15804220799D9
:1036F0000A401443C450039940180169FF252D0264
:103700000D430561069802433A43B068C250C05861
:1037100008B0F0BDFF0000FF00E70300FF00FFFF5F
:10372000F0B5284800683D21415C342929D36C223A
:10373000825C042313408468274D635102231340A5
:103740008468214D63510124144085681F4EAC519B
:1037500084681F4D635103460833032414401A68DC
:10376000C7252D0154511A681A4B0024D4503B2907
:1037700026D36D21415C01228A408068174942505E
:10378000F0BD03291CD36C22825C022414408368A0
:103790000D4D5C5103460833032911D00125154016
:1037A0001E680A4FF55106290AD31D68084EAC5110
:1037B0001C29D2D80A2903D318680649002242508E
:1037C000F0BDC04670AF0108080C00000C0C0000F2
:1037D000140C0000240C0000CC0C0000E80C0000CD
:1037E000F0B589B06B4F002103916B4A3846FDF765
:1037F0009DF90124694A384621460894FDF796F957
:1038000003210591664A3846FDF790F90425654A7B
:10381000384629460495FDF789F9634E634A3046D8
:103820002146FDF783F902210691614A3046FDF7F2
:103830007DF9604A30460599FDF778F95E4A3046D1
:103840002946FDF773F9052102915C4A3046FDF7E0
:103850006DF9062107915A4A3046FDF767F90724AA
:10386000584A304621460194FDF760F9564E3046DD
:103870008038564A2146FDF759F9554A3046039C8F
:103880002146FDF753F9534A3046089E3146FDF76D
:103890004DF98037504A38463146FDF747F94F4ACF
:1038A0003846029D2946FDF741F94D4F4D4A3846AD
:1038B0002146FDF73BF94C4A38463146FDF736F9CB
:1038C0004A4A38460699FDF731F9494A3846059C77
:1038D0002146FDF72BF9474A3846049E3146FDF74D
:1038E00025F9454A38462946FDF720F9434A384626
:1038F0000799FDF71BF98037414A3846039D294651
:10390000FDF714F93F4A38460899FDF70FF93E4A8A
:1039100038460699FDF70AF93C4A38462146FDF734
:1039200005F93B4A38463146FDF700F9394A384631
:103930000299FDF7FBF8384E30468038374A294661
:10394000FDF7F4F8364A304629462C46FDF7EEF8E6
:10395000344A3046089D2946FDF7E8F8324E334A8E
:1039600030462146FDF7E2F8314A30462946FDF758
:10397000DDF8304A30460499FDF7D8F82E4A304633
:103980000799FDF7D3F82D4A30460199FDF7CEF897
:1039900009B0F0BD000032405C730810907308104D
:1039A00098670810247208108005324030670810AC
:1039B000F06808108868081054680810206808101B
:1039C000EC670810BC68081000073240FC6608105D
:1039D000207508105475081064670810C866081030
:1039E000000132408C6C0810C06C0810F46C081098
:1039F000286D0810586C0810246C0810EC6508102D
:103A0000EC64081020650810B8640810846408107D
:103A1000506408101C64081080023240E8630810EB
:103A2000F472081028730810000332402066081052
:103A300054660810C07208108C7208105872081072
:103A4000F0B589B000209621FEF74CFB0124E50774
:103A5000D44FFEF729FB00280FD1FEF735FBD248E3
:103A60000068204203D1681E396801403960386817
:103A70002843386038682043386001242046FEF728
:103A80008FFBCA4A1168CA4E31401D2040020143D3
:103A90001160FF210491090212680A40824206D196
:103AA000C2490B460968C34A0A4002431A60069598
:103AB000C14800683C210891415CC04B002903D0FB
:103AC000196830229143196084210191415802689C
:103AD0008B5833408B508026815902688B58B84DE3
:103AE0002B406D1C1D438D500596815902688B58E3
:103AF000AF4D2B408B503B21405C6507B14E0028F9
:103B00000CD0B14C20683040284320600120FEF7E3
:103B1000C1FA0698401E216801402160012400215D
:103B20002046FEF713F8A54800680F2107910842C8
:103B300013D10020FDF7F8FF0499123188420CD10F
:103B40009D4800680899405C002806D09B480146C3
:103B50000068079A904320430860F86F304028437C
:103B6000F8670698411E786F08407867059AB8583C
:103B700003910840B85000200146FDF7E7FF8E484A
:103B800000680899405C002805D08C480146006810
:103B9000079A904308600025684605608B4E3046C2
:103BA00029462A462B46FCF78FFF6846056001240C
:103BB000304621462A462B46FCF786FF4320C34366
:103BC0007A480246C058082101430293D15033205D
:103BD000C54350590426304212D17D480746012082
:103BE000FEF758FA714841593140781C002F01D036
:103BF0000029F3D0002F6B4F02D10520FFF714FCF2
:103C00000B20C04339580322914321433950F84DCA
:103C100028680199415802688B58654E33408B5093
:103C20002646059C015902688B58654D2B408B50E8
:103C30000159344600680A585D4B1A400A50002169
:103C40003046FDF783FFFA4800680899405C002879
:103C50005A4E04D0306807998843204330600024CE
:103C600020462146FDF772FF02202146FDF76EFF38
:103C700003202146FDF76AFF04202146FDF766FF79
:103C80005448FEF713F80028069D02D00420FFF7E1
:103C9000CBFB5148FDF784FF002802D00420FFF73A
:103CA000C3FBF64800680899405C002807D03068DC
:103CB00007998843306030683021884330600124A0
:103CC00000212046FDF742FF44492046FEF778F8E0
:103CD000002802D00320FFF7A7FB0124404920461B
:103CE000FEF738F8002802D00320FFF79DFBE348D9
:103CF00000680899405C022826D37168079A9143AE
:103D000021437160726830218A43726072682A436D
:103D10007260022818D0B268079B9A43B260B268FA
:103D20008A4310231343B360B2682A43B260042865
:103D30000AD3F068079A90432043F060F068884304
:103D4000F060F0682843F0600720C0433958039AB8
:103D5000114039503958234A114039503958049A82
:103D600012049143395039582943395026462C467C
:103D700000252846FEF7C6FB0C480246029BC058A9
:103D80001849491C0140D1503868204338603868D0
:103D90003043386064212846FEF7A4F9FFF766F93E
:103DA00009B0F0BD0C0526408001264044002740A4
:103DB000FF00FFFFFFC5FFDF70AF01088003264053
:103DC000FFFFFF00FFFFFFCF00062640000032404C
:103DD000C1BDF0FF08780810400D03001C780810E2
:103DE00010270000FEFCFFFF70B5012085072E2084
:103DF0000024294622462346FEF7A0FB691C2F20FB
:103E000022462346FEF79AFB164D691C164E304695
:103E100022462346FEF792FB701C291D22462346AC
:103E2000FEF78CFBF01CE91C22462346FEF786FBBE
:103E3000F01D294622462346FEF780FBFF252C3540
:103E40000A4EB11C284622462346FEF777FB681C23
:103E5000314622462346FEF771FB054833210160B7
:103E6000816070BD000E0040010E000001010040A5
:103E70000820314080B500F0F9FF80BDF0B581B079
:103E80000022002800D002681B4DEC6A002C2AD0CA
:103E9000002A02D0D0B201282CD12F680126374247
:103EA0001FD12420285C28220092504320180B0E9A
:103EB0002F2283540A0C2E23C2540A0A2D23C254E3
:103EC0002C228154281D009905F0E6F837432F6015
:103ED00000F082FFA0683043A06000F085FF00F092
:103EE000C3FF01B0F0BDFF222C320448044904F0A6
:103EF0008BFEFEE7FEDEC04644B20108EA780810F9
:103F0000377A081080B500F0B1FD002801D001F02B
:103F10002FF901F0E7FB002801D001F029F900F0AA
:103F2000FCFC0420C043002101F066FE002805D0FF
:103F300001F01EF901F0CEFE002080BDFF2000043C
:103F400005490A688243032080051043086001F098
:103F5000C1FE002080BDC04620ED00E0002070477B
:103F600080B5034803A104F04FFE002080BDC04689
:103F7000697A08106E7669635F696E74657272752E
:103F800070745F7461726765745F73746174655F88
:103F90006366670080B50748FDF7CEF8FFF719FBA9
:103FA000FDF7CEF8FDF7B0FF032801D1FDF764FF60
:103FB00080BDC046D873081070B501461B4C002860
:103FC0000BD02E4D2868AC26825BD200006A1018F8
:103FD000FCF770FEA41C002801D0204670BD2868A4
:103FE000815BC900006A081800244460204670BD47
:103FF00070AF010870B501460C4C00280BD01F4D66
:104000002868AC26825BD200006A1018FCF752FECA
:10401000A41C002801D0204670BD2868815BC9001F
:10402000006A081800244460204670BD010000802A
:1040300070AF010880B5024610480068AC21415AB3
:1040400009234B43006A18182021FCF743FE00287F
:1040500000D0014880BDC0460200008007480068CB
:10406000006A074942180121090613680B42FCD077
:1040700043229201815080587047C04670AF0108BA
:10408000CC10000080B5054805A104F0BDFD08482E
:10409000FEF7C2FA0146002828D00BE0697A081022
:1040A0007070755F696E69745F6366670000000019
:1040B000CC67081001A004F0A7FD17E05050555F31
:1040C000436F6E66696775726528265052345F507B
:1040D00050555F5265736F75726365732920726501
:1040E0007475726E6564202523780A000348FEF714
:1040F00093FA0146002823D002E0C0469C6D0810C8
:1041000001A004F081FD1BE05050555F436F6E66C7
:1041100069677572652826534C5F43525950544F56
:104120005F5050555F5265736F75726365732920D8
:1041300072657475726E6564202523780A0000002C
:10414000FE48FEF769FA0146002802D0FC4804F058
:104150005BFDFC48FEF760FA0146002802D0FA48F1
:1041600004F052FDF948FEF757FA0146002802D044
:10417000F74804F049FDF748FEF74EFA01460028DB
:1041800002D0F54804F040FDF448FEF745FA014638
:10419000002802D0F24804F037FDF248FEF73CFA5E
:1041A0000146002802D0F04804F02EFDEF48FEF74B
:1041B00033FA0146002802D0ED4804F025FDED4811
:1041C000FEF72AFA0146002802D0EB4804F01CFD55
:1041D000EA48FEF721FA0146002802D0E84804F038
:1041E00013FDE848FEF718FA0146002802D0E64819
:1041F00004F00AFDE548FEF70FFA0146002802D058
:10420000E34804F001FDE348FEF706FA0146002802
:1042100002D0E14804F0F8FCE048FEF7FDF9014661
:10422000002802D0DE4804F0EFFCDE48FEF7F4F987
:104230000146002802D0DC4804F0E6FCDB48FEF72B
:10424000EBF90146002802D0D94804F0DDFCD9483A
:10425000FEF7E2F90146002802D0D74804F0D4FC6A
:10426000D648FEF7D9F90146002802D0D44804F018
:10427000CBFCD448FEF7D0F90146002802D0D24842
:1042800004F0C2FCD148FEF7C7F90146002802D06D
:10429000CF4804F0B9FCCF48FEF7BEF9014600282C
:1042A00002D0CD4804F0B0FCCC48FEF7B5F9014689
:1042B000002802D0CA4804F0A7FCCA48FEF7ACF9AF
:1042C0000146002802D0C84804F09EFCC748FEF70B
:1042D000A3F90146002802D0C54804F095FCC54862
:1042E000FEF79AF90146002802D0C34804F08CFC7E
:1042F000C248FEF791F90146002802D0C04804F0F8
:1043000083FCC048FEF788F90146002802D0BE4869
:1043100004F07AFCBD48FEF77FF90146002802D080
:10432000BB4804F071FCBB48FEF776F90146002853
:1043300002D0B94804F068FCB848FEF76DF90146B0
:10434000002802D0B64804F05FFCB648FEF764F9D6
:104350000146002802D0B44804F056FCB348FEF7EA
:104360005BF90146002802D0B14804F04DFCB14889
:10437000FEF752F90146002802D0AF4804F044FC91
:10438000AE48FEF749F90146002802D0AC4804F0D7
:104390003BFCAC48FEF740F90146002802D0AA4891
:1043A00004F032FCA948FEF737F90146002802D094
:1043B000A74804F029FCA748FEF72EF9014600287B
:1043C00002D0A54804F020FCA448FEF725F90146D8
:1043D000002802D0A24804F017FCA248FEF71CF9FE
:1043E0000146002802D0A04804F00EFC9F48FEF7CA
:1043F00013F90146002802D09D4804F005FC9D48B1
:10440000FEF70AF90146002802D09B4804F0FCFBA5
:104410009A48FEF701F90146002802D0984804F0B6
:10442000F3FB9848FEF7F8F80146002802D09648BA
:1044300004F0EAFB9548FEF7EFF80146002802D0A9
:10444000934804F0E1FB9348FEF7E6F801460028A4
:1044500002D0914804F0D8FB9048FEF7DDF8014601
:10446000002802D08E4804F0CFFB8E48FEF7D4F827
:104470000146002802D08C4804F0C6FB8B48FEF7AA
:10448000CBF80146002802D0894804F0BDFB8948DA
:10449000FEF7C2F80146002802D0874804F0B4FBBA
:1044A0008648FEF7B9F80146002802D0844804F097
:1044B000ABFB8448FEF7B0F80146002802D08248E2
:1044C00004F0A2FB8148FEF7A7F80146002802D0BD
:1044D0007F4804F099FB7F48FEF79EF801460028CC
:1044E00002D07D4804F090FB7C48FEF795F8014629
:1044F000002802D07A4804F087FB7A48FEF78CF84F
:104500000146002802D0784804F07EFB7748FEF789
:1045100083F80146002802D0754804F075FB754801
:10452000FEF77AF80146002802D0734804F06CFBCD
:10453000BFF34F8FBFF36F8F80BDC0467C6D0810F7
:104540001E8708101C6E0810538708109C6E0810F8
:104550009E8308105C6F081088870810DC700810B4
:10456000EA860810DC6D08108B7C0810FC6D0810C2
:10457000EA7D08103C6F0810A0840810046B081036
:10458000477F0810246B0810AF800810446B081098
:104590005E810810646B08100D820810846B08108F
:1045A000BC820810246A0810AA7D0810446A08100A
:1045B000D37E0810646A081004800810846A08100A
:1045C000EA800810A46A081099810810C46A0810CB
:1045D00048820810E46A0810F7820810246908105D
:1045E000097C081044690810287D081064690810C7
:1045F000517E081084690810827F0810A469081091
:104600004A7C0810C4690810697D0810E469081024
:10461000927E0810046A0810C37F0810046C08100A
:10462000BC870810C46B0810DE850810A46B081046
:1046300078800810E46B0810D18308105C6E0810B5
:104640003E8508103C6E0810738508109C70081099
:10465000A78508103C7108106B830810DC6E0810E9
:1046600018860810BC6D08103A840810FC700810F9
:10467000D37B08101C710810F27C0810BC6E081067
:10468000078408105C6D08106D8408105C710810B8
:1046900081860810BC700810D78408107C6F081041
:1046A0009F7B08109C6F0810BE7C0810BC6F081020
:1046B0001D7E0810DC6F0810137F0810FC6F0810B7
:1046C000448008101C7008102A8108103C700810E3
:1046D000D98108105C700810888208107C7008105E
:1046E00037830810FC6E0810B68608107C6E081020
:1046F0004E8608101C6F08100B850810F0B581B0AD
:1047000000240F4D19A7204E6868696A01430029EB
:104710000FDB0CA03946224604F076FA28463146D3
:10472000FCF712FF002809D12846FDF729F80028D8
:1047300004D14035641C0020102CE5D301B0F0BD3D
:104740000020244025732829202D2070726F746565
:104750006374696E6720756E636F6E6669677572E4
:10476000656420534D50552025640A0070726F74A3
:104770006563745F756E636F6E6669677572656495
:104780005F736D70757300001C77081010B52B48AF
:104790002BA104F039FA012080022D4C21182D485C
:1047A00004F032FA2CA0214604F02EFA36482118E3
:1047B00036A004F029FA4248FDF7C6FF014600285A
:1047C00002D0404804F020FA3F48FDF7BDFF014603
:1047D000002802D03D4804F017FA3D48FDF7B4FF29
:1047E0000146002802D03B4804F00EFA3A48FDF793
:1047F000ABFF0146002802D0384804F005FA3848DB
:10480000FDF7A2FF0146002802D0364804F0FCF96B
:104810003548FDF799FF0146002802D0334804F0DF
:10482000F3F9FFF76BFF0146002802D0304804F08F
:10483000EBF9BFF34F8FBFF36F8F10BD697A08108C
:10484000736D70755F696E69745F63666700000001
:10485000000000106F7A08106D656D6F72795F72DD
:104860006567696F6E732E6E6F6E5F7365637572C9
:10487000655F706172746974696F6E5F62617365A0
:10488000203D202523780A00FFFF03006D656D6F32
:1048900072795F726567696F6E732E6E6F6E5F738C
:1048A00065637572655F706172746974696F6E5F5C
:1048B0006C696D6974203D202523780A0000000092
:1048C00098710810C67A0810087208107B7B0810CF
:1048D000EC710810577B0810D0710810337B08105A
:1048E000B47108100F7B08107C710810EB7A081067
:1048F0009B7A081010B5054CA16800208847E1207C
:104900004102A26A0120904710BDC046B46508105C
:104910000222D24301624262704770471121016056
:1049200000487047C473081003200003704700005C
:104930001721016000487047908808100021002866
:1049400006D00021421E1040491C0028FAD1C9B2ED
:1049500008467047F0B587B0044607894668007876
:10496000069000F0F9FF0546002801D100F000FC98
:10497000E86D406801F044FB6946086000250223A9
:10498000304639462A4600F07FFB0322002839D101
:1049900093480078012835D10120C04339461F4F84
:1049A000385AC019031F04292CD3049104207080A5
:1049B0008A483080BB4228D902950192301D039469
:1049C000BA78F9780D021543797809020A0B06992D
:1049D000914213D1811B4A1904998A4219DC394644
:1049E00005902A4634461E4604F08CFA0598334654
:1049F0002646039C71884919718040197F199F428E
:104A0000DED3029A226007B0F0BD2A46226007B0CA
:104A1000F0BD019A226007B0F0BDC04604800108D5
:104A2000B0B50C251F24002B02D0012B09D108257D
:104A300012232B43002A00D01D46EAB2FEF720FDC8
:104A400004462046B0BDB0B505251F24002B02D07A
:104A5000012B09D1012512232B43002A00D01D462A
:104A6000EAB2FEF70DFD04462046B0BDF0B581B0B8
:104A700001F051F81F24002826D101F0DFF80028AA
:104A800022D101F067F800281ED101F098F8002823
:104A90001AD12248EFF30581014204D020A0254914
:104AA00004F0B2F802E02348004607DF22A001210B
:104AB00004F0AAF800F086F801F064F8002803D1A9
:104AC00001F079F8002802D0204601B0F0BD1F485F
:104AD00000680090002814D01D4F083700263D685C
:104AE0007968284601F088F80028EDD10021284691
:104AF00001F080F8761C0028E6D110370098864235
:104B0000EDD301F054F80028DED1124800240460EF
:104B100011480460204601B0F0BDC046FF0100000E
:104B20005B5365632048616E646C65725D2025731C
:104B30000D0A00001C7A081054464D206C657665FD
:104B40006C2069733A2025640D0A00008C880810D7
:104B50008C8808100400010800000108B0B50C465C
:104B600005460120C043A969085C072808D0082829
:104B70000CD00F280FD1284600F08EFC2046B0BD87
:104B8000296808A004F040F82046B0BD2846FFF789
:104B9000E1FE2046B0BD29462246FDF7CDFE286045
:104BA0002046B0BD1B5B313B33346D5B53656320E6
:104BB0005468726561645D2025731B5B306D0D0A5E
:104BC00000000000044800880449884202D10448DB
:104BD000012101707047C0460080010816200000C6
:104BE0007CAF010810B5044600280CD020680949A4
:104BF000884208D101F0F4FA6060022101F00CFB58
:104C000001F0C2FA10BD044804A10D2203F0FCFF1C
:104C1000FEE7C046746E7665EA78081074666D5FCC
:104C20006576656E745F776169740000B0B50C4697
:104C30000546002812D028680B4988420ED16868C2
:104C400000280AD04169022907D1012101F0E4FAC4
:104C50006868806B046001F097FAB0BD034804A156
:104C6000162203F0D1FFFEE7746E7665EA7808102D
:104C700074666D5F6576656E745F77616B65000065
:104C8000F0B581B014460D46064601201070C206EC
:104C90002F4F30463B46FEF773FB00281BD02D4AB2
:104CA0002D4B30462946FEF76BFB002817D07A1CA7
:104CB000414B30462946FEF763FB002813D03F4A9C
:104CC0003F4B30462946FEF75BFB00280FD0002003
:104CD000207001B0F0BD0020607001B0F0BD002078
:104CE000607001B0F0BD0120607001B0F0BD012026
:104CF000607001B0F0BDC046F0B581B014460D46FD
:104D000006460120507000271770C206104B30462F
:104D1000FEF736FB00280BD00E4A0F4B30462946D3
:104D2000FEF72EFB00280BD00020607001B0F0BD14
:104D30000120A07160712071E070A07001B0F0BD21
:104D400027710120E0706071A771A77001B0F0BDFC
:104D5000FFFF000800040010FFFB0310F0B581B056
:104D600014460D4606460120507000271770114A60
:104D7000114B3046FEF704FB00280BD00F4A104BB6
:104D800030462946FEF7FCFA00280BD00020607060
:104D900001B0F0BD0120A07160712071E070A070C1
:104DA00001B0F0BD27710120E0706071A771A7709C
:104DB00001B0F0BD00000108FFFF02080004081068
:104DC000FFFB0B1001460020002904D04A1E0A40B8
:104DD0000020801A5041704780B510200021FCF758
:104DE00045F90028F9D180BD80B510200021FCF7DD
:104DF000A3F80028F9D180BD70B582B00546002126
:104E00000191032420460A46FCF7E0F8134E0028DF
:104E100021D1FCF7D5F811281DD3AE20FFF70AF9F0
:104E2000FFF71CF901A8FFF7E5F80198E8620920EF
:104E30001F21FDF7DFF8FF20000209490A688243BD
:104E4000A003104308600120400206490860C32007
:104E5000FFF7F0F80026304602B070BD0700008072
:104E600008E400E000E100E000207047F0B591B0F8
:104E70006B4DEE6A002E3AD0FFF7AEFF7768FFF772
:104E8000B3FF002F39D08320C1430024F8070894D2
:104E900000D1AFE0069707912420002404902C5401
:104EA00028682F4601250290A8433860381D3146F6
:104EB0000C312022059004F025F80395BD623D4693
:104EC000786810940F940E940D940C940B940A949B
:104ED0000994401E042813D8784400794000874480
:104EE000021B222B3F0009A800F056FB3FE04E4872
:104EF0004EA1C82203F088FEFEE74A4811B0F0BD7B
:104F00002821059804F0C8F801200299014329607E
:104F100000240799069F6DE0A868099009A801215F
:104F200000F03EFB23E0A868E9680990109109A809
:104F3000012100F015FB1AE0A86801902F460C37FC
:104F40008ECFE869029001980A900B910C920D9314
:104F50000E9702980F9009A8012100F0BDFA06E013
:104F6000A8680A9009A8012100F0E0FA0798069FB6
:104F700069684A1E022A19D204996A5C28214A43A8
:104F8000EB6A9A18030E2F241355030C2E24135585
:104F9000030A2D2413552C23D054059804F07CF8D3
:104FA0002868012420432860079923E0032903D1BE
:104FB0000028079905D11DE000282FD00429079962
:104FC00018D104996A5C28214A43EB6A9A18030EA7
:104FD0002F241355030C2E241355030A2D24135587
:104FE0002C23D054059804F057F807992868039C9F
:104FF0002043286083314F40FFF7EEFE7068384051
:105000007060B0682043B060FFF7EEFE002C089897
:1050100002D0FFF729FF002011B0F0BD0799E9E7A2
:1050200044B2010804000080EA78081074666D5FDD
:105030006D61696C626F785F68616E646C655F6DED
:105040007367000010B50D4C201D2C2104F024F8CE
:10505000012020600A4800F0BDFA002801D009486C
:1050600010BD0648FFF7C8FE04460020002C03D000
:10507000034800F0CBFA204610BDC04644B20108F8
:105080008875081006000080B0B50025002907D0FB
:105090000D4CE51E002803D0CD43A84202D9254679
:1050A0002846B0BD049D022B05D12B46FFF7CBFC53
:1050B000002806D104E02B46FFF7B2FC002800D1FF
:1050C00004462046B0BDC0460300008001460020D3
:1050D000002908D08A68002A05D008688823C358A8
:1050E000521E8A600B60704710B50122D20700285B
:1050F0000DD000290BD08268002A03D04368882491
:10510000195100E00160521C41608260002210468B
:1051100010BD81680020401A484170470020C043FC
:105120007047000080B50B48EFF30581014204D0C1
:1051300009A00E4903F068FD02E00C48004607DFB5
:1051400000F0F0FC00F088FC00F07AFDFFF77AFF39
:10515000FEE7C046FF0100005B5365632048616EB7
:10516000646C65725D2025730D0A00004D7A08108D
:10517000FEE70000B0B5044601F040F8054601F036
:105180002FF80146002D0CD0A9420AD00A680C481D
:10519000824209D02A6882420DD020462A4600F079
:1051A000F9FF00F08DF9B0BD064A13685B1C13606F
:1051B0002A688242F1D103480268521E0260ECE77D
:1051C0002551081074B201080146002000290AD0B8
:1051D0008A68091D8A4206D003CA4160083A5168AC
:1051E00008600C321046704710B50321C94341587E
:1051F0004A6803460C3B53600B24E44302514B6066
:10520000091D0722D243815010BDF0B581B01D4663
:10521000144606460120C007002E1DD0002D1BD0CD
:1052200027460C372A467A430C328A4214D130463C
:1052300003F030FF301D7060B06031460C31024623
:105240008E6051600A6071604860CB196D1E0A461D
:105250001946F5D13460002001B0F0BDF0B5A1B021
:1052600017460D910646279810930F90C0180528F1
:1052700001D3FFF77DFF299D289C0C96304600F056
:105280007DFB0B90002801D1FFF772FF26980E904E
:10529000684605601098C60001233846314622460C
:1052A000FFF7F2FE002801D0FFF762FF68460560B5
:1052B0000F98C10002230E9809912246FFF7E4FEE1
:1052C000002801D0FFF754FF0A9720200790801B89
:1052D00000211F2E089100D8014619AFB81903F01C
:1052E000DBFE38460A99324603F00CFE099F079808
:1052F000C01B1F2F089900D8014611AEF01903F00A
:10530000CBFE30460E993A4603F0FCFD109800287B
:1053100010D019AE109F03CE6A46156001232246B5
:10532000083EFFF7B1FE002801D0FFF721FF083645
:105330007F1EF0D10F98002810D011AE0F9F03CE22
:105340006A46156002232246083EFFF79DFE0028AC
:1053500001D0FFF70DFF08367F1EF0D10C9E3046BE
:1053600000F0B0FA0546002801D1FFF701FF6846BA
:105370000E9941610F99016111A9C1601099816075
:1053800019A94160046028460B9C214632460D9BBA
:1053900000F0C8F92046294600F036FE002801D06A
:1053A000FFF7E6FE002021B0F0BDF0B587B00E4655
:1053B0000446002822D0204600F0E0FA05460028E6
:1053C00001D1FFF7D5FE204600F07CFA0746002801
:1053D00001D1FFF7CDFE002069460E60486088606D
:1053E000C860086148610120C34338462946224607
:1053F00000F098F92846394600F006FE07B0F0BDE7
:10540000F0B589B016460D4600F0BCFA04460028F7
:1054100001D1FFF7ADFE204600F032F907468220A9
:10542000C043002F2DD00890002E05D02068007CAE
:10543000002801D1FFF79CFE07962046294600F080
:10544000F1F8002801D0FFF793FE384600F03AFA51
:105450000646002819D000256846079922C0056035
:1054600045608560C560089B8233304621463A46D8
:1054700000F058F92046314600F0C6FD284609B034
:10548000F0BD0546284609B0F0BD089D284609B084
:10549000F0BD01200002704780B5FFF769FE80BDB6
:1054A00010B50C4600F06EFA01460020002906D027
:1054B0000968002C02D00A7C002A00D0486910BD7F
:1054C00080B555480068804780BDC04680B5524AC7
:1054D0005268904780BDC046F0B585B00C460028A4
:1054E00011D041680491856806460C364CCE81691E
:1054F000002768460660001D92C004982946FFF701
:10550000ADFE05B0F0BD034803A1392203F07CFBDA
:10551000FEE7C046EA78081074666D5F7270635FDC
:105520007073615F63616C6C0000000080B50028DF
:1055300003D04068FFF739FF80BD034803A1442230
:1055400003F062FBFEE7C046EA78081074666D5F00
:105550007270635F7073615F636C6F7365000000EE
:1055600080B50A46002804D0C1690068FFF748FFEB
:1055700080BD034803A1312203F046FBFEE7C0468D
:10558000EA78081074666D5F7270635F7073615FB4
:10559000636F6E6E6563740080B5FFF77AFF80BD40
:1055A00080B5002803D00068FFF77AFF80BD03486C
:1055B00003A1292203F028FBFEE7C046EA78081081
:1055C00074666D5F7270635F7073615F766572732E
:1055D000696F6E00B0B501460B48002912D00A6809
:1055E000002A0FD0496800290CD00B4B401C1C68C6
:1055F0000B4DAC4206D15C68084DAC4202D11A603A
:1056000059600020B0BDC046010000800248034937
:10561000034A0260416070472CA001082D34081035
:105620002B34081080B500280AD0026893690A4814
:10563000012B0BD0002B0DD152698A420AD308E00E
:10564000064807A1DE2203F0DFFAFEE752698A422C
:1056500000D1002080BDC04602000080EA7808101A
:1056600074666D5F73706D5F636865636B5F636CB9
:1056700069656E745F76657273696F6E0000000015
:1056800010B50446002814D00D48FFF79DFD0021F9
:1056900000280CD09021445001469431A2685160FA
:1056A0009423C250A1600834982144500146084612
:1056B00010BD044804A1382203F0A6FAFEE7C04654
:1056C000E4A40108EA78081074666D5F73706D5F7A
:1056D0006372656174655F636F6E6E5F68616E644F
:1056E0006C650000F0B50C484168002910D00246F6
:1056F0000C3283685C330024084D094E1D6080CA5B
:105700009E605F60683328361035641C8C42F5D388
:10571000012101600020F0BD10A0010824780810CC
:1057200090750810F0B587B00F46064600280FD0D8
:10573000002F14D00E9D0D9C002C18D1002D16D0DA
:1057400093204000821CBB48474903F05DFAFEE706
:1057500093204200B748444903F056FAFEE79320ED
:105760004000421CB348404903F04EFAFEE706935E
:1057700010990F980590002809D1002907D093208F
:105780004000C21CAB48384903F03EFAFEE7052D45
:1057900023D2052929D2481905282ED20391119820
:1057A00002900C980190304614307821049203F056
:1057B00071FC84200299315000222C485E4982C637
:1057C000049931607060083E374602923261019858
:1057D00000281AD0FFF7A2FC1BE093204000021D16
:1057E0009448214903F010FAFEE793204000421D3F
:1057F00090481D4903F008FAFEE793204000821DFF
:105800008C48194903F000FAFEE700F0E9FC806CCF
:105810000068059E3B4606997961F861002D0BD022
:105820001846443019462431626804C12268026077
:10583000083008346D1EF7D1039C002C029D0BD05C
:105840001846643019463431726804C1326824C085
:1058500000300836641EF7D19B61049F002F01D0F1
:105860003868186207B0F0BD0B790810746E766561
:1058700010B50C4600280FD0002C01D1FFF778FCA2
:105880009420205898216258426061580860204650
:10589000FFF7AAFC002010BD024803A1562203F026
:1058A000B3F9FEE7EA78081074666D5F73706D5F98
:1058B000667265655F636F6E6E5F68616E646C656E
:1058C0000000000080B5002801D0001D80BDFF222F
:1058D0001832024802A103F097F9FEE7EA780810AF
:1058E00074666D5F73706D5F6765745F6D73675F1E
:1058F0006275666665725F66726F6D5F636F6E6E0E
:105900005F68616E646C650010B50446002811D0B4
:105910002068094988420DD100F062FC806C016862
:1059200060684068C06D02680020914200D0044663
:10593000204610BD002010BD4343151580B5FDF76E
:1059400085FD014668204843244A926812180020C9
:10595000491C00D0104680BD80B500F041FC806C31
:105960000068FDF773FD0146682048431B4A9268B2
:1059700012180020491C00D0104680BD90214058CC
:1059800070470000F0B581B00446144E71680020E5
:10599000002920D00025B768284600F027FB042105
:1059A000084213D06820684339180A690C318A42CA
:1059B00003D10BE052688A4208D01B20C043105824
:1059C000C36810461C38A342F4D104E06D1C716812
:1059D00000208D42DFD301B0F0BDC04610A0010809
:1059E00070B50C460546002814D029692E460C36A1
:1059F000B14215D00022B14218D01B20C043085834
:105A0000836808461C38A34212D04968B142F4D1D9
:105A1000104670BD074808A1942203F0F5F8FEE790
:105A2000FFF7A6FB29690022B142E6D1104670BDFE
:105A300070BDC046EA78081074666D5F73706D5F64
:105A40006765745F736572766963655F62795F73BA
:105A500069676E616C00000010B504460AA021461B
:105A600003F0D2F82046FCF71BFA01200146FDF7AF
:105A700099FC002803D00CA003F0C2F910BD6420EB
:105A8000FCF7E4FA10BDC0465374617274696E6726
:105A900020436F727465782D4D3420617420307806
:105AA00025780D0A00000000436F756C64206E6F4E
:105AB0007420656E61626C652043595F434D345FAD
:105AC00041502044415020636F6E74726F6C00002F
:105AD0007047000080B502A004A103F095F880BDD6
:105AE000496E20257328290A0000000074666D5F46
:105AF00073706D5F68616C5F636F6E666967757206
:105B0000655F64656661756C745F69736F6C617401
:105B1000696F6E00704700207047704780B5FFF7CF
:105B2000AFF880BD014800687047C0463076081065
:105B300080B5FFF7E1F880BDB0B51446FFF70EF968
:105B400000252846FBF736FE401E291A41412170E8
:105B5000B0BD000080B503A004A103F055F80020FB
:105B600080BDC046257328290A00000074666D5F59
:105B700073706D5F68616C5F696E69745F646562A4
:105B80007567000010B50020012407232146224636
:105B9000FBF7F2FA002801D0204610BDFEF7F6FD13
:105BA000FEF770FAFDF784FB0024204610BD80B597
:105BB000FEF7D4F980BD80B5FEF7D2F980BD80B57F
:105BC00000F00AF801460120002900D080BD62B62D
:105BD000FEF790FE002080BD80B5FEF7DBF903489C
:105BE0000349E02202F01EFF002080BD0080010872
:105BF0003C7608100020704702B2002A04DB032321
:105C00009A430D4BD21806E00F231A40083A03239B
:105C10009A43084BD218C0231940C00018230340F0
:105C20009940FF209840136883430B431360002082
:105C30007047C0461CED00E000E400E00020704723
:105C4000F0B581B0184C2068016A01221506174A88
:105C50008D50AC26805B0922424350182021144A03
:105C6000FBF738F8134F2168086AC2592A42FAD064
:105C70004322920185508258895BC9000818694601
:105C8000FBF718F80028EED12068815BC900006A94
:105C9000081800214160009807498842E3D107A015
:105CA00003F0AEF801B0F0BD70AF0108C8100000FD
:105CB00011E0AD7DCC100000EE1F5282436F726583
:105CC000732073796E6320737563636573732E0D30
:105CD00000000000F0B597B0BD48BE499C221023DB
:105CE0000192FFF792FABC4D686800284AD0002460
:105CF000E04302905C27A868C6197068FFF7EAFEC7
:105D0000204600F073F90421084236D0029A900030
:105D1000059030185321C943002304934350572161
:105D2000C943AE4B4350D100711848394B23DB4374
:105D3000C1504723DB43C150A868C159C968C6197F
:105D4000B068056A436A68460560442050433018CD
:105D5000059D40190390049A00F046FA70199E4D73
:105D6000A968C95989683322D2438150039800F049
:105D70007BFA002801D0FFF7FBF96837641C6868DC
:105D80008442B8D3964E974C3460012007023846BF
:105D9000FDF75CFB682105914143AA685118002575
:105DA000401C00D00D46002D01D1FFF7E1F930462F
:105DB00008307560B060F06030461C30E9684860BB
:105DC000F161E86020461C3070620C35356238465F
:105DD000FDF73CFB059941437F4A92685118002525
:105DE000401C00D00D46002D01D1FFF7C1F930460F
:105DF0002C30B562F062306330464030E96848606C
:105E00003164E86020463830B0640C35756438463B
:105E1000FDF71CFB059941436F4A92685118002514
:105E2000401C00D00D46002D01D1FFF7A1F93046EE
:105E30005030F5643065706530466430E96848601C
:105E40007166E86020465430F0660C35B566384619
:105E5000FDF7FCFA059941435F4A92685118002505
:105E6000401C00D00D46002D01D1FFF781F93046CE
:105E7000743035677067B06730468830E9684860CD
:105E80008822B150E86020467030902170500C3567
:105E90008C2035503846FDF7D9FA059941434E4AD2
:105EA000926851180025401C00D00D46002D01D1EC
:105EB000FFF75EF9942035503046983098217050A5
:105EC000019970503046AC30E9684860AC22B1505E
:105ED000E86020468C30B42170500C35B02035502D
